{
  "_format": "hh-sol-artifact-1",
  "contractName": "L2ScrollBridgeAdapter",
  "sourceName": "contracts/evm/adapters/L2ScrollBridgeAdapter.sol",
  "abi": [
    {
      "inputs": [
        {
          "internalType": "address",
          "name": "_l2ScrollMessenger",
          "type": "address"
        },
        {
          "internalType": "address",
          "name": "_gigaBridge",
          "type": "address"
        },
        {
          "internalType": "address",
          "name": "_l2WarpToad",
          "type": "address"
        }
      ],
      "stateMutability": "nonpayable",
      "type": "constructor"
    },
    {
      "inputs": [],
      "name": "gigaRoot",
      "outputs": [
        {
          "internalType": "uint256",
          "name": "",
          "type": "uint256"
        }
      ],
      "stateMutability": "view",
      "type": "function"
    },
    {
      "inputs": [
        {
          "internalType": "uint256",
          "name": "_gigaRoot",
          "type": "uint256"
        }
      ],
      "name": "receiveGigaRoot",
      "outputs": [],
      "stateMutability": "nonpayable",
      "type": "function"
    },
    {
      "inputs": [
        {
          "internalType": "address",
          "name": "_gigaRootRecipient",
          "type": "address"
        }
      ],
      "name": "sendGigaRoot",
      "outputs": [],
      "stateMutability": "nonpayable",
      "type": "function"
    },
    {
      "inputs": [
        {
          "internalType": "uint256",
          "name": "_gasLimit",
          "type": "uint256"
        }
      ],
      "name": "sentLocalRootToL1",
      "outputs": [],
      "stateMutability": "nonpayable",
      "type": "function"
    }
  ],
  "bytecode": "0x6080604052348015600e575f5ffd5b5060405161047a38038061047a833981016040819052602b916084565b600180546001600160a01b03199081166001600160a01b03948516179091556002805482169484169490941790935560038054909316911617905560bd565b80516001600160a01b0381168114607f575f5ffd5b919050565b5f5f5f606084860312156095575f5ffd5b609c84606a565b925060a860208501606a565b915060b460408501606a565b90509250925092565b6103b0806100ca5f395ff3fe608060405234801561000f575f5ffd5b506004361061004a575f3560e01c806327e74ca31461004e57806329c50fa9146100635780633df6effa1461007d578063ab0f474814610090575b5f5ffd5b61006161005c3660046102b1565b6100a3565b005b61006b5f5481565b60405190815260200160405180910390f35b61006161008b3660046102c8565b6100bf565b61006161009e3660046102b1565b610133565b5f8190556003546100bc906001600160a01b03166100bf565b50565b5f546040517f27e74ca300000000000000000000000000000000000000000000000000000000815260048101919091526001600160a01b038216906327e74ca3906024015f604051808303815f87803b15801561011a575f5ffd5b505af115801561012c573d5f5f3e3d5ffd5b5050505050565b600354604080517fae5582fa00000000000000000000000000000000000000000000000000000000815281515f9384936001600160a01b039091169263ae5582fa9260048083019392829003018187875af1158015610194573d5f5f3e3d5ffd5b505050506040513d601f19601f820116820180604052508101906101b891906102f5565b6002546001546040805160248101869052604480820186905282518083039091018152606490910182526020810180517bffffffffffffffffffffffffffffffffffffffffffffffffffffffff167f2f6503020000000000000000000000000000000000000000000000000000000017905290517f5f7b15770000000000000000000000000000000000000000000000000000000081529496509294506001600160a01b0391821693635f7b1577935f9361027e9316918491908a903390600401610317565b5f604051808303818588803b158015610295575f5ffd5b505af11580156102a7573d5f5f3e3d5ffd5b5050505050505050565b5f602082840312156102c1575f5ffd5b5035919050565b5f602082840312156102d8575f5ffd5b81356001600160a01b03811681146102ee575f5ffd5b9392505050565b5f5f60408385031215610306575f5ffd5b505080516020909101519092909150565b6001600160a01b038616815284602082015260a060408201525f84518060a0840152806020870160c085015e5f60c0828501015260c0601f19601f8301168401019150508360608301526001600160a01b0383166080830152969550505050505056fea2646970667358221220c9170ec4fc7cbd40614fecd8e176218cf5c26888eff34833aabd06687a62053364736f6c634300081d0033",
  "linkReferences": {},
  "deployedLinkReferences": {}
}