{
  "_format": "hh-sol-artifact-1",
  "contractName": "L2WarpToad",
  "sourceName": "contracts/evm/warptoad/L2WarpToad.sol",
  "abi": [
    {
      "inputs": [
        {
          "internalType": "uint8",
          "name": "_maxTreeDepth",
          "type": "uint8"
        },
        {
          "internalType": "address",
          "name": "_withdrawVerifier",
          "type": "address"
        },
        {
          "internalType": "address",
          "name": "_nativeToken",
          "type": "address"
        },
        {
          "internalType": "string",
          "name": "name",
          "type": "string"
        },
        {
          "internalType": "string",
          "name": "symbol",
          "type": "string"
        }
      ],
      "stateMutability": "nonpayable",
      "type": "constructor"
    },
    {
      "inputs": [
        {
          "internalType": "address",
          "name": "spender",
          "type": "address"
        },
        {
          "internalType": "uint256",
          "name": "allowance",
          "type": "uint256"
        },
        {
          "internalType": "uint256",
          "name": "needed",
          "type": "uint256"
        }
      ],
      "name": "ERC20InsufficientAllowance",
      "type": "error"
    },
    {
      "inputs": [
        {
          "internalType": "address",
          "name": "sender",
          "type": "address"
        },
        {
          "internalType": "uint256",
          "name": "balance",
          "type": "uint256"
        },
        {
          "internalType": "uint256",
          "name": "needed",
          "type": "uint256"
        }
      ],
      "name": "ERC20InsufficientBalance",
      "type": "error"
    },
    {
      "inputs": [
        {
          "internalType": "address",
          "name": "approver",
          "type": "address"
        }
      ],
      "name": "ERC20InvalidApprover",
      "type": "error"
    },
    {
      "inputs": [
        {
          "internalType": "address",
          "name": "receiver",
          "type": "address"
        }
      ],
      "name": "ERC20InvalidReceiver",
      "type": "error"
    },
    {
      "inputs": [
        {
          "internalType": "address",
          "name": "sender",
          "type": "address"
        }
      ],
      "name": "ERC20InvalidSender",
      "type": "error"
    },
    {
      "inputs": [
        {
          "internalType": "address",
          "name": "spender",
          "type": "address"
        }
      ],
      "name": "ERC20InvalidSpender",
      "type": "error"
    },
    {
      "anonymous": false,
      "inputs": [
        {
          "indexed": true,
          "internalType": "address",
          "name": "owner",
          "type": "address"
        },
        {
          "indexed": true,
          "internalType": "address",
          "name": "spender",
          "type": "address"
        },
        {
          "indexed": false,
          "internalType": "uint256",
          "name": "value",
          "type": "uint256"
        }
      ],
      "name": "Approval",
      "type": "event"
    },
    {
      "anonymous": false,
      "inputs": [
        {
          "indexed": true,
          "internalType": "uint256",
          "name": "commitment",
          "type": "uint256"
        },
        {
          "indexed": false,
          "internalType": "uint256",
          "name": "amount",
          "type": "uint256"
        },
        {
          "indexed": false,
          "internalType": "uint256",
          "name": "index",
          "type": "uint256"
        }
      ],
      "name": "Burn",
      "type": "event"
    },
    {
      "anonymous": false,
      "inputs": [
        {
          "indexed": true,
          "internalType": "address",
          "name": "from",
          "type": "address"
        },
        {
          "indexed": true,
          "internalType": "address",
          "name": "to",
          "type": "address"
        },
        {
          "indexed": false,
          "internalType": "uint256",
          "name": "value",
          "type": "uint256"
        }
      ],
      "name": "Transfer",
      "type": "event"
    },
    {
      "inputs": [
        {
          "internalType": "uint256",
          "name": "_nullifier",
          "type": "uint256"
        },
        {
          "internalType": "uint256",
          "name": "_chainId",
          "type": "uint256"
        },
        {
          "internalType": "uint256",
          "name": "_amount",
          "type": "uint256"
        },
        {
          "internalType": "uint256",
          "name": "_gigaRoot",
          "type": "uint256"
        },
        {
          "internalType": "uint256",
          "name": "_localRoot",
          "type": "uint256"
        },
        {
          "internalType": "uint256",
          "name": "_feeFactor",
          "type": "uint256"
        },
        {
          "internalType": "uint256",
          "name": "_priorityFee",
          "type": "uint256"
        },
        {
          "internalType": "uint256",
          "name": "_maxFee",
          "type": "uint256"
        },
        {
          "internalType": "address",
          "name": "_relayer",
          "type": "address"
        },
        {
          "internalType": "address",
          "name": "_recipient",
          "type": "address"
        }
      ],
      "name": "_formatPublicInputs",
      "outputs": [
        {
          "internalType": "bytes32[]",
          "name": "",
          "type": "bytes32[]"
        }
      ],
      "stateMutability": "pure",
      "type": "function"
    },
    {
      "inputs": [
        {
          "internalType": "address",
          "name": "owner",
          "type": "address"
        },
        {
          "internalType": "address",
          "name": "spender",
          "type": "address"
        }
      ],
      "name": "allowance",
      "outputs": [
        {
          "internalType": "uint256",
          "name": "",
          "type": "uint256"
        }
      ],
      "stateMutability": "view",
      "type": "function"
    },
    {
      "inputs": [
        {
          "internalType": "address",
          "name": "spender",
          "type": "address"
        },
        {
          "internalType": "uint256",
          "name": "value",
          "type": "uint256"
        }
      ],
      "name": "approve",
      "outputs": [
        {
          "internalType": "bool",
          "name": "",
          "type": "bool"
        }
      ],
      "stateMutability": "nonpayable",
      "type": "function"
    },
    {
      "inputs": [
        {
          "internalType": "address",
          "name": "account",
          "type": "address"
        }
      ],
      "name": "balanceOf",
      "outputs": [
        {
          "internalType": "uint256",
          "name": "",
          "type": "uint256"
        }
      ],
      "stateMutability": "view",
      "type": "function"
    },
    {
      "inputs": [],
      "name": "bridgeRoot",
      "outputs": [],
      "stateMutability": "view",
      "type": "function"
    },
    {
      "inputs": [
        {
          "internalType": "uint256",
          "name": "_preCommitment",
          "type": "uint256"
        },
        {
          "internalType": "uint256",
          "name": "_amount",
          "type": "uint256"
        }
      ],
      "name": "burn",
      "outputs": [],
      "stateMutability": "nonpayable",
      "type": "function"
    },
    {
      "inputs": [],
      "name": "cachedLocalRoot",
      "outputs": [
        {
          "internalType": "uint256",
          "name": "",
          "type": "uint256"
        }
      ],
      "stateMutability": "view",
      "type": "function"
    },
    {
      "inputs": [],
      "name": "commitTreeData",
      "outputs": [
        {
          "internalType": "uint40",
          "name": "maxIndex",
          "type": "uint40"
        },
        {
          "internalType": "uint40",
          "name": "numberOfLeaves",
          "type": "uint40"
        }
      ],
      "stateMutability": "view",
      "type": "function"
    },
    {
      "inputs": [],
      "name": "decimals",
      "outputs": [
        {
          "internalType": "uint8",
          "name": "",
          "type": "uint8"
        }
      ],
      "stateMutability": "view",
      "type": "function"
    },
    {
      "inputs": [],
      "name": "getLocalRootAndBlock",
      "outputs": [
        {
          "internalType": "uint256",
          "name": "",
          "type": "uint256"
        },
        {
          "internalType": "uint256",
          "name": "",
          "type": "uint256"
        }
      ],
      "stateMutability": "nonpayable",
      "type": "function"
    },
    {
      "inputs": [],
      "name": "gigaRoot",
      "outputs": [
        {
          "internalType": "uint256",
          "name": "",
          "type": "uint256"
        }
      ],
      "stateMutability": "view",
      "type": "function"
    },
    {
      "inputs": [
        {
          "internalType": "uint256",
          "name": "",
          "type": "uint256"
        }
      ],
      "name": "gigaRootHistory",
      "outputs": [
        {
          "internalType": "bool",
          "name": "",
          "type": "bool"
        }
      ],
      "stateMutability": "view",
      "type": "function"
    },
    {
      "inputs": [],
      "name": "gigaRootProvider",
      "outputs": [
        {
          "internalType": "address",
          "name": "",
          "type": "address"
        }
      ],
      "stateMutability": "view",
      "type": "function"
    },
    {
      "inputs": [
        {
          "internalType": "address",
          "name": "_gigaRootProvider",
          "type": "address"
        },
        {
          "internalType": "address",
          "name": "_l1BridgeAdapter",
          "type": "address"
        }
      ],
      "name": "initialize",
      "outputs": [],
      "stateMutability": "nonpayable",
      "type": "function"
    },
    {
      "inputs": [
        {
          "internalType": "uint256",
          "name": "_gigaRoot",
          "type": "uint256"
        }
      ],
      "name": "isValidGigaRoot",
      "outputs": [
        {
          "internalType": "bool",
          "name": "",
          "type": "bool"
        }
      ],
      "stateMutability": "view",
      "type": "function"
    },
    {
      "inputs": [
        {
          "internalType": "uint256",
          "name": "_localRoot",
          "type": "uint256"
        }
      ],
      "name": "isValidLocalRoot",
      "outputs": [
        {
          "internalType": "bool",
          "name": "",
          "type": "bool"
        }
      ],
      "stateMutability": "view",
      "type": "function"
    },
    {
      "inputs": [],
      "name": "l1BridgeAdapter",
      "outputs": [
        {
          "internalType": "address",
          "name": "",
          "type": "address"
        }
      ],
      "stateMutability": "view",
      "type": "function"
    },
    {
      "inputs": [],
      "name": "lastLeafIndex",
      "outputs": [
        {
          "internalType": "uint256",
          "name": "",
          "type": "uint256"
        }
      ],
      "stateMutability": "view",
      "type": "function"
    },
    {
      "inputs": [],
      "name": "localRoot",
      "outputs": [
        {
          "internalType": "uint256",
          "name": "",
          "type": "uint256"
        }
      ],
      "stateMutability": "view",
      "type": "function"
    },
    {
      "inputs": [
        {
          "internalType": "uint256",
          "name": "",
          "type": "uint256"
        }
      ],
      "name": "localRootHistory",
      "outputs": [
        {
          "internalType": "bool",
          "name": "",
          "type": "bool"
        }
      ],
      "stateMutability": "view",
      "type": "function"
    },
    {
      "inputs": [],
      "name": "maxTreeDepth",
      "outputs": [
        {
          "internalType": "uint8",
          "name": "",
          "type": "uint8"
        }
      ],
      "stateMutability": "view",
      "type": "function"
    },
    {
      "inputs": [
        {
          "internalType": "uint256",
          "name": "_nullifier",
          "type": "uint256"
        },
        {
          "internalType": "uint256",
          "name": "_amount",
          "type": "uint256"
        },
        {
          "internalType": "uint256",
          "name": "_gigaRoot",
          "type": "uint256"
        },
        {
          "internalType": "uint256",
          "name": "_localRoot",
          "type": "uint256"
        },
        {
          "internalType": "uint256",
          "name": "_feeFactor",
          "type": "uint256"
        },
        {
          "internalType": "uint256",
          "name": "_priorityFee",
          "type": "uint256"
        },
        {
          "internalType": "uint256",
          "name": "_maxFee",
          "type": "uint256"
        },
        {
          "internalType": "address",
          "name": "_relayer",
          "type": "address"
        },
        {
          "internalType": "address",
          "name": "_recipient",
          "type": "address"
        },
        {
          "internalType": "bytes",
          "name": "_poof",
          "type": "bytes"
        }
      ],
      "name": "mint",
      "outputs": [],
      "stateMutability": "nonpayable",
      "type": "function"
    },
    {
      "inputs": [],
      "name": "name",
      "outputs": [
        {
          "internalType": "string",
          "name": "",
          "type": "string"
        }
      ],
      "stateMutability": "view",
      "type": "function"
    },
    {
      "inputs": [],
      "name": "nativeToken",
      "outputs": [
        {
          "internalType": "address",
          "name": "",
          "type": "address"
        }
      ],
      "stateMutability": "view",
      "type": "function"
    },
    {
      "inputs": [
        {
          "internalType": "uint256",
          "name": "_gigaRoot",
          "type": "uint256"
        }
      ],
      "name": "receiveGigaRoot",
      "outputs": [],
      "stateMutability": "nonpayable",
      "type": "function"
    },
    {
      "inputs": [],
      "name": "storeLocalRootInHistory",
      "outputs": [
        {
          "internalType": "uint256",
          "name": "",
          "type": "uint256"
        }
      ],
      "stateMutability": "nonpayable",
      "type": "function"
    },
    {
      "inputs": [],
      "name": "symbol",
      "outputs": [
        {
          "internalType": "string",
          "name": "",
          "type": "string"
        }
      ],
      "stateMutability": "view",
      "type": "function"
    },
    {
      "inputs": [],
      "name": "totalSupply",
      "outputs": [
        {
          "internalType": "uint256",
          "name": "",
          "type": "uint256"
        }
      ],
      "stateMutability": "view",
      "type": "function"
    },
    {
      "inputs": [
        {
          "internalType": "address",
          "name": "to",
          "type": "address"
        },
        {
          "internalType": "uint256",
          "name": "value",
          "type": "uint256"
        }
      ],
      "name": "transfer",
      "outputs": [
        {
          "internalType": "bool",
          "name": "",
          "type": "bool"
        }
      ],
      "stateMutability": "nonpayable",
      "type": "function"
    },
    {
      "inputs": [
        {
          "internalType": "address",
          "name": "from",
          "type": "address"
        },
        {
          "internalType": "address",
          "name": "to",
          "type": "address"
        },
        {
          "internalType": "uint256",
          "name": "value",
          "type": "uint256"
        }
      ],
      "name": "transferFrom",
      "outputs": [
        {
          "internalType": "bool",
          "name": "",
          "type": "bool"
        }
      ],
      "stateMutability": "nonpayable",
      "type": "function"
    },
    {
      "inputs": [],
      "name": "withdrawVerifier",
      "outputs": [
        {
          "internalType": "address",
          "name": "",
          "type": "address"
        }
      ],
      "stateMutability": "view",
      "type": "function"
    }
  ],
  "bytecode": "0x608060405234801561000f575f5ffd5b50604051611aad380380611aad83398101604081905261002e9161028e565b8484848484600361003f83826103af565b50600461004c82826103af565b50506008805460ff191660ff8616908117909155600f80546001600160a01b0319166001600160a01b038616179055604051631844db3b60e21b815260066004820152602481019190915273__$5fc44c2a7799c6ceb48acabb21e98687d0$__91506361136cec906044015f6040518083038186803b1580156100cd575f5ffd5b505af41580156100df573d5f5f3e3d5ffd5b5050601180546001600160a01b0385166001600160a01b0319918216179091556005805490911633179055506101159050610123565b505050505050505050610480565b5f8061012d610150565b60098190555f818152600c60205260409020805460ff1916600117905592915050565b6008546040516339ebe6e360e01b81526006600482015260ff90911660248201525f9073__$5fc44c2a7799c6ceb48acabb21e98687d0$__906339ebe6e390604401602060405180830381865af41580156101ad573d5f5f3e3d5ffd5b505050506040513d601f19601f820116820180604052508101906101d19190610469565b905090565b80516001600160a01b03811681146101ec575f5ffd5b919050565b634e487b7160e01b5f52604160045260245ffd5b5f82601f830112610214575f5ffd5b81516001600160401b0381111561022d5761022d6101f1565b604051601f8201601f19908116603f011681016001600160401b038111828210171561025b5761025b6101f1565b604052818152838201602001851015610272575f5ffd5b8160208501602083015e5f918101602001919091529392505050565b5f5f5f5f5f60a086880312156102a2575f5ffd5b855160ff811681146102b2575f5ffd5b94506102c0602087016101d6565b93506102ce604087016101d6565b60608701519093506001600160401b038111156102e9575f5ffd5b6102f588828901610205565b608088015190935090506001600160401b03811115610312575f5ffd5b61031e88828901610205565b9150509295509295909350565b600181811c9082168061033f57607f821691505b60208210810361035d57634e487b7160e01b5f52602260045260245ffd5b50919050565b601f8211156103aa57805f5260205f20601f840160051c810160208510156103885750805b601f840160051c820191505b818110156103a7575f8155600101610394565b50505b505050565b81516001600160401b038111156103c8576103c86101f1565b6103dc816103d6845461032b565b84610363565b6020601f82116001811461040e575f83156103f75750848201515b5f19600385901b1c1916600184901b1784556103a7565b5f84815260208120601f198516915b8281101561043d578785015182556020948501946001909201910161041d565b508482101561045a57868401515f19600387901b60f8161c191681555b50505050600190811b01905550565b5f60208284031215610479575f5ffd5b5051919050565b6116208061048d5f395ff3fe608060405234801561000f575f5ffd5b50600436106101dc575f3560e01c80636b95cb0511610109578063a9059cbb1161009e578063dd62ed3e1161006e578063dd62ed3e14610453578063df54fe501461048b578063e1758bd814610494578063e358270d146104a7575f5ffd5b8063a9059cbb14610403578063ae5582fa14610416578063b390c0ab14610433578063d3f9fa5114610446575f5ffd5b8063882f624a116100d9578063882f624a146103b557806395d89b41146103c85780639d1453e5146103d0578063a50410a9146103f0575f5ffd5b80636b95cb051461036957806370a0823114610371578063828f227a14610399578063864eb164146103a2575f5ffd5b806327e74ca31161017f578063313ce5671161014f578063313ce567146102f4578063485cc9551461030957806357c423e11461031c57806367f8da3a1461033e575f5ffd5b806327e74ca3146102ae57806328b0c0aa146102c157806329c50fa9146102c95780632ffe1f29146102d2575f5ffd5b806318160ddd116101ba57806318160ddd1461022b5780631ec84e8e1461023d57806323b872dd1461025f57806323f364c514610272575f5ffd5b806306fdde03146101e0578063095ea7b3146101fe578063177a0c2c14610221575b5f5ffd5b6101e86104c9565b6040516101f59190611199565b60405180910390f35b61021161020c3660046111cd565b610559565b60405190151581526020016101f5565b610229610572565b005b6002545b6040519081526020016101f5565b61021161024b3660046111f5565b5f908152600c602052604090205460ff1690565b61021161026d36600461120c565b61057d565b6006546102909064ffffffffff808216916501000000000090041682565b6040805164ffffffffff9384168152929091166020830152016101f5565b6102296102bc3660046111f5565b6105a0565b61022f61061c565b61022f600a5481565b6102116102e03660046111f5565b600c6020525f908152604090205460ff1681565b60125b60405160ff90911681526020016101f5565b610229610317366004611246565b6106bb565b61021161032a3660046111f5565b600b6020525f908152604090205460ff1681565b600e54610351906001600160a01b031681565b6040516001600160a01b0390911681526020016101f5565b61022f61080d565b61022f61037f366004611277565b6001600160a01b03165f9081526020819052604090205490565b61022f60095481565b600f54610351906001600160a01b031681565b600d54610351906001600160a01b031681565b6101e861083a565b6103e36103de366004611290565b610849565b6040516101f59190611346565b6102296103fe36600461136c565b610985565b6102116104113660046111cd565b610c0b565b61041e610c18565b604080519283526020830191909152016101f5565b610229610441366004611482565b610c2d565b6008546102f79060ff1681565b61022f610461366004611246565b6001600160a01b039182165f90815260016020908152604080832093909416825291909152205490565b61022f60105481565b601154610351906001600160a01b031681565b6102116104b53660046111f5565b5f908152600b602052604090205460ff1690565b6060600380546104d8906114a2565b80601f0160208091040260200160405190810160405280929190818152602001828054610504906114a2565b801561054f5780601f106105265761010080835404028352916020019161054f565b820191905f5260205f20905b81548152906001019060200180831161053257829003601f168201915b5050505050905090565b5f33610566818585610db8565b60019150505b92915050565b61057a61061c565b50565b5f3361058a858285610dca565b610595858585610e5f565b506001949350505050565b600e546001600160a01b031633146105ff5760405162461bcd60e51b815260206004820152601460248201527f4e6f742067696761526f6f7450726f766964657200000000000000000000000060448201526064015b60405180910390fd5b5f818152600b60205260409020805460ff19166001179055600a55565b6008546040517f39ebe6e30000000000000000000000000000000000000000000000000000000081526006600482015260ff90911660248201525f9073__$5fc44c2a7799c6ceb48acabb21e98687d0$__906339ebe6e390604401602060405180830381865af4158015610692573d5f5f3e3d5ffd5b505050506040513d601f19601f820116820180604052508101906106b691906114da565b905090565b6005546001600160a01b031633146107155760405162461bcd60e51b815260206004820152601060248201527f4e6f7420746865206465706c6f7965720000000000000000000000000000000060448201526064016105f6565b600e546001600160a01b03161561076e5760405162461bcd60e51b815260206004820152601f60248201527f67696761526f6f7450726f766964657220697320616c7265616479207365740060448201526064016105f6565b600d546001600160a01b0316156107c75760405162461bcd60e51b815260206004820152601e60248201527f6c314272696467654164617074657220697320616c726561647920736574000060448201526064016105f6565b600e80546001600160a01b039384167fffffffffffffffffffffffff000000000000000000000000000000000000000091821617909155600d8054929093169116179055565b5f5f61081761061c565b60098190555f818152600c60205260409020805460ff1916600117905592915050565b6060600480546104d8906114a2565b60408051600a80825261016082019092526060915f919060208201610140803683370190505060408051610100810182528e815260208082018f90528183018e9052606082018d9052608082018c905260a082018b905260c082018a905260e0820189905282518084019093526001600160a01b0380891684528716908301529192505f5b6008811015610915578281600881106108e9576108e96114f1565b60200201515f1b848281518110610902576109026114f1565b60209081029190910101526001016108ce565b5060085f5b600281101561097157828160028110610935576109356114f1565b60200201516001600160a01b03168561094e8385611519565b8151811061095e5761095e6114f1565b602090810291909101015260010161091a565b50929e9d5050505050505050505050505050565b5f888152600b602052604090205460ff166109e25760405162461bcd60e51b815260206004820152601160248201527f5f67696761526f6f7420756e6b6e6f776e00000000000000000000000000000060448201526064016105f6565b5f878152600c602052604090205460ff16610a3f5760405162461bcd60e51b815260206004820152601260248201527f5f6c6f63616c526f6f7420756e6b6e6f776e000000000000000000000000000060448201526064016105f6565b5f610a528b468c8c8c8c8c8c8c8c610849565b600f546040517fea50d0e40000000000000000000000000000000000000000000000000000000081529192506001600160a01b03169063ea50d0e490610a9e908590859060040161152c565b602060405180830381865afa158015610ab9573d5f5f3e3d5ffd5b505050506040513d601f19601f82011682018060405250810190610add9190611559565b610b295760405162461bcd60e51b815260206004820152600d60248201527f696e76616c69642070726f6f660000000000000000000000000000000000000060448201526064016105f6565b8615610bf4575f610b3a8748611519565b610b449089611578565b905085811115610bbc5760405162461bcd60e51b815260206004820152602260248201527f5f72656c61796572466565206973206c6172676572207468616e205f6d61784660448201527f656500000000000000000000000000000000000000000000000000000000000060648201526084016105f6565b5f196001600160a01b03861601610bd1573394505b610bdb8582610ebc565b610bee84610be9838e61158f565b610ebc565b50610bfe565b610bfe838b610ebc565b5050505050505050505050565b5f33610566818585610e5f565b5f5f610c2261080d565b505060095491439150565b610c373382610ef4565b6040805180820182528381526020810183905290517f561558fe0000000000000000000000000000000000000000000000000000000081525f9173__$75f79a42d9bcbdbb69ad79ebd80f556f39$__9163561558fe91610c99916004016115a2565b602060405180830381865af4158015610cb4573d5f5f3e3d5ffd5b505050506040513d601f19601f82011682018060405250810190610cd891906114da565b6040517f0224ef5e000000000000000000000000000000000000000000000000000000008152600660048201526024810182905290915073__$5fc44c2a7799c6ceb48acabb21e98687d0$__90630224ef5e906044015f6040518083038186803b158015610d44575f5ffd5b505af4158015610d56573d5f5f3e3d5ffd5b50505050807f5af801e983cfd842de8b0797a2d6077db3ac2dea16571e0c7f5080291ca1b93483601054604051610d97929190918252602082015260400190565b60405180910390a260108054905f610dae836115d2565b9190505550505050565b610dc58383836001610f28565b505050565b6001600160a01b038381165f908152600160209081526040808320938616835292905220545f19811015610e595781811015610e4b576040517ffb8f41b20000000000000000000000000000000000000000000000000000000081526001600160a01b038416600482015260248101829052604481018390526064016105f6565b610e5984848484035f610f28565b50505050565b6001600160a01b038316610e8857604051634b637e8f60e11b81525f60048201526024016105f6565b6001600160a01b038216610eb15760405163ec442f0560e01b81525f60048201526024016105f6565b610dc583838361102c565b6001600160a01b038216610ee55760405163ec442f0560e01b81525f60048201526024016105f6565b610ef05f838361102c565b5050565b6001600160a01b038216610f1d57604051634b637e8f60e11b81525f60048201526024016105f6565b610ef0825f8361102c565b6001600160a01b038416610f6a576040517fe602df050000000000000000000000000000000000000000000000000000000081525f60048201526024016105f6565b6001600160a01b038316610fac576040517f94280d620000000000000000000000000000000000000000000000000000000081525f60048201526024016105f6565b6001600160a01b038085165f9081526001602090815260408083209387168352929052208290558015610e5957826001600160a01b0316846001600160a01b03167f8c5be1e5ebec7d5bd14f71427d1e84f3dd0314c0f7b2291e5b200ac8c7c3b9258460405161101e91815260200190565b60405180910390a350505050565b6001600160a01b038316611056578060025f82825461104b9190611519565b909155506110df9050565b6001600160a01b0383165f90815260208190526040902054818110156110c1576040517fe450d38c0000000000000000000000000000000000000000000000000000000081526001600160a01b038516600482015260248101829052604481018390526064016105f6565b6001600160a01b0384165f9081526020819052604090209082900390555b6001600160a01b0382166110fb57600280548290039055611119565b6001600160a01b0382165f9081526020819052604090208054820190555b816001600160a01b0316836001600160a01b03167fddf252ad1be2c89b69c2b068fc378daa952ba7f163c4a11628f55a4df523b3ef8360405161115e91815260200190565b60405180910390a3505050565b5f81518084528060208401602086015e5f602082860101526020601f19601f83011685010191505092915050565b602081525f6111ab602083018461116b565b9392505050565b80356001600160a01b03811681146111c8575f5ffd5b919050565b5f5f604083850312156111de575f5ffd5b6111e7836111b2565b946020939093013593505050565b5f60208284031215611205575f5ffd5b5035919050565b5f5f5f6060848603121561121e575f5ffd5b611227846111b2565b9250611235602085016111b2565b929592945050506040919091013590565b5f5f60408385031215611257575f5ffd5b611260836111b2565b915061126e602084016111b2565b90509250929050565b5f60208284031215611287575f5ffd5b6111ab826111b2565b5f5f5f5f5f5f5f5f5f5f6101408b8d0312156112aa575f5ffd5b8a35995060208b0135985060408b0135975060608b0135965060808b0135955060a08b0135945060c08b0135935060e08b013592506112ec6101008c016111b2565b91506112fb6101208c016111b2565b90509295989b9194979a5092959850565b5f8151808452602084019350602083015f5b8281101561133c57815186526020958601959091019060010161131e565b5093949350505050565b602081525f6111ab602083018461130c565b634e487b7160e01b5f52604160045260245ffd5b5f5f5f5f5f5f5f5f5f5f6101408b8d031215611386575f5ffd5b8a35995060208b0135985060408b0135975060608b0135965060808b0135955060a08b0135945060c08b013593506113c060e08c016111b2565b92506113cf6101008c016111b2565b91506101208b013567ffffffffffffffff8111156113eb575f5ffd5b8b01601f81018d136113fb575f5ffd5b803567ffffffffffffffff81111561141557611415611358565b604051601f8201601f19908116603f0116810167ffffffffffffffff8111828210171561144457611444611358565b6040528181528282016020018f101561145b575f5ffd5b816020840160208301375f602083830101528093505050509295989b9194979a5092959850565b5f5f60408385031215611493575f5ffd5b50508035926020909101359150565b600181811c908216806114b657607f821691505b6020821081036114d457634e487b7160e01b5f52602260045260245ffd5b50919050565b5f602082840312156114ea575f5ffd5b5051919050565b634e487b7160e01b5f52603260045260245ffd5b634e487b7160e01b5f52601160045260245ffd5b8082018082111561056c5761056c611505565b604081525f61153e604083018561116b565b8281036020840152611550818561130c565b95945050505050565b5f60208284031215611569575f5ffd5b815180151581146111ab575f5ffd5b808202811582820484141761056c5761056c611505565b8181038181111561056c5761056c611505565b6040810181835f5b60028110156115c95781518352602092830192909101906001016115aa565b50505092915050565b5f600182016115e3576115e3611505565b506001019056fea26469706673582212200c1644a2fa7421d492afdfa84c563730de6a97e91b8dacbdc8f1825c1c0784b264736f6c634300081d0033",
  "linkReferences": {
    "@zk-kit/lazy-imt.sol/LazyIMT.sol": {
      "LazyIMT": [
        {
          "length": 20,
          "start": 153
        },
        {
          "length": 20,
          "start": 373
        },
        {
          "length": 20,
          "start": 2791
        },
        {
          "length": 20,
          "start": 4510
        }
      ]
    },
    "poseidon-solidity/PoseidonT3.sol": {
      "PoseidonT3": [
        {
          "length": 20,
          "start": 4352
        }
      ]
    }
  },
  "deployedLinkReferences": {
    "@zk-kit/lazy-imt.sol/LazyIMT.sol": {
      "LazyIMT": [
        {
          "length": 20,
          "start": 1626
        },
        {
          "length": 20,
          "start": 3345
        }
      ]
    },
    "poseidon-solidity/PoseidonT3.sol": {
      "PoseidonT3": [
        {
          "length": 20,
          "start": 3187
        }
      ]
    }
  }
}