{
  "_format": "hh-sol-artifact-1",
  "contractName": "L2ScrollBridgeAdapter",
  "sourceName": "contracts/evm/adapters/L2ScrollBridgeAdapter.sol",
  "abi": [
    {
      "inputs": [
        {
          "internalType": "address",
          "name": "_l2ScrollMessenger",
          "type": "address"
        },
        {
          "internalType": "address",
          "name": "_l1ScrollBridgeAdapter",
          "type": "address"
        },
        {
          "internalType": "address",
          "name": "_l2WarpToad",
          "type": "address"
        }
      ],
      "stateMutability": "nonpayable",
      "type": "constructor"
    },
    {
      "inputs": [],
      "name": "gigaRoot",
      "outputs": [
        {
          "internalType": "uint256",
          "name": "",
          "type": "uint256"
        }
      ],
      "stateMutability": "view",
      "type": "function"
    },
    {
      "inputs": [
        {
          "internalType": "uint256",
          "name": "_gigaRoot",
          "type": "uint256"
        }
      ],
      "name": "receiveGigaRoot",
      "outputs": [],
      "stateMutability": "nonpayable",
      "type": "function"
    },
    {
      "inputs": [
        {
          "internalType": "address",
          "name": "_gigaRootRecipient",
          "type": "address"
        }
      ],
      "name": "sendGigaRoot",
      "outputs": [],
      "stateMutability": "nonpayable",
      "type": "function"
    },
    {
      "inputs": [
        {
          "internalType": "uint256",
          "name": "_gasLimit",
          "type": "uint256"
        }
      ],
      "name": "sentLocalRootToL1",
      "outputs": [],
      "stateMutability": "nonpayable",
      "type": "function"
    }
  ],
  "bytecode": "0x6080604052348015600e575f5ffd5b5060405161061a38038061061a833981016040819052602b916084565b600180546001600160a01b03199081166001600160a01b03948516179091556002805482169484169490941790935560038054909316911617905560bd565b80516001600160a01b0381168114607f575f5ffd5b919050565b5f5f5f606084860312156095575f5ffd5b609c84606a565b925060a860208501606a565b915060b460408501606a565b90509250925092565b610550806100ca5f395ff3fe608060405234801561000f575f5ffd5b506004361061004a575f3560e01c806327e74ca31461004e57806329c50fa9146100635780633df6effa1461007d578063ab0f474814610090575b5f5ffd5b61006161005c36600461042d565b6100a3565b005b61006b5f5481565b60405190815260200160405180910390f35b61006161008b366004610458565b61023b565b61006161009e36600461042d565b6102af565b6002546001600160a01b031633146101285760405162461bcd60e51b815260206004820152602860248201527f66756e6374696f6e206e6f742063616c6c6564206279206c315363726f6c6c4d60448201527f657373656e67657200000000000000000000000000000000000000000000000060648201526084015b60405180910390fd5b60025f9054906101000a90046001600160a01b03166001600160a01b0316636e296e456040518163ffffffff1660e01b8152600401602060405180830381865afa158015610178573d5f5f3e3d5ffd5b505050506040513d601f19601f8201168201806040525081019061019c919061047a565b6001546001600160a01b0390811691161461021f5760405162461bcd60e51b815260206004820152603b60248201527f636f6e7472616374206d6573736167696e672066726f6d204c31206973206e6f60448201527f7420746865204c315363726f6c6c427269646765416461707465720000000000606482015260840161011f565b5f819055600354610238906001600160a01b031661023b565b50565b5f546040517f27e74ca300000000000000000000000000000000000000000000000000000000815260048101919091526001600160a01b038216906327e74ca3906024015f604051808303815f87803b158015610296575f5ffd5b505af11580156102a8573d5f5f3e3d5ffd5b5050505050565b600354604080517fae5582fa00000000000000000000000000000000000000000000000000000000815281515f9384936001600160a01b039091169263ae5582fa9260048083019392829003018187875af1158015610310573d5f5f3e3d5ffd5b505050506040513d601f19601f820116820180604052508101906103349190610495565b6002546001546040805160248101869052604480820186905282518083039091018152606490910182526020810180517bffffffffffffffffffffffffffffffffffffffffffffffffffffffff167f010bb8710000000000000000000000000000000000000000000000000000000017905290517f5f7b15770000000000000000000000000000000000000000000000000000000081529496509294506001600160a01b0391821693635f7b1577935f936103fa9316918491908a9033906004016104b7565b5f604051808303818588803b158015610411575f5ffd5b505af1158015610423573d5f5f3e3d5ffd5b5050505050505050565b5f6020828403121561043d575f5ffd5b5035919050565b6001600160a01b0381168114610238575f5ffd5b5f60208284031215610468575f5ffd5b813561047381610444565b9392505050565b5f6020828403121561048a575f5ffd5b815161047381610444565b5f5f604083850312156104a6575f5ffd5b505080516020909101519092909150565b6001600160a01b038616815284602082015260a060408201525f84518060a0840152806020870160c085015e5f60c0828501015260c0601f19601f8301168401019150508360608301526001600160a01b0383166080830152969550505050505056fea2646970667358221220860406f7a3fe7a0526199a008620d5f164a99dce6f58e67ad6dc32db5fa9c8f564736f6c634300081d0033",
  "linkReferences": {},
  "deployedLinkReferences": {}
}