{
  "_format": "hh-sol-artifact-1",
  "contractName": "L1ScrollBridgeAdapter",
  "sourceName": "contracts/evm/adapters/L1ScrollBridgeAdapter.sol",
  "abi": [
    {
      "inputs": [
        {
          "internalType": "address",
          "name": "_l1ScrollMessenger",
          "type": "address"
        }
      ],
      "stateMutability": "nonpayable",
      "type": "constructor"
    },
    {
      "anonymous": false,
      "inputs": [
        {
          "indexed": false,
          "internalType": "uint256",
          "name": "newL2Root",
          "type": "uint256"
        },
        {
          "indexed": false,
          "internalType": "uint256",
          "name": "l2Block",
          "type": "uint256"
        }
      ],
      "name": "ReceivedNewL2Root",
      "type": "event"
    },
    {
      "inputs": [
        {
          "internalType": "uint256",
          "name": "_gasLimit",
          "type": "uint256"
        }
      ],
      "name": "bridgeGigaRootWithGasLimit",
      "outputs": [],
      "stateMutability": "nonpayable",
      "type": "function"
    },
    {
      "inputs": [],
      "name": "getLocalRootAndBlock",
      "outputs": [
        {
          "internalType": "uint256",
          "name": "",
          "type": "uint256"
        },
        {
          "internalType": "uint256",
          "name": "",
          "type": "uint256"
        }
      ],
      "stateMutability": "view",
      "type": "function"
    },
    {
      "inputs": [
        {
          "internalType": "uint256",
          "name": "_l2Root",
          "type": "uint256"
        },
        {
          "internalType": "uint256",
          "name": "_l2BlockNumber",
          "type": "uint256"
        }
      ],
      "name": "getNewRootFromL2",
      "outputs": [],
      "stateMutability": "nonpayable",
      "type": "function"
    },
    {
      "inputs": [],
      "name": "gigaBridge",
      "outputs": [
        {
          "internalType": "address",
          "name": "",
          "type": "address"
        }
      ],
      "stateMutability": "view",
      "type": "function"
    },
    {
      "inputs": [
        {
          "internalType": "address",
          "name": "_l2ScrollBridgeAdapter",
          "type": "address"
        },
        {
          "internalType": "address",
          "name": "_gigaRootBridge",
          "type": "address"
        }
      ],
      "name": "initialize",
      "outputs": [],
      "stateMutability": "nonpayable",
      "type": "function"
    },
    {
      "inputs": [],
      "name": "l1ScrollMessenger",
      "outputs": [
        {
          "internalType": "address",
          "name": "",
          "type": "address"
        }
      ],
      "stateMutability": "view",
      "type": "function"
    },
    {
      "inputs": [],
      "name": "l2ScrollBridgeAdapter",
      "outputs": [
        {
          "internalType": "address",
          "name": "",
          "type": "address"
        }
      ],
      "stateMutability": "view",
      "type": "function"
    },
    {
      "inputs": [],
      "name": "mostRecentL2Root",
      "outputs": [
        {
          "internalType": "uint256",
          "name": "",
          "type": "uint256"
        }
      ],
      "stateMutability": "view",
      "type": "function"
    },
    {
      "inputs": [],
      "name": "mostRecentL2RootBlockNumber",
      "outputs": [
        {
          "internalType": "uint256",
          "name": "",
          "type": "uint256"
        }
      ],
      "stateMutability": "view",
      "type": "function"
    },
    {
      "inputs": [
        {
          "internalType": "uint256",
          "name": "_newGigaRoot",
          "type": "uint256"
        }
      ],
      "name": "receiveGigaRoot",
      "outputs": [],
      "stateMutability": "payable",
      "type": "function"
    }
  ],
  "bytecode": "0x60806040526005805460ff60a01b19169055348015601b575f5ffd5b50604051610a0c380380610a0c833981016040819052603891606a565b60048054336001600160a01b031991821617909155600580549091166001600160a01b03929092169190911790556095565b5f602082840312156079575f5ffd5b81516001600160a01b0381168114608e575f5ffd5b9392505050565b61096a806100a25f395ff3fe6080604052600436106100ad575f3560e01c8063a98f704411610066578063ae5582fa1161004c578063ae5582fa14610197578063df374165146101c0578063ea300187146101df575f5ffd5b8063a98f70441461014b578063ac04371014610182575f5ffd5b80632f4eb62d116100965780632f4eb62d146100e5578063485cc9551461010d578063859c95751461012c575f5ffd5b8063010bb871146100b157806327e74ca3146100d2575b5f5ffd5b3480156100bc575f5ffd5b506100d06100cb366004610816565b6101fd565b005b6100d06100e0366004610836565b6103bc565b3480156100f0575f5ffd5b506100fa60015481565b6040519081526020015b60405180910390f35b348015610118575f5ffd5b506100d0610127366004610861565b610426565b348015610137575f5ffd5b506100d0610146366004610836565b61054d565b348015610156575f5ffd5b5060055461016a906001600160a01b031681565b6040516001600160a01b039091168152602001610104565b34801561018d575f5ffd5b506100fa60025481565b3480156101a2575f5ffd5b506101ab6105e2565b60408051928352602083019190915201610104565b3480156101cb575f5ffd5b5060035461016a906001600160a01b031681565b3480156101ea575f5ffd5b505f5461016a906001600160a01b031681565b6005546001600160a01b031633146102825760405162461bcd60e51b815260206004820152602860248201527f66756e6374696f6e206e6f742063616c6c6564206279206c315363726f6c6c4d60448201527f657373656e67657200000000000000000000000000000000000000000000000060648201526084015b60405180910390fd5b60055f9054906101000a90046001600160a01b03166001600160a01b0316636e296e456040518163ffffffff1660e01b8152600401602060405180830381865afa1580156102d2573d5f5f3e3d5ffd5b505050506040513d601f19601f820116820180604052508101906102f69190610898565b5f546001600160a01b039081169116146103785760405162461bcd60e51b815260206004820152603b60248201527f636f6e7472616374206d6573736167696e672066726f6d204c32206973206e6f60448201527f7420746865204c325363726f6c6c4272696467654164617074657200000000006064820152608401610279565b60408051838152602081018390527f475b5c7799f48003a7afb7bac86d23c4d2cfd499581b90657c981e4616318a2c910160405180910390a1600191909155600255565b6003546001600160a01b031633146104165760405162461bcd60e51b815260206004820152600e60248201527f4e6f7420676967614272696467650000000000000000000000000000000000006044820152606401610279565b61042381621e848061072a565b50565b6004546001600160a01b031633146104805760405162461bcd60e51b815260206004820152601060248201527f4e6f7420746865206465706c6f796572000000000000000000000000000000006044820152606401610279565b600554600160a01b900460ff16156104da5760405162461bcd60e51b815260206004820152601960248201527f63616e7420696e697469616c697a65206f6e6c79206f6e6365000000000000006044820152606401610279565b600580547fffffffffffffffffffffff00ffffffffffffffffffffffffffffffffffffffff16600160a01b1790555f80546001600160a01b039384167fffffffffffffffffffffffff00000000000000000000000000000000000000009182161790915560038054929093169116179055565b600354604080517f29c50fa900000000000000000000000000000000000000000000000000000000815290515f926001600160a01b0316916329c50fa9916004808301926020929190829003018187875af11580156105ae573d5f5f3e3d5ffd5b505050506040513d601f19601f820116820180604052508101906105d291906108ba565b90506105de818361072a565b5050565b5f5f5f600154116106815760405162461bcd60e51b815260206004820152605060248201527f416e204c3220726f6f74206861736e277420796574206265656e20627269646760448201527f656420746f207468697320636f6e74726163742e2072656672657368526f6f7460648201527f206d7573742062652063616c6c65642e00000000000000000000000000000000608482015260a401610279565b5f6002541161071e5760405162461bcd60e51b815260206004820152605060248201527f416e204c3220726f6f74206861736e277420796574206265656e20627269646760448201527f656420746f207468697320636f6e74726163742e2072656672657368526f6f7460648201527f206d7573742062652063616c6c65642e00000000000000000000000000000000608482015260a401610279565b50506001546002549091565b6005545f805460408051602480820188905282518083039091018152604490910182526020810180517bffffffffffffffffffffffffffffffffffffffffffffffffffffffff167f27e74ca30000000000000000000000000000000000000000000000000000000017905290517f5f7b15770000000000000000000000000000000000000000000000000000000081526001600160a01b0394851694635f7b15779434946107e494921692909190889032906004016108d1565b5f604051808303818588803b1580156107fb575f5ffd5b505af115801561080d573d5f5f3e3d5ffd5b50505050505050565b5f5f60408385031215610827575f5ffd5b50508035926020909101359150565b5f60208284031215610846575f5ffd5b5035919050565b6001600160a01b0381168114610423575f5ffd5b5f5f60408385031215610872575f5ffd5b823561087d8161084d565b9150602083013561088d8161084d565b809150509250929050565b5f602082840312156108a8575f5ffd5b81516108b38161084d565b9392505050565b5f602082840312156108ca575f5ffd5b5051919050565b6001600160a01b038616815284602082015260a060408201525f84518060a0840152806020870160c085015e5f60c0828501015260c0601f19601f8301168401019150508360608301526001600160a01b0383166080830152969550505050505056fea2646970667358221220b6e482d20d52e5dc6fe94ae62a9135b5c3e64d3205997bcbe0f2d0c527a5b98a64736f6c634300081d0033",
  "linkReferences": {},
  "deployedLinkReferences": {}
}