{
  "_format": "hh-sol-artifact-1",
  "contractName": "L2WarpToad",
  "sourceName": "contracts/evm/warptoad/L2WarpToad.sol",
  "abi": [
    {
      "inputs": [
        {
          "internalType": "uint8",
          "name": "_maxTreeDepth",
          "type": "uint8"
        },
        {
          "internalType": "address",
          "name": "_withdrawVerifier",
          "type": "address"
        },
        {
          "internalType": "address",
          "name": "_nativeToken",
          "type": "address"
        },
        {
          "internalType": "string",
          "name": "name",
          "type": "string"
        },
        {
          "internalType": "string",
          "name": "symbol",
          "type": "string"
        }
      ],
      "stateMutability": "nonpayable",
      "type": "constructor"
    },
    {
      "inputs": [
        {
          "internalType": "address",
          "name": "spender",
          "type": "address"
        },
        {
          "internalType": "uint256",
          "name": "allowance",
          "type": "uint256"
        },
        {
          "internalType": "uint256",
          "name": "needed",
          "type": "uint256"
        }
      ],
      "name": "ERC20InsufficientAllowance",
      "type": "error"
    },
    {
      "inputs": [
        {
          "internalType": "address",
          "name": "sender",
          "type": "address"
        },
        {
          "internalType": "uint256",
          "name": "balance",
          "type": "uint256"
        },
        {
          "internalType": "uint256",
          "name": "needed",
          "type": "uint256"
        }
      ],
      "name": "ERC20InsufficientBalance",
      "type": "error"
    },
    {
      "inputs": [
        {
          "internalType": "address",
          "name": "approver",
          "type": "address"
        }
      ],
      "name": "ERC20InvalidApprover",
      "type": "error"
    },
    {
      "inputs": [
        {
          "internalType": "address",
          "name": "receiver",
          "type": "address"
        }
      ],
      "name": "ERC20InvalidReceiver",
      "type": "error"
    },
    {
      "inputs": [
        {
          "internalType": "address",
          "name": "sender",
          "type": "address"
        }
      ],
      "name": "ERC20InvalidSender",
      "type": "error"
    },
    {
      "inputs": [
        {
          "internalType": "address",
          "name": "spender",
          "type": "address"
        }
      ],
      "name": "ERC20InvalidSpender",
      "type": "error"
    },
    {
      "anonymous": false,
      "inputs": [
        {
          "indexed": true,
          "internalType": "address",
          "name": "owner",
          "type": "address"
        },
        {
          "indexed": true,
          "internalType": "address",
          "name": "spender",
          "type": "address"
        },
        {
          "indexed": false,
          "internalType": "uint256",
          "name": "value",
          "type": "uint256"
        }
      ],
      "name": "Approval",
      "type": "event"
    },
    {
      "anonymous": false,
      "inputs": [
        {
          "indexed": true,
          "internalType": "uint256",
          "name": "commitment",
          "type": "uint256"
        },
        {
          "indexed": false,
          "internalType": "uint256",
          "name": "amount",
          "type": "uint256"
        },
        {
          "indexed": false,
          "internalType": "uint256",
          "name": "index",
          "type": "uint256"
        }
      ],
      "name": "Burn",
      "type": "event"
    },
    {
      "anonymous": false,
      "inputs": [
        {
          "indexed": true,
          "internalType": "address",
          "name": "from",
          "type": "address"
        },
        {
          "indexed": true,
          "internalType": "address",
          "name": "to",
          "type": "address"
        },
        {
          "indexed": false,
          "internalType": "uint256",
          "name": "value",
          "type": "uint256"
        }
      ],
      "name": "Transfer",
      "type": "event"
    },
    {
      "inputs": [
        {
          "internalType": "uint256",
          "name": "_nullifier",
          "type": "uint256"
        },
        {
          "internalType": "uint256",
          "name": "_chainId",
          "type": "uint256"
        },
        {
          "internalType": "uint256",
          "name": "_amount",
          "type": "uint256"
        },
        {
          "internalType": "uint256",
          "name": "_gigaRoot",
          "type": "uint256"
        },
        {
          "internalType": "uint256",
          "name": "_localRoot",
          "type": "uint256"
        },
        {
          "internalType": "uint256",
          "name": "_feeFactor",
          "type": "uint256"
        },
        {
          "internalType": "uint256",
          "name": "_priorityFee",
          "type": "uint256"
        },
        {
          "internalType": "uint256",
          "name": "_maxFee",
          "type": "uint256"
        },
        {
          "internalType": "address",
          "name": "_relayer",
          "type": "address"
        },
        {
          "internalType": "address",
          "name": "_recipient",
          "type": "address"
        }
      ],
      "name": "_formatPublicInputs",
      "outputs": [
        {
          "internalType": "bytes32[]",
          "name": "",
          "type": "bytes32[]"
        }
      ],
      "stateMutability": "pure",
      "type": "function"
    },
    {
      "inputs": [
        {
          "internalType": "address",
          "name": "owner",
          "type": "address"
        },
        {
          "internalType": "address",
          "name": "spender",
          "type": "address"
        }
      ],
      "name": "allowance",
      "outputs": [
        {
          "internalType": "uint256",
          "name": "",
          "type": "uint256"
        }
      ],
      "stateMutability": "view",
      "type": "function"
    },
    {
      "inputs": [
        {
          "internalType": "address",
          "name": "spender",
          "type": "address"
        },
        {
          "internalType": "uint256",
          "name": "value",
          "type": "uint256"
        }
      ],
      "name": "approve",
      "outputs": [
        {
          "internalType": "bool",
          "name": "",
          "type": "bool"
        }
      ],
      "stateMutability": "nonpayable",
      "type": "function"
    },
    {
      "inputs": [
        {
          "internalType": "address",
          "name": "account",
          "type": "address"
        }
      ],
      "name": "balanceOf",
      "outputs": [
        {
          "internalType": "uint256",
          "name": "",
          "type": "uint256"
        }
      ],
      "stateMutability": "view",
      "type": "function"
    },
    {
      "inputs": [],
      "name": "bridgeRoot",
      "outputs": [],
      "stateMutability": "view",
      "type": "function"
    },
    {
      "inputs": [
        {
          "internalType": "uint256",
          "name": "_preCommitment",
          "type": "uint256"
        },
        {
          "internalType": "uint256",
          "name": "_amount",
          "type": "uint256"
        }
      ],
      "name": "burn",
      "outputs": [],
      "stateMutability": "nonpayable",
      "type": "function"
    },
    {
      "inputs": [],
      "name": "cachedLocalRoot",
      "outputs": [
        {
          "internalType": "uint256",
          "name": "",
          "type": "uint256"
        }
      ],
      "stateMutability": "view",
      "type": "function"
    },
    {
      "inputs": [],
      "name": "commitTreeData",
      "outputs": [
        {
          "internalType": "uint40",
          "name": "maxIndex",
          "type": "uint40"
        },
        {
          "internalType": "uint40",
          "name": "numberOfLeaves",
          "type": "uint40"
        }
      ],
      "stateMutability": "view",
      "type": "function"
    },
    {
      "inputs": [],
      "name": "decimals",
      "outputs": [
        {
          "internalType": "uint8",
          "name": "",
          "type": "uint8"
        }
      ],
      "stateMutability": "view",
      "type": "function"
    },
    {
      "inputs": [
        {
          "internalType": "uint256",
          "name": "_amount",
          "type": "uint256"
        }
      ],
      "name": "getFreeShit",
      "outputs": [],
      "stateMutability": "nonpayable",
      "type": "function"
    },
    {
      "inputs": [],
      "name": "getLocalRootAndBlock",
      "outputs": [
        {
          "internalType": "uint256",
          "name": "",
          "type": "uint256"
        },
        {
          "internalType": "uint256",
          "name": "",
          "type": "uint256"
        }
      ],
      "stateMutability": "nonpayable",
      "type": "function"
    },
    {
      "inputs": [],
      "name": "gigaRoot",
      "outputs": [
        {
          "internalType": "uint256",
          "name": "",
          "type": "uint256"
        }
      ],
      "stateMutability": "view",
      "type": "function"
    },
    {
      "inputs": [
        {
          "internalType": "uint256",
          "name": "",
          "type": "uint256"
        }
      ],
      "name": "gigaRootHistory",
      "outputs": [
        {
          "internalType": "bool",
          "name": "",
          "type": "bool"
        }
      ],
      "stateMutability": "view",
      "type": "function"
    },
    {
      "inputs": [],
      "name": "gigaRootProvider",
      "outputs": [
        {
          "internalType": "address",
          "name": "",
          "type": "address"
        }
      ],
      "stateMutability": "view",
      "type": "function"
    },
    {
      "inputs": [
        {
          "internalType": "address",
          "name": "_gigaRootProvider",
          "type": "address"
        },
        {
          "internalType": "address",
          "name": "_l1BridgeAdapter",
          "type": "address"
        }
      ],
      "name": "initialize",
      "outputs": [],
      "stateMutability": "nonpayable",
      "type": "function"
    },
    {
      "inputs": [
        {
          "internalType": "uint256",
          "name": "_gigaRoot",
          "type": "uint256"
        }
      ],
      "name": "isValidGigaRoot",
      "outputs": [
        {
          "internalType": "bool",
          "name": "",
          "type": "bool"
        }
      ],
      "stateMutability": "view",
      "type": "function"
    },
    {
      "inputs": [
        {
          "internalType": "uint256",
          "name": "_localRoot",
          "type": "uint256"
        }
      ],
      "name": "isValidLocalRoot",
      "outputs": [
        {
          "internalType": "bool",
          "name": "",
          "type": "bool"
        }
      ],
      "stateMutability": "view",
      "type": "function"
    },
    {
      "inputs": [],
      "name": "l1BridgeAdapter",
      "outputs": [
        {
          "internalType": "address",
          "name": "",
          "type": "address"
        }
      ],
      "stateMutability": "view",
      "type": "function"
    },
    {
      "inputs": [],
      "name": "lastLeafIndex",
      "outputs": [
        {
          "internalType": "uint256",
          "name": "",
          "type": "uint256"
        }
      ],
      "stateMutability": "view",
      "type": "function"
    },
    {
      "inputs": [],
      "name": "localRoot",
      "outputs": [
        {
          "internalType": "uint256",
          "name": "",
          "type": "uint256"
        }
      ],
      "stateMutability": "view",
      "type": "function"
    },
    {
      "inputs": [
        {
          "internalType": "uint256",
          "name": "",
          "type": "uint256"
        }
      ],
      "name": "localRootHistory",
      "outputs": [
        {
          "internalType": "bool",
          "name": "",
          "type": "bool"
        }
      ],
      "stateMutability": "view",
      "type": "function"
    },
    {
      "inputs": [],
      "name": "maxTreeDepth",
      "outputs": [
        {
          "internalType": "uint8",
          "name": "",
          "type": "uint8"
        }
      ],
      "stateMutability": "view",
      "type": "function"
    },
    {
      "inputs": [
        {
          "internalType": "uint256",
          "name": "_nullifier",
          "type": "uint256"
        },
        {
          "internalType": "uint256",
          "name": "_amount",
          "type": "uint256"
        },
        {
          "internalType": "uint256",
          "name": "_gigaRoot",
          "type": "uint256"
        },
        {
          "internalType": "uint256",
          "name": "_localRoot",
          "type": "uint256"
        },
        {
          "internalType": "uint256",
          "name": "_feeFactor",
          "type": "uint256"
        },
        {
          "internalType": "uint256",
          "name": "_priorityFee",
          "type": "uint256"
        },
        {
          "internalType": "uint256",
          "name": "_maxFee",
          "type": "uint256"
        },
        {
          "internalType": "address",
          "name": "_relayer",
          "type": "address"
        },
        {
          "internalType": "address",
          "name": "_recipient",
          "type": "address"
        },
        {
          "internalType": "bytes",
          "name": "_poof",
          "type": "bytes"
        }
      ],
      "name": "mint",
      "outputs": [],
      "stateMutability": "nonpayable",
      "type": "function"
    },
    {
      "inputs": [],
      "name": "name",
      "outputs": [
        {
          "internalType": "string",
          "name": "",
          "type": "string"
        }
      ],
      "stateMutability": "view",
      "type": "function"
    },
    {
      "inputs": [],
      "name": "nativeToken",
      "outputs": [
        {
          "internalType": "address",
          "name": "",
          "type": "address"
        }
      ],
      "stateMutability": "view",
      "type": "function"
    },
    {
      "inputs": [
        {
          "internalType": "uint256",
          "name": "_gigaRoot",
          "type": "uint256"
        }
      ],
      "name": "receiveGigaRoot",
      "outputs": [],
      "stateMutability": "payable",
      "type": "function"
    },
    {
      "inputs": [],
      "name": "storeLocalRootInHistory",
      "outputs": [
        {
          "internalType": "uint256",
          "name": "",
          "type": "uint256"
        }
      ],
      "stateMutability": "nonpayable",
      "type": "function"
    },
    {
      "inputs": [],
      "name": "symbol",
      "outputs": [
        {
          "internalType": "string",
          "name": "",
          "type": "string"
        }
      ],
      "stateMutability": "view",
      "type": "function"
    },
    {
      "inputs": [],
      "name": "totalSupply",
      "outputs": [
        {
          "internalType": "uint256",
          "name": "",
          "type": "uint256"
        }
      ],
      "stateMutability": "view",
      "type": "function"
    },
    {
      "inputs": [
        {
          "internalType": "address",
          "name": "to",
          "type": "address"
        },
        {
          "internalType": "uint256",
          "name": "value",
          "type": "uint256"
        }
      ],
      "name": "transfer",
      "outputs": [
        {
          "internalType": "bool",
          "name": "",
          "type": "bool"
        }
      ],
      "stateMutability": "nonpayable",
      "type": "function"
    },
    {
      "inputs": [
        {
          "internalType": "address",
          "name": "from",
          "type": "address"
        },
        {
          "internalType": "address",
          "name": "to",
          "type": "address"
        },
        {
          "internalType": "uint256",
          "name": "value",
          "type": "uint256"
        }
      ],
      "name": "transferFrom",
      "outputs": [
        {
          "internalType": "bool",
          "name": "",
          "type": "bool"
        }
      ],
      "stateMutability": "nonpayable",
      "type": "function"
    },
    {
      "inputs": [],
      "name": "withdrawVerifier",
      "outputs": [
        {
          "internalType": "address",
          "name": "",
          "type": "address"
        }
      ],
      "stateMutability": "view",
      "type": "function"
    }
  ],
  "bytecode": "0x608060405234801561000f575f5ffd5b50604051611c3d380380611c3d83398101604081905261002e9161028e565b8484848484600361003f83826103af565b50600461004c82826103af565b50506008805460ff191660ff8616908117909155600f80546001600160a01b0319166001600160a01b038616179055604051631844db3b60e21b815260066004820152602481019190915273__$5fc44c2a7799c6ceb48acabb21e98687d0$__91506361136cec906044015f6040518083038186803b1580156100cd575f5ffd5b505af41580156100df573d5f5f3e3d5ffd5b5050601180546001600160a01b0385166001600160a01b0319918216179091556005805490911633179055506101159050610123565b505050505050505050610480565b5f8061012d610150565b60098190555f818152600c60205260409020805460ff1916600117905592915050565b6008546040516339ebe6e360e01b81526006600482015260ff90911660248201525f9073__$5fc44c2a7799c6ceb48acabb21e98687d0$__906339ebe6e390604401602060405180830381865af41580156101ad573d5f5f3e3d5ffd5b505050506040513d601f19601f820116820180604052508101906101d19190610469565b905090565b80516001600160a01b03811681146101ec575f5ffd5b919050565b634e487b7160e01b5f52604160045260245ffd5b5f82601f830112610214575f5ffd5b81516001600160401b0381111561022d5761022d6101f1565b604051601f8201601f19908116603f011681016001600160401b038111828210171561025b5761025b6101f1565b604052818152838201602001851015610272575f5ffd5b8160208501602083015e5f918101602001919091529392505050565b5f5f5f5f5f60a086880312156102a2575f5ffd5b855160ff811681146102b2575f5ffd5b94506102c0602087016101d6565b93506102ce604087016101d6565b60608701519093506001600160401b038111156102e9575f5ffd5b6102f588828901610205565b608088015190935090506001600160401b03811115610312575f5ffd5b61031e88828901610205565b9150509295509295909350565b600181811c9082168061033f57607f821691505b60208210810361035d57634e487b7160e01b5f52602260045260245ffd5b50919050565b601f8211156103aa57805f5260205f20601f840160051c810160208510156103885750805b601f840160051c820191505b818110156103a7575f8155600101610394565b50505b505050565b81516001600160401b038111156103c8576103c86101f1565b6103dc816103d6845461032b565b84610363565b6020601f82116001811461040e575f83156103f75750848201515b5f19600385901b1c1916600184901b1784556103a7565b5f84815260208120601f198516915b8281101561043d578785015182556020948501946001909201910161041d565b508482101561045a57868401515f19600387901b60f8161c191681555b50505050600190811b01905550565b5f60208284031215610479575f5ffd5b5051919050565b6117b08061048d5f395ff3fe6080604052600436106101db575f3560e01c80636b95cb05116100fd578063a9059cbb11610092578063dd62ed3e11610062578063dd62ed3e146105a9578063df54fe50146105ed578063e1758bd814610602578063e358270d14610621575f5ffd5b8063a9059cbb14610529578063ae5582fa14610548578063b390c0ab14610571578063d3f9fa5114610590575f5ffd5b8063882f624a116100cd578063882f624a146104ab57806395d89b41146104ca5780639d1453e5146104de578063a50410a91461050a575f5ffd5b80636b95cb051461042f57806370a0823114610443578063828f227a14610477578063864eb1641461048c575f5ffd5b806327e74ca311610173578063313ce56711610143578063313ce5671461038a578063485cc955146103ab57806357c423e1146103ca57806367f8da3a146103f8575f5ffd5b806327e74ca31461032057806328b0c0aa1461033357806329c50fa9146103475780632ffe1f291461035c575f5ffd5b806318160ddd116101ae57806318160ddd1461026d5780631ec84e8e1461028b57806323b872dd146102b957806323f364c5146102d8575f5ffd5b806306fdde03146101df578063095ea7b3146102095780630c5312fc14610238578063177a0c2c14610259575b5f5ffd5b3480156101ea575f5ffd5b506101f361064f565b6040516102009190611329565b60405180910390f35b348015610214575f5ffd5b5061022861022336600461135d565b6106df565b6040519015158152602001610200565b348015610243575f5ffd5b50610257610252366004611385565b6106f8565b005b348015610264575f5ffd5b50610257610705565b348015610278575f5ffd5b506002545b604051908152602001610200565b348015610296575f5ffd5b506102286102a5366004611385565b5f908152600c602052604090205460ff1690565b3480156102c4575f5ffd5b506102286102d336600461139c565b61070d565b3480156102e3575f5ffd5b506006546103029064ffffffffff808216916501000000000090041682565b6040805164ffffffffff938416815292909116602083015201610200565b61025761032e366004611385565b610730565b34801561033e575f5ffd5b5061027d6107ac565b348015610352575f5ffd5b5061027d600a5481565b348015610367575f5ffd5b50610228610376366004611385565b600c6020525f908152604090205460ff1681565b348015610395575f5ffd5b5060065b60405160ff9091168152602001610200565b3480156103b6575f5ffd5b506102576103c53660046113d6565b61084b565b3480156103d5575f5ffd5b506102286103e4366004611385565b600b6020525f908152604090205460ff1681565b348015610403575f5ffd5b50600e54610417906001600160a01b031681565b6040516001600160a01b039091168152602001610200565b34801561043a575f5ffd5b5061027d61099d565b34801561044e575f5ffd5b5061027d61045d366004611407565b6001600160a01b03165f9081526020819052604090205490565b348015610482575f5ffd5b5061027d60095481565b348015610497575f5ffd5b50600f54610417906001600160a01b031681565b3480156104b6575f5ffd5b50600d54610417906001600160a01b031681565b3480156104d5575f5ffd5b506101f36109ca565b3480156104e9575f5ffd5b506104fd6104f8366004611420565b6109d9565b60405161020091906114d6565b348015610515575f5ffd5b506102576105243660046114fc565b610b15565b348015610534575f5ffd5b5061022861054336600461135d565b610d9b565b348015610553575f5ffd5b5061055c610da8565b60408051928352602083019190915201610200565b34801561057c575f5ffd5b5061025761058b366004611612565b610dbd565b34801561059b575f5ffd5b506008546103999060ff1681565b3480156105b4575f5ffd5b5061027d6105c33660046113d6565b6001600160a01b039182165f90815260016020908152604080832093909416825291909152205490565b3480156105f8575f5ffd5b5061027d60105481565b34801561060d575f5ffd5b50601154610417906001600160a01b031681565b34801561062c575f5ffd5b5061022861063b366004611385565b5f908152600b602052604090205460ff1690565b60606003805461065e90611632565b80601f016020809104026020016040519081016040528092919081815260200182805461068a90611632565b80156106d55780601f106106ac576101008083540402835291602001916106d5565b820191905f5260205f20905b8154815290600101906020018083116106b857829003601f168201915b5050505050905090565b5f336106ec818585610f48565b60019150505b92915050565b6107023382610f5a565b50565b6107026107ac565b5f3361071a858285610f92565b610725858585611027565b506001949350505050565b600e546001600160a01b0316331461078f5760405162461bcd60e51b815260206004820152601460248201527f4e6f742067696761526f6f7450726f766964657200000000000000000000000060448201526064015b60405180910390fd5b5f818152600b60205260409020805460ff19166001179055600a55565b6008546040517f39ebe6e30000000000000000000000000000000000000000000000000000000081526006600482015260ff90911660248201525f9073__$5fc44c2a7799c6ceb48acabb21e98687d0$__906339ebe6e390604401602060405180830381865af4158015610822573d5f5f3e3d5ffd5b505050506040513d601f19601f82011682018060405250810190610846919061166a565b905090565b6005546001600160a01b031633146108a55760405162461bcd60e51b815260206004820152601060248201527f4e6f7420746865206465706c6f796572000000000000000000000000000000006044820152606401610786565b600e546001600160a01b0316156108fe5760405162461bcd60e51b815260206004820152601f60248201527f67696761526f6f7450726f766964657220697320616c726561647920736574006044820152606401610786565b600d546001600160a01b0316156109575760405162461bcd60e51b815260206004820152601e60248201527f6c314272696467654164617074657220697320616c72656164792073657400006044820152606401610786565b600e80546001600160a01b039384167fffffffffffffffffffffffff000000000000000000000000000000000000000091821617909155600d8054929093169116179055565b5f5f6109a76107ac565b60098190555f818152600c60205260409020805460ff1916600117905592915050565b60606004805461065e90611632565b60408051600a80825261016082019092526060915f919060208201610140803683370190505060408051610100810182528e815260208082018f90528183018e9052606082018d9052608082018c905260a082018b905260c082018a905260e0820189905282518084019093526001600160a01b0380891684528716908301529192505f5b6008811015610aa557828160088110610a7957610a79611681565b60200201515f1b848281518110610a9257610a92611681565b6020908102919091010152600101610a5e565b5060085f5b6002811015610b0157828160028110610ac557610ac5611681565b60200201516001600160a01b031685610ade83856116a9565b81518110610aee57610aee611681565b6020908102919091010152600101610aaa565b50929e9d5050505050505050505050505050565b5f888152600b602052604090205460ff16610b725760405162461bcd60e51b815260206004820152601160248201527f5f67696761526f6f7420756e6b6e6f776e0000000000000000000000000000006044820152606401610786565b5f878152600c602052604090205460ff16610bcf5760405162461bcd60e51b815260206004820152601260248201527f5f6c6f63616c526f6f7420756e6b6e6f776e00000000000000000000000000006044820152606401610786565b5f610be28b468c8c8c8c8c8c8c8c6109d9565b600f546040517fea50d0e40000000000000000000000000000000000000000000000000000000081529192506001600160a01b03169063ea50d0e490610c2e90859085906004016116bc565b602060405180830381865afa158015610c49573d5f5f3e3d5ffd5b505050506040513d601f19601f82011682018060405250810190610c6d91906116e9565b610cb95760405162461bcd60e51b815260206004820152600d60248201527f696e76616c69642070726f6f66000000000000000000000000000000000000006044820152606401610786565b8615610d84575f610cca87486116a9565b610cd49089611708565b905085811115610d4c5760405162461bcd60e51b815260206004820152602260248201527f5f72656c61796572466565206973206c6172676572207468616e205f6d61784660448201527f65650000000000000000000000000000000000000000000000000000000000006064820152608401610786565b5f196001600160a01b03861601610d61573394505b610d6b8582610f5a565b610d7e84610d79838e61171f565b610f5a565b50610d8e565b610d8e838b610f5a565b5050505050505050505050565b5f336106ec818585611027565b5f5f610db261099d565b505060095491439150565b610dc73382611084565b6040805180820182528381526020810183905290517f561558fe0000000000000000000000000000000000000000000000000000000081525f9173__$75f79a42d9bcbdbb69ad79ebd80f556f39$__9163561558fe91610e2991600401611732565b602060405180830381865af4158015610e44573d5f5f3e3d5ffd5b505050506040513d601f19601f82011682018060405250810190610e68919061166a565b6040517f0224ef5e000000000000000000000000000000000000000000000000000000008152600660048201526024810182905290915073__$5fc44c2a7799c6ceb48acabb21e98687d0$__90630224ef5e906044015f6040518083038186803b158015610ed4575f5ffd5b505af4158015610ee6573d5f5f3e3d5ffd5b50505050807f5af801e983cfd842de8b0797a2d6077db3ac2dea16571e0c7f5080291ca1b93483601054604051610f27929190918252602082015260400190565b60405180910390a260108054905f610f3e83611762565b9190505550505050565b610f5583838360016110b8565b505050565b6001600160a01b038216610f835760405163ec442f0560e01b81525f6004820152602401610786565b610f8e5f83836111bc565b5050565b6001600160a01b038381165f908152600160209081526040808320938616835292905220545f198110156110215781811015611013576040517ffb8f41b20000000000000000000000000000000000000000000000000000000081526001600160a01b03841660048201526024810182905260448101839052606401610786565b61102184848484035f6110b8565b50505050565b6001600160a01b03831661105057604051634b637e8f60e11b81525f6004820152602401610786565b6001600160a01b0382166110795760405163ec442f0560e01b81525f6004820152602401610786565b610f558383836111bc565b6001600160a01b0382166110ad57604051634b637e8f60e11b81525f6004820152602401610786565b610f8e825f836111bc565b6001600160a01b0384166110fa576040517fe602df050000000000000000000000000000000000000000000000000000000081525f6004820152602401610786565b6001600160a01b03831661113c576040517f94280d620000000000000000000000000000000000000000000000000000000081525f6004820152602401610786565b6001600160a01b038085165f908152600160209081526040808320938716835292905220829055801561102157826001600160a01b0316846001600160a01b03167f8c5be1e5ebec7d5bd14f71427d1e84f3dd0314c0f7b2291e5b200ac8c7c3b925846040516111ae91815260200190565b60405180910390a350505050565b6001600160a01b0383166111e6578060025f8282546111db91906116a9565b9091555061126f9050565b6001600160a01b0383165f9081526020819052604090205481811015611251576040517fe450d38c0000000000000000000000000000000000000000000000000000000081526001600160a01b03851660048201526024810182905260448101839052606401610786565b6001600160a01b0384165f9081526020819052604090209082900390555b6001600160a01b03821661128b576002805482900390556112a9565b6001600160a01b0382165f9081526020819052604090208054820190555b816001600160a01b0316836001600160a01b03167fddf252ad1be2c89b69c2b068fc378daa952ba7f163c4a11628f55a4df523b3ef836040516112ee91815260200190565b60405180910390a3505050565b5f81518084528060208401602086015e5f602082860101526020601f19601f83011685010191505092915050565b602081525f61133b60208301846112fb565b9392505050565b80356001600160a01b0381168114611358575f5ffd5b919050565b5f5f6040838503121561136e575f5ffd5b61137783611342565b946020939093013593505050565b5f60208284031215611395575f5ffd5b5035919050565b5f5f5f606084860312156113ae575f5ffd5b6113b784611342565b92506113c560208501611342565b929592945050506040919091013590565b5f5f604083850312156113e7575f5ffd5b6113f083611342565b91506113fe60208401611342565b90509250929050565b5f60208284031215611417575f5ffd5b61133b82611342565b5f5f5f5f5f5f5f5f5f5f6101408b8d03121561143a575f5ffd5b8a35995060208b0135985060408b0135975060608b0135965060808b0135955060a08b0135945060c08b0135935060e08b0135925061147c6101008c01611342565b915061148b6101208c01611342565b90509295989b9194979a5092959850565b5f8151808452602084019350602083015f5b828110156114cc5781518652602095860195909101906001016114ae565b5093949350505050565b602081525f61133b602083018461149c565b634e487b7160e01b5f52604160045260245ffd5b5f5f5f5f5f5f5f5f5f5f6101408b8d031215611516575f5ffd5b8a35995060208b0135985060408b0135975060608b0135965060808b0135955060a08b0135945060c08b0135935061155060e08c01611342565b925061155f6101008c01611342565b91506101208b013567ffffffffffffffff81111561157b575f5ffd5b8b01601f81018d1361158b575f5ffd5b803567ffffffffffffffff8111156115a5576115a56114e8565b604051601f8201601f19908116603f0116810167ffffffffffffffff811182821017156115d4576115d46114e8565b6040528181528282016020018f10156115eb575f5ffd5b816020840160208301375f602083830101528093505050509295989b9194979a5092959850565b5f5f60408385031215611623575f5ffd5b50508035926020909101359150565b600181811c9082168061164657607f821691505b60208210810361166457634e487b7160e01b5f52602260045260245ffd5b50919050565b5f6020828403121561167a575f5ffd5b5051919050565b634e487b7160e01b5f52603260045260245ffd5b634e487b7160e01b5f52601160045260245ffd5b808201808211156106f2576106f2611695565b604081525f6116ce60408301856112fb565b82810360208401526116e0818561149c565b95945050505050565b5f602082840312156116f9575f5ffd5b8151801515811461133b575f5ffd5b80820281158282048414176106f2576106f2611695565b818103818111156106f2576106f2611695565b6040810181835f5b600281101561175957815183526020928301929091019060010161173a565b50505092915050565b5f6001820161177357611773611695565b506001019056fea264697066735822122064ea823be4a98e0fea90d1b83a6f84d2d4a1595f6ca04bd89fb85cd3af36206e64736f6c634300081d0033",
  "linkReferences": {
    "@zk-kit/lazy-imt.sol/LazyIMT.sol": {
      "LazyIMT": [
        {
          "length": 20,
          "start": 153
        },
        {
          "length": 20,
          "start": 373
        },
        {
          "length": 20,
          "start": 3191
        },
        {
          "length": 20,
          "start": 4910
        }
      ]
    },
    "poseidon-solidity/PoseidonT3.sol": {
      "PoseidonT3": [
        {
          "length": 20,
          "start": 4752
        }
      ]
    }
  },
  "deployedLinkReferences": {
    "@zk-kit/lazy-imt.sol/LazyIMT.sol": {
      "LazyIMT": [
        {
          "length": 20,
          "start": 2026
        },
        {
          "length": 20,
          "start": 3745
        }
      ]
    },
    "poseidon-solidity/PoseidonT3.sol": {
      "PoseidonT3": [
        {
          "length": 20,
          "start": 3587
        }
      ]
    }
  }
}