{
  "contracts/evm/adapters/L1ScrollBridgeAdapter.sol": {
    "L1ScrollBridgeAdapter": {
      "abi": [
        {
          "inputs": [
            {
              "internalType": "address",
              "name": "_l1ScrollMessenger",
              "type": "address"
            }
          ],
          "stateMutability": "nonpayable",
          "type": "constructor"
        },
        {
          "anonymous": false,
          "inputs": [
            {
              "indexed": false,
              "internalType": "uint256",
              "name": "newL2Root",
              "type": "uint256"
            },
            {
              "indexed": false,
              "internalType": "uint256",
              "name": "l2Block",
              "type": "uint256"
            }
          ],
          "name": "ReceivedNewL2Root",
          "type": "event"
        },
        {
          "inputs": [
            {
              "internalType": "uint256",
              "name": "_gasLimit",
              "type": "uint256"
            }
          ],
          "name": "bridgeGigaRootWithGasLimit",
          "outputs": [],
          "stateMutability": "nonpayable",
          "type": "function"
        },
        {
          "inputs": [],
          "name": "getLocalRootAndBlock",
          "outputs": [
            {
              "internalType": "uint256",
              "name": "",
              "type": "uint256"
            },
            {
              "internalType": "uint256",
              "name": "",
              "type": "uint256"
            }
          ],
          "stateMutability": "view",
          "type": "function"
        },
        {
          "inputs": [
            {
              "internalType": "uint256",
              "name": "_l2Root",
              "type": "uint256"
            },
            {
              "internalType": "uint256",
              "name": "_l2BlockNumber",
              "type": "uint256"
            }
          ],
          "name": "getNewRootFromL2",
          "outputs": [],
          "stateMutability": "nonpayable",
          "type": "function"
        },
        {
          "inputs": [],
          "name": "gigaBridge",
          "outputs": [
            {
              "internalType": "address",
              "name": "",
              "type": "address"
            }
          ],
          "stateMutability": "view",
          "type": "function"
        },
        {
          "inputs": [
            {
              "internalType": "address",
              "name": "_l2ScrollBridgeAdapter",
              "type": "address"
            },
            {
              "internalType": "address",
              "name": "_gigaRootBridge",
              "type": "address"
            }
          ],
          "name": "initialize",
          "outputs": [],
          "stateMutability": "nonpayable",
          "type": "function"
        },
        {
          "inputs": [],
          "name": "l1ScrollMessenger",
          "outputs": [
            {
              "internalType": "address",
              "name": "",
              "type": "address"
            }
          ],
          "stateMutability": "view",
          "type": "function"
        },
        {
          "inputs": [],
          "name": "l2ScrollBridgeAdapter",
          "outputs": [
            {
              "internalType": "address",
              "name": "",
              "type": "address"
            }
          ],
          "stateMutability": "view",
          "type": "function"
        },
        {
          "inputs": [],
          "name": "mostRecentL2Root",
          "outputs": [
            {
              "internalType": "uint256",
              "name": "",
              "type": "uint256"
            }
          ],
          "stateMutability": "view",
          "type": "function"
        },
        {
          "inputs": [],
          "name": "mostRecentL2RootBlockNumber",
          "outputs": [
            {
              "internalType": "uint256",
              "name": "",
              "type": "uint256"
            }
          ],
          "stateMutability": "view",
          "type": "function"
        },
        {
          "inputs": [
            {
              "internalType": "uint256",
              "name": "_newGigaRoot",
              "type": "uint256"
            }
          ],
          "name": "receiveGigaRoot",
          "outputs": [],
          "stateMutability": "payable",
          "type": "function"
        }
      ],
      "evm": {
        "bytecode": {
          "linkReferences": {},
          "object": "60806040526005805460ff60a01b19169055348015601b575f5ffd5b50604051610a0c380380610a0c833981016040819052603891606a565b60048054336001600160a01b031991821617909155600580549091166001600160a01b03929092169190911790556095565b5f602082840312156079575f5ffd5b81516001600160a01b0381168114608e575f5ffd5b9392505050565b61096a806100a25f395ff3fe6080604052600436106100ad575f3560e01c8063a98f704411610066578063ae5582fa1161004c578063ae5582fa14610197578063df374165146101c0578063ea300187146101df575f5ffd5b8063a98f70441461014b578063ac04371014610182575f5ffd5b80632f4eb62d116100965780632f4eb62d146100e5578063485cc9551461010d578063859c95751461012c575f5ffd5b8063010bb871146100b157806327e74ca3146100d2575b5f5ffd5b3480156100bc575f5ffd5b506100d06100cb366004610816565b6101fd565b005b6100d06100e0366004610836565b6103bc565b3480156100f0575f5ffd5b506100fa60015481565b6040519081526020015b60405180910390f35b348015610118575f5ffd5b506100d0610127366004610861565b610426565b348015610137575f5ffd5b506100d0610146366004610836565b61054d565b348015610156575f5ffd5b5060055461016a906001600160a01b031681565b6040516001600160a01b039091168152602001610104565b34801561018d575f5ffd5b506100fa60025481565b3480156101a2575f5ffd5b506101ab6105e2565b60408051928352602083019190915201610104565b3480156101cb575f5ffd5b5060035461016a906001600160a01b031681565b3480156101ea575f5ffd5b505f5461016a906001600160a01b031681565b6005546001600160a01b031633146102825760405162461bcd60e51b815260206004820152602860248201527f66756e6374696f6e206e6f742063616c6c6564206279206c315363726f6c6c4d60448201527f657373656e67657200000000000000000000000000000000000000000000000060648201526084015b60405180910390fd5b60055f9054906101000a90046001600160a01b03166001600160a01b0316636e296e456040518163ffffffff1660e01b8152600401602060405180830381865afa1580156102d2573d5f5f3e3d5ffd5b505050506040513d601f19601f820116820180604052508101906102f69190610898565b5f546001600160a01b039081169116146103785760405162461bcd60e51b815260206004820152603b60248201527f636f6e7472616374206d6573736167696e672066726f6d204c32206973206e6f60448201527f7420746865204c325363726f6c6c4272696467654164617074657200000000006064820152608401610279565b60408051838152602081018390527f475b5c7799f48003a7afb7bac86d23c4d2cfd499581b90657c981e4616318a2c910160405180910390a1600191909155600255565b6003546001600160a01b031633146104165760405162461bcd60e51b815260206004820152600e60248201527f4e6f7420676967614272696467650000000000000000000000000000000000006044820152606401610279565b61042381621e848061072a565b50565b6004546001600160a01b031633146104805760405162461bcd60e51b815260206004820152601060248201527f4e6f7420746865206465706c6f796572000000000000000000000000000000006044820152606401610279565b600554600160a01b900460ff16156104da5760405162461bcd60e51b815260206004820152601960248201527f63616e7420696e697469616c697a65206f6e6c79206f6e6365000000000000006044820152606401610279565b600580547fffffffffffffffffffffff00ffffffffffffffffffffffffffffffffffffffff16600160a01b1790555f80546001600160a01b039384167fffffffffffffffffffffffff00000000000000000000000000000000000000009182161790915560038054929093169116179055565b600354604080517f29c50fa900000000000000000000000000000000000000000000000000000000815290515f926001600160a01b0316916329c50fa9916004808301926020929190829003018187875af11580156105ae573d5f5f3e3d5ffd5b505050506040513d601f19601f820116820180604052508101906105d291906108ba565b90506105de818361072a565b5050565b5f5f5f600154116106815760405162461bcd60e51b815260206004820152605060248201527f416e204c3220726f6f74206861736e277420796574206265656e20627269646760448201527f656420746f207468697320636f6e74726163742e2072656672657368526f6f7460648201527f206d7573742062652063616c6c65642e00000000000000000000000000000000608482015260a401610279565b5f6002541161071e5760405162461bcd60e51b815260206004820152605060248201527f416e204c3220726f6f74206861736e277420796574206265656e20627269646760448201527f656420746f207468697320636f6e74726163742e2072656672657368526f6f7460648201527f206d7573742062652063616c6c65642e00000000000000000000000000000000608482015260a401610279565b50506001546002549091565b6005545f805460408051602480820188905282518083039091018152604490910182526020810180517bffffffffffffffffffffffffffffffffffffffffffffffffffffffff167f27e74ca30000000000000000000000000000000000000000000000000000000017905290517f5f7b15770000000000000000000000000000000000000000000000000000000081526001600160a01b0394851694635f7b15779434946107e494921692909190889032906004016108d1565b5f604051808303818588803b1580156107fb575f5ffd5b505af115801561080d573d5f5f3e3d5ffd5b50505050505050565b5f5f60408385031215610827575f5ffd5b50508035926020909101359150565b5f60208284031215610846575f5ffd5b5035919050565b6001600160a01b0381168114610423575f5ffd5b5f5f60408385031215610872575f5ffd5b823561087d8161084d565b9150602083013561088d8161084d565b809150509250929050565b5f602082840312156108a8575f5ffd5b81516108b38161084d565b9392505050565b5f602082840312156108ca575f5ffd5b5051919050565b6001600160a01b038616815284602082015260a060408201525f84518060a0840152806020870160c085015e5f60c0828501015260c0601f19601f8301168401019150508360608301526001600160a01b0383166080830152969550505050505056fea2646970667358221220b6e482d20d52e5dc6fe94ae62a9135b5c3e64d3205997bcbe0f2d0c527a5b98a64736f6c634300081d0033",
          "opcodes": "PUSH1 0x80 PUSH1 0x40 MSTORE PUSH1 0x5 DUP1 SLOAD PUSH1 0xFF PUSH1 0xA0 SHL NOT AND SWAP1 SSTORE CALLVALUE DUP1 ISZERO PUSH1 0x1B JUMPI PUSH0 PUSH0 REVERT JUMPDEST POP PUSH1 0x40 MLOAD PUSH2 0xA0C CODESIZE SUB DUP1 PUSH2 0xA0C DUP4 CODECOPY DUP2 ADD PUSH1 0x40 DUP2 SWAP1 MSTORE PUSH1 0x38 SWAP2 PUSH1 0x6A JUMP JUMPDEST PUSH1 0x4 DUP1 SLOAD CALLER PUSH1 0x1 PUSH1 0x1 PUSH1 0xA0 SHL SUB NOT SWAP2 DUP3 AND OR SWAP1 SWAP2 SSTORE PUSH1 0x5 DUP1 SLOAD SWAP1 SWAP2 AND PUSH1 0x1 PUSH1 0x1 PUSH1 0xA0 SHL SUB SWAP3 SWAP1 SWAP3 AND SWAP2 SWAP1 SWAP2 OR SWAP1 SSTORE PUSH1 0x95 JUMP JUMPDEST PUSH0 PUSH1 0x20 DUP3 DUP5 SUB SLT ISZERO PUSH1 0x79 JUMPI PUSH0 PUSH0 REVERT JUMPDEST DUP2 MLOAD PUSH1 0x1 PUSH1 0x1 PUSH1 0xA0 SHL SUB DUP2 AND DUP2 EQ PUSH1 0x8E JUMPI PUSH0 PUSH0 REVERT JUMPDEST SWAP4 SWAP3 POP POP POP JUMP JUMPDEST PUSH2 0x96A DUP1 PUSH2 0xA2 PUSH0 CODECOPY PUSH0 RETURN INVALID PUSH1 0x80 PUSH1 0x40 MSTORE PUSH1 0x4 CALLDATASIZE LT PUSH2 0xAD JUMPI PUSH0 CALLDATALOAD PUSH1 0xE0 SHR DUP1 PUSH4 0xA98F7044 GT PUSH2 0x66 JUMPI DUP1 PUSH4 0xAE5582FA GT PUSH2 0x4C JUMPI DUP1 PUSH4 0xAE5582FA EQ PUSH2 0x197 JUMPI DUP1 PUSH4 0xDF374165 EQ PUSH2 0x1C0 JUMPI DUP1 PUSH4 0xEA300187 EQ PUSH2 0x1DF JUMPI PUSH0 PUSH0 REVERT JUMPDEST DUP1 PUSH4 0xA98F7044 EQ PUSH2 0x14B JUMPI DUP1 PUSH4 0xAC043710 EQ PUSH2 0x182 JUMPI PUSH0 PUSH0 REVERT JUMPDEST DUP1 PUSH4 0x2F4EB62D GT PUSH2 0x96 JUMPI DUP1 PUSH4 0x2F4EB62D EQ PUSH2 0xE5 JUMPI DUP1 PUSH4 0x485CC955 EQ PUSH2 0x10D JUMPI DUP1 PUSH4 0x859C9575 EQ PUSH2 0x12C JUMPI PUSH0 PUSH0 REVERT JUMPDEST DUP1 PUSH4 0x10BB871 EQ PUSH2 0xB1 JUMPI DUP1 PUSH4 0x27E74CA3 EQ PUSH2 0xD2 JUMPI JUMPDEST PUSH0 PUSH0 REVERT JUMPDEST CALLVALUE DUP1 ISZERO PUSH2 0xBC JUMPI PUSH0 PUSH0 REVERT JUMPDEST POP PUSH2 0xD0 PUSH2 0xCB CALLDATASIZE PUSH1 0x4 PUSH2 0x816 JUMP JUMPDEST PUSH2 0x1FD JUMP JUMPDEST STOP JUMPDEST PUSH2 0xD0 PUSH2 0xE0 CALLDATASIZE PUSH1 0x4 PUSH2 0x836 JUMP JUMPDEST PUSH2 0x3BC JUMP JUMPDEST CALLVALUE DUP1 ISZERO PUSH2 0xF0 JUMPI PUSH0 PUSH0 REVERT JUMPDEST POP PUSH2 0xFA PUSH1 0x1 SLOAD DUP2 JUMP JUMPDEST PUSH1 0x40 MLOAD SWAP1 DUP2 MSTORE PUSH1 0x20 ADD JUMPDEST PUSH1 0x40 MLOAD DUP1 SWAP2 SUB SWAP1 RETURN JUMPDEST CALLVALUE DUP1 ISZERO PUSH2 0x118 JUMPI PUSH0 PUSH0 REVERT JUMPDEST POP PUSH2 0xD0 PUSH2 0x127 CALLDATASIZE PUSH1 0x4 PUSH2 0x861 JUMP JUMPDEST PUSH2 0x426 JUMP JUMPDEST CALLVALUE DUP1 ISZERO PUSH2 0x137 JUMPI PUSH0 PUSH0 REVERT JUMPDEST POP PUSH2 0xD0 PUSH2 0x146 CALLDATASIZE PUSH1 0x4 PUSH2 0x836 JUMP JUMPDEST PUSH2 0x54D JUMP JUMPDEST CALLVALUE DUP1 ISZERO PUSH2 0x156 JUMPI PUSH0 PUSH0 REVERT JUMPDEST POP PUSH1 0x5 SLOAD PUSH2 0x16A SWAP1 PUSH1 0x1 PUSH1 0x1 PUSH1 0xA0 SHL SUB AND DUP2 JUMP JUMPDEST PUSH1 0x40 MLOAD PUSH1 0x1 PUSH1 0x1 PUSH1 0xA0 SHL SUB SWAP1 SWAP2 AND DUP2 MSTORE PUSH1 0x20 ADD PUSH2 0x104 JUMP JUMPDEST CALLVALUE DUP1 ISZERO PUSH2 0x18D JUMPI PUSH0 PUSH0 REVERT JUMPDEST POP PUSH2 0xFA PUSH1 0x2 SLOAD DUP2 JUMP JUMPDEST CALLVALUE DUP1 ISZERO PUSH2 0x1A2 JUMPI PUSH0 PUSH0 REVERT JUMPDEST POP PUSH2 0x1AB PUSH2 0x5E2 JUMP JUMPDEST PUSH1 0x40 DUP1 MLOAD SWAP3 DUP4 MSTORE PUSH1 0x20 DUP4 ADD SWAP2 SWAP1 SWAP2 MSTORE ADD PUSH2 0x104 JUMP JUMPDEST CALLVALUE DUP1 ISZERO PUSH2 0x1CB JUMPI PUSH0 PUSH0 REVERT JUMPDEST POP PUSH1 0x3 SLOAD PUSH2 0x16A SWAP1 PUSH1 0x1 PUSH1 0x1 PUSH1 0xA0 SHL SUB AND DUP2 JUMP JUMPDEST CALLVALUE DUP1 ISZERO PUSH2 0x1EA JUMPI PUSH0 PUSH0 REVERT JUMPDEST POP PUSH0 SLOAD PUSH2 0x16A SWAP1 PUSH1 0x1 PUSH1 0x1 PUSH1 0xA0 SHL SUB AND DUP2 JUMP JUMPDEST PUSH1 0x5 SLOAD PUSH1 0x1 PUSH1 0x1 PUSH1 0xA0 SHL SUB AND CALLER EQ PUSH2 0x282 JUMPI PUSH1 0x40 MLOAD PUSH3 0x461BCD PUSH1 0xE5 SHL DUP2 MSTORE PUSH1 0x20 PUSH1 0x4 DUP3 ADD MSTORE PUSH1 0x28 PUSH1 0x24 DUP3 ADD MSTORE PUSH32 0x66756E6374696F6E206E6F742063616C6C6564206279206C315363726F6C6C4D PUSH1 0x44 DUP3 ADD MSTORE PUSH32 0x657373656E676572000000000000000000000000000000000000000000000000 PUSH1 0x64 DUP3 ADD MSTORE PUSH1 0x84 ADD JUMPDEST PUSH1 0x40 MLOAD DUP1 SWAP2 SUB SWAP1 REVERT JUMPDEST PUSH1 0x5 PUSH0 SWAP1 SLOAD SWAP1 PUSH2 0x100 EXP SWAP1 DIV PUSH1 0x1 PUSH1 0x1 PUSH1 0xA0 SHL SUB AND PUSH1 0x1 PUSH1 0x1 PUSH1 0xA0 SHL SUB AND PUSH4 0x6E296E45 PUSH1 0x40 MLOAD DUP2 PUSH4 0xFFFFFFFF AND PUSH1 0xE0 SHL DUP2 MSTORE PUSH1 0x4 ADD PUSH1 0x20 PUSH1 0x40 MLOAD DUP1 DUP4 SUB DUP2 DUP7 GAS STATICCALL ISZERO DUP1 ISZERO PUSH2 0x2D2 JUMPI RETURNDATASIZE PUSH0 PUSH0 RETURNDATACOPY RETURNDATASIZE PUSH0 REVERT JUMPDEST POP POP POP POP PUSH1 0x40 MLOAD RETURNDATASIZE PUSH1 0x1F NOT PUSH1 0x1F DUP3 ADD AND DUP3 ADD DUP1 PUSH1 0x40 MSTORE POP DUP2 ADD SWAP1 PUSH2 0x2F6 SWAP2 SWAP1 PUSH2 0x898 JUMP JUMPDEST PUSH0 SLOAD PUSH1 0x1 PUSH1 0x1 PUSH1 0xA0 SHL SUB SWAP1 DUP2 AND SWAP2 AND EQ PUSH2 0x378 JUMPI PUSH1 0x40 MLOAD PUSH3 0x461BCD PUSH1 0xE5 SHL DUP2 MSTORE PUSH1 0x20 PUSH1 0x4 DUP3 ADD MSTORE PUSH1 0x3B PUSH1 0x24 DUP3 ADD MSTORE PUSH32 0x636F6E7472616374206D6573736167696E672066726F6D204C32206973206E6F PUSH1 0x44 DUP3 ADD MSTORE PUSH32 0x7420746865204C325363726F6C6C427269646765416461707465720000000000 PUSH1 0x64 DUP3 ADD MSTORE PUSH1 0x84 ADD PUSH2 0x279 JUMP JUMPDEST PUSH1 0x40 DUP1 MLOAD DUP4 DUP2 MSTORE PUSH1 0x20 DUP2 ADD DUP4 SWAP1 MSTORE PUSH32 0x475B5C7799F48003A7AFB7BAC86D23C4D2CFD499581B90657C981E4616318A2C SWAP2 ADD PUSH1 0x40 MLOAD DUP1 SWAP2 SUB SWAP1 LOG1 PUSH1 0x1 SWAP2 SWAP1 SWAP2 SSTORE PUSH1 0x2 SSTORE JUMP JUMPDEST PUSH1 0x3 SLOAD PUSH1 0x1 PUSH1 0x1 PUSH1 0xA0 SHL SUB AND CALLER EQ PUSH2 0x416 JUMPI PUSH1 0x40 MLOAD PUSH3 0x461BCD PUSH1 0xE5 SHL DUP2 MSTORE PUSH1 0x20 PUSH1 0x4 DUP3 ADD MSTORE PUSH1 0xE PUSH1 0x24 DUP3 ADD MSTORE PUSH32 0x4E6F742067696761427269646765000000000000000000000000000000000000 PUSH1 0x44 DUP3 ADD MSTORE PUSH1 0x64 ADD PUSH2 0x279 JUMP JUMPDEST PUSH2 0x423 DUP2 PUSH3 0x1E8480 PUSH2 0x72A JUMP JUMPDEST POP JUMP JUMPDEST PUSH1 0x4 SLOAD PUSH1 0x1 PUSH1 0x1 PUSH1 0xA0 SHL SUB AND CALLER EQ PUSH2 0x480 JUMPI PUSH1 0x40 MLOAD PUSH3 0x461BCD PUSH1 0xE5 SHL DUP2 MSTORE PUSH1 0x20 PUSH1 0x4 DUP3 ADD MSTORE PUSH1 0x10 PUSH1 0x24 DUP3 ADD MSTORE PUSH32 0x4E6F7420746865206465706C6F79657200000000000000000000000000000000 PUSH1 0x44 DUP3 ADD MSTORE PUSH1 0x64 ADD PUSH2 0x279 JUMP JUMPDEST PUSH1 0x5 SLOAD PUSH1 0x1 PUSH1 0xA0 SHL SWAP1 DIV PUSH1 0xFF AND ISZERO PUSH2 0x4DA JUMPI PUSH1 0x40 MLOAD PUSH3 0x461BCD PUSH1 0xE5 SHL DUP2 MSTORE PUSH1 0x20 PUSH1 0x4 DUP3 ADD MSTORE PUSH1 0x19 PUSH1 0x24 DUP3 ADD MSTORE PUSH32 0x63616E7420696E697469616C697A65206F6E6C79206F6E636500000000000000 PUSH1 0x44 DUP3 ADD MSTORE PUSH1 0x64 ADD PUSH2 0x279 JUMP JUMPDEST PUSH1 0x5 DUP1 SLOAD PUSH32 0xFFFFFFFFFFFFFFFFFFFFFF00FFFFFFFFFFFFFFFFFFFFFFFFFFFFFFFFFFFFFFFF AND PUSH1 0x1 PUSH1 0xA0 SHL OR SWAP1 SSTORE PUSH0 DUP1 SLOAD PUSH1 0x1 PUSH1 0x1 PUSH1 0xA0 SHL SUB SWAP4 DUP5 AND PUSH32 0xFFFFFFFFFFFFFFFFFFFFFFFF0000000000000000000000000000000000000000 SWAP2 DUP3 AND OR SWAP1 SWAP2 SSTORE PUSH1 0x3 DUP1 SLOAD SWAP3 SWAP1 SWAP4 AND SWAP2 AND OR SWAP1 SSTORE JUMP JUMPDEST PUSH1 0x3 SLOAD PUSH1 0x40 DUP1 MLOAD PUSH32 0x29C50FA900000000000000000000000000000000000000000000000000000000 DUP2 MSTORE SWAP1 MLOAD PUSH0 SWAP3 PUSH1 0x1 PUSH1 0x1 PUSH1 0xA0 SHL SUB AND SWAP2 PUSH4 0x29C50FA9 SWAP2 PUSH1 0x4 DUP1 DUP4 ADD SWAP3 PUSH1 0x20 SWAP3 SWAP2 SWAP1 DUP3 SWAP1 SUB ADD DUP2 DUP8 DUP8 GAS CALL ISZERO DUP1 ISZERO PUSH2 0x5AE JUMPI RETURNDATASIZE PUSH0 PUSH0 RETURNDATACOPY RETURNDATASIZE PUSH0 REVERT JUMPDEST POP POP POP POP PUSH1 0x40 MLOAD RETURNDATASIZE PUSH1 0x1F NOT PUSH1 0x1F DUP3 ADD AND DUP3 ADD DUP1 PUSH1 0x40 MSTORE POP DUP2 ADD SWAP1 PUSH2 0x5D2 SWAP2 SWAP1 PUSH2 0x8BA JUMP JUMPDEST SWAP1 POP PUSH2 0x5DE DUP2 DUP4 PUSH2 0x72A JUMP JUMPDEST POP POP JUMP JUMPDEST PUSH0 PUSH0 PUSH0 PUSH1 0x1 SLOAD GT PUSH2 0x681 JUMPI PUSH1 0x40 MLOAD PUSH3 0x461BCD PUSH1 0xE5 SHL DUP2 MSTORE PUSH1 0x20 PUSH1 0x4 DUP3 ADD MSTORE PUSH1 0x50 PUSH1 0x24 DUP3 ADD MSTORE PUSH32 0x416E204C3220726F6F74206861736E277420796574206265656E206272696467 PUSH1 0x44 DUP3 ADD MSTORE PUSH32 0x656420746F207468697320636F6E74726163742E2072656672657368526F6F74 PUSH1 0x64 DUP3 ADD MSTORE PUSH32 0x206D7573742062652063616C6C65642E00000000000000000000000000000000 PUSH1 0x84 DUP3 ADD MSTORE PUSH1 0xA4 ADD PUSH2 0x279 JUMP JUMPDEST PUSH0 PUSH1 0x2 SLOAD GT PUSH2 0x71E JUMPI PUSH1 0x40 MLOAD PUSH3 0x461BCD PUSH1 0xE5 SHL DUP2 MSTORE PUSH1 0x20 PUSH1 0x4 DUP3 ADD MSTORE PUSH1 0x50 PUSH1 0x24 DUP3 ADD MSTORE PUSH32 0x416E204C3220726F6F74206861736E277420796574206265656E206272696467 PUSH1 0x44 DUP3 ADD MSTORE PUSH32 0x656420746F207468697320636F6E74726163742E2072656672657368526F6F74 PUSH1 0x64 DUP3 ADD MSTORE PUSH32 0x206D7573742062652063616C6C65642E00000000000000000000000000000000 PUSH1 0x84 DUP3 ADD MSTORE PUSH1 0xA4 ADD PUSH2 0x279 JUMP JUMPDEST POP POP PUSH1 0x1 SLOAD PUSH1 0x2 SLOAD SWAP1 SWAP2 JUMP JUMPDEST PUSH1 0x5 SLOAD PUSH0 DUP1 SLOAD PUSH1 0x40 DUP1 MLOAD PUSH1 0x24 DUP1 DUP3 ADD DUP9 SWAP1 MSTORE DUP3 MLOAD DUP1 DUP4 SUB SWAP1 SWAP2 ADD DUP2 MSTORE PUSH1 0x44 SWAP1 SWAP2 ADD DUP3 MSTORE PUSH1 0x20 DUP2 ADD DUP1 MLOAD PUSH28 0xFFFFFFFFFFFFFFFFFFFFFFFFFFFFFFFFFFFFFFFFFFFFFFFFFFFFFFFF AND PUSH32 0x27E74CA300000000000000000000000000000000000000000000000000000000 OR SWAP1 MSTORE SWAP1 MLOAD PUSH32 0x5F7B157700000000000000000000000000000000000000000000000000000000 DUP2 MSTORE PUSH1 0x1 PUSH1 0x1 PUSH1 0xA0 SHL SUB SWAP5 DUP6 AND SWAP5 PUSH4 0x5F7B1577 SWAP5 CALLVALUE SWAP5 PUSH2 0x7E4 SWAP5 SWAP3 AND SWAP3 SWAP1 SWAP2 SWAP1 DUP9 SWAP1 ORIGIN SWAP1 PUSH1 0x4 ADD PUSH2 0x8D1 JUMP JUMPDEST PUSH0 PUSH1 0x40 MLOAD DUP1 DUP4 SUB DUP2 DUP6 DUP9 DUP1 EXTCODESIZE ISZERO DUP1 ISZERO PUSH2 0x7FB JUMPI PUSH0 PUSH0 REVERT JUMPDEST POP GAS CALL ISZERO DUP1 ISZERO PUSH2 0x80D JUMPI RETURNDATASIZE PUSH0 PUSH0 RETURNDATACOPY RETURNDATASIZE PUSH0 REVERT JUMPDEST POP POP POP POP POP POP POP JUMP JUMPDEST PUSH0 PUSH0 PUSH1 0x40 DUP4 DUP6 SUB SLT ISZERO PUSH2 0x827 JUMPI PUSH0 PUSH0 REVERT JUMPDEST POP POP DUP1 CALLDATALOAD SWAP3 PUSH1 0x20 SWAP1 SWAP2 ADD CALLDATALOAD SWAP2 POP JUMP JUMPDEST PUSH0 PUSH1 0x20 DUP3 DUP5 SUB SLT ISZERO PUSH2 0x846 JUMPI PUSH0 PUSH0 REVERT JUMPDEST POP CALLDATALOAD SWAP2 SWAP1 POP JUMP JUMPDEST PUSH1 0x1 PUSH1 0x1 PUSH1 0xA0 SHL SUB DUP2 AND DUP2 EQ PUSH2 0x423 JUMPI PUSH0 PUSH0 REVERT JUMPDEST PUSH0 PUSH0 PUSH1 0x40 DUP4 DUP6 SUB SLT ISZERO PUSH2 0x872 JUMPI PUSH0 PUSH0 REVERT JUMPDEST DUP3 CALLDATALOAD PUSH2 0x87D DUP2 PUSH2 0x84D JUMP JUMPDEST SWAP2 POP PUSH1 0x20 DUP4 ADD CALLDATALOAD PUSH2 0x88D DUP2 PUSH2 0x84D JUMP JUMPDEST DUP1 SWAP2 POP POP SWAP3 POP SWAP3 SWAP1 POP JUMP JUMPDEST PUSH0 PUSH1 0x20 DUP3 DUP5 SUB SLT ISZERO PUSH2 0x8A8 JUMPI PUSH0 PUSH0 REVERT JUMPDEST DUP2 MLOAD PUSH2 0x8B3 DUP2 PUSH2 0x84D JUMP JUMPDEST SWAP4 SWAP3 POP POP POP JUMP JUMPDEST PUSH0 PUSH1 0x20 DUP3 DUP5 SUB SLT ISZERO PUSH2 0x8CA JUMPI PUSH0 PUSH0 REVERT JUMPDEST POP MLOAD SWAP2 SWAP1 POP JUMP JUMPDEST PUSH1 0x1 PUSH1 0x1 PUSH1 0xA0 SHL SUB DUP7 AND DUP2 MSTORE DUP5 PUSH1 0x20 DUP3 ADD MSTORE PUSH1 0xA0 PUSH1 0x40 DUP3 ADD MSTORE PUSH0 DUP5 MLOAD DUP1 PUSH1 0xA0 DUP5 ADD MSTORE DUP1 PUSH1 0x20 DUP8 ADD PUSH1 0xC0 DUP6 ADD MCOPY PUSH0 PUSH1 0xC0 DUP3 DUP6 ADD ADD MSTORE PUSH1 0xC0 PUSH1 0x1F NOT PUSH1 0x1F DUP4 ADD AND DUP5 ADD ADD SWAP2 POP POP DUP4 PUSH1 0x60 DUP4 ADD MSTORE PUSH1 0x1 PUSH1 0x1 PUSH1 0xA0 SHL SUB DUP4 AND PUSH1 0x80 DUP4 ADD MSTORE SWAP7 SWAP6 POP POP POP POP POP POP JUMP INVALID LOG2 PUSH5 0x6970667358 0x22 SLT KECCAK256 0xB6 RETF DUP3 0xD2 0xD MSTORE JUMPF 0xDC6F 0xE9 BLOBBASEFEE DUPN 0x2A SWAP2 CALLDATALOAD 0xB5 0xC3 DUPN 0x4D ORIGIN SDIV SWAP10 PUSH28 0xCBE0F2D0C527A5B98A64736F6C634300081D00330000000000000000 "
        },
        "methodIdentifiers": {
          "bridgeGigaRootWithGasLimit(uint256)": "859c9575",
          "getLocalRootAndBlock()": "ae5582fa",
          "getNewRootFromL2(uint256,uint256)": "010bb871",
          "gigaBridge()": "df374165",
          "initialize(address,address)": "485cc955",
          "l1ScrollMessenger()": "a98f7044",
          "l2ScrollBridgeAdapter()": "ea300187",
          "mostRecentL2Root()": "2f4eb62d",
          "mostRecentL2RootBlockNumber()": "ac043710",
          "receiveGigaRoot(uint256)": "27e74ca3"
        }
      }
    }
  }
}