{
  "_format": "hh-sol-artifact-1",
  "contractName": "L1AztecRootBridgeAdapter",
  "sourceName": "contracts/evm/L1AztecRootBridgeAdapter.sol",
  "abi": [
    {
      "inputs": [],
      "stateMutability": "nonpayable",
      "type": "constructor"
    },
    {
      "anonymous": false,
      "inputs": [
        {
          "indexed": true,
          "internalType": "bytes32",
          "name": "newGigaRoot",
          "type": "bytes32"
        },
        {
          "indexed": false,
          "internalType": "bytes32",
          "name": "key",
          "type": "bytes32"
        },
        {
          "indexed": false,
          "internalType": "uint256",
          "name": "index",
          "type": "uint256"
        }
      ],
      "name": "NewGigaRootSentToL2",
      "type": "event"
    },
    {
      "anonymous": false,
      "inputs": [
        {
          "indexed": false,
          "internalType": "uint256",
          "name": "newL2Root",
          "type": "uint256"
        },
        {
          "indexed": false,
          "internalType": "uint256",
          "name": "l2Block",
          "type": "uint256"
        }
      ],
      "name": "ReceivedNewL2Root",
      "type": "event"
    },
    {
      "inputs": [
        {
          "internalType": "bytes32",
          "name": "_newL2Root",
          "type": "bytes32"
        },
        {
          "internalType": "uint256",
          "name": "_bridgedL2BlockNumber",
          "type": "uint256"
        }
      ],
      "name": "getContentHash",
      "outputs": [
        {
          "internalType": "bytes32",
          "name": "",
          "type": "bytes32"
        }
      ],
      "stateMutability": "pure",
      "type": "function"
    },
    {
      "inputs": [],
      "name": "getLocalRootAndBlock",
      "outputs": [
        {
          "internalType": "uint256",
          "name": "",
          "type": "uint256"
        },
        {
          "internalType": "uint256",
          "name": "",
          "type": "uint256"
        }
      ],
      "stateMutability": "view",
      "type": "function"
    },
    {
      "inputs": [
        {
          "internalType": "bytes32",
          "name": "_newL2Root",
          "type": "bytes32"
        },
        {
          "internalType": "uint256",
          "name": "_bridgedL2BlockNumber",
          "type": "uint256"
        },
        {
          "internalType": "uint256",
          "name": "_witnessL2BlockNumber",
          "type": "uint256"
        },
        {
          "internalType": "uint256",
          "name": "_leafIndex",
          "type": "uint256"
        },
        {
          "internalType": "bytes32[]",
          "name": "_path",
          "type": "bytes32[]"
        }
      ],
      "name": "getNewRootFromL2",
      "outputs": [],
      "stateMutability": "nonpayable",
      "type": "function"
    },
    {
      "inputs": [],
      "name": "gigaBridge",
      "outputs": [
        {
          "internalType": "address",
          "name": "",
          "type": "address"
        }
      ],
      "stateMutability": "view",
      "type": "function"
    },
    {
      "inputs": [],
      "name": "inbox",
      "outputs": [
        {
          "internalType": "contract IInbox",
          "name": "",
          "type": "address"
        }
      ],
      "stateMutability": "view",
      "type": "function"
    },
    {
      "inputs": [
        {
          "internalType": "address",
          "name": "_registry",
          "type": "address"
        },
        {
          "internalType": "bytes32",
          "name": "_l2AztecRootBridgeAdapter",
          "type": "bytes32"
        },
        {
          "internalType": "address",
          "name": "_gigaRootBridge",
          "type": "address"
        }
      ],
      "name": "initialize",
      "outputs": [],
      "stateMutability": "nonpayable",
      "type": "function"
    },
    {
      "inputs": [],
      "name": "l2AztecRootBridgeAdapter",
      "outputs": [
        {
          "internalType": "bytes32",
          "name": "",
          "type": "bytes32"
        }
      ],
      "stateMutability": "view",
      "type": "function"
    },
    {
      "inputs": [],
      "name": "mostRecentL2Root",
      "outputs": [
        {
          "internalType": "uint256",
          "name": "",
          "type": "uint256"
        }
      ],
      "stateMutability": "view",
      "type": "function"
    },
    {
      "inputs": [],
      "name": "mostRecentL2RootBlockNumber",
      "outputs": [
        {
          "internalType": "uint256",
          "name": "",
          "type": "uint256"
        }
      ],
      "stateMutability": "view",
      "type": "function"
    },
    {
      "inputs": [],
      "name": "outbox",
      "outputs": [
        {
          "internalType": "contract IOutbox",
          "name": "",
          "type": "address"
        }
      ],
      "stateMutability": "view",
      "type": "function"
    },
    {
      "inputs": [
        {
          "internalType": "uint256",
          "name": "_newGigaRoot",
          "type": "uint256"
        }
      ],
      "name": "receiveGigaRoot",
      "outputs": [],
      "stateMutability": "nonpayable",
      "type": "function"
    },
    {
      "inputs": [],
      "name": "registry",
      "outputs": [
        {
          "internalType": "contract IRegistry",
          "name": "",
          "type": "address"
        }
      ],
      "stateMutability": "view",
      "type": "function"
    },
    {
      "inputs": [],
      "name": "rollup",
      "outputs": [
        {
          "internalType": "contract IRollup",
          "name": "",
          "type": "address"
        }
      ],
      "stateMutability": "view",
      "type": "function"
    },
    {
      "inputs": [],
      "name": "rollupVersion",
      "outputs": [
        {
          "internalType": "uint256",
          "name": "",
          "type": "uint256"
        }
      ],
      "stateMutability": "view",
      "type": "function"
    }
  ],
  "bytecode": "0x60806040526009805460ff60a01b19169055348015601b575f5ffd5b50600980546001600160a01b03191633179055610ce18061003b5f395ff3fe608060405234801561000f575f5ffd5b50600436106100e5575f3560e01c8063ae5582fa11610088578063ce11e6ab11610063578063ce11e6ab146101b5578063d26b3e6e146101c8578063df374165146101db578063fb0e722b146101ee575f5ffd5b8063ae5582fa1461017c578063b089388714610199578063cb23bcb5146101a2575f5ffd5b80634bd1a1c6116100c35780634bd1a1c6146101235780637b1039991461013657806395e2c67614610160578063ac04371014610173575f5ffd5b806327e74ca3146100e95780632f4eb62d146100fe578063452ad8e91461011a575b5f5ffd5b6100fc6100f7366004610a2c565b610201565b005b61010760025481565b6040519081526020015b60405180910390f35b61010760015481565b6100fc610131366004610a43565b61026c565b5f54610148906001600160a01b031681565b6040516001600160a01b039091168152602001610111565b61010761016e366004610ad9565b610380565b61010760035481565b6101846103bb565b60408051928352602083019190915201610111565b61010760075481565b600454610148906001600160a01b031681565b600554610148906001600160a01b031681565b6100fc6101d6366004610b0d565b610503565b600854610148906001600160a01b031681565b600654610148906001600160a01b031681565b6008546001600160a01b031633146102605760405162461bcd60e51b815260206004820152600e60248201527f4e6f74206769676142726964676500000000000000000000000000000000000060448201526064015b60405180910390fd5b61026981610869565b50565b5f6102778787610380565b6040805160a0810182526001546060820190815260075460808301528152815180830183523081524660208083019190915282015280820183905260055491517f7fb34967000000000000000000000000000000000000000000000000000000008152929350916001600160a01b0390911690637fb34967906103069084908a908a908a908a90600401610b4c565b5f604051808303815f87803b15801561031d575f5ffd5b505af115801561032f573d5f5f3e3d5ffd5b5050604080518b8152602081018b90528b93507f475b5c7799f48003a7afb7bac86d23c4d2cfd499581b90657c981e4616318a2c92500160405180910390a160025550505060039390935550505050565b5f6103b483836040516020016103a0929190918252602082015260400190565b604051602081830303815290604052610991565b9392505050565b5f5f5f6002541161045a5760405162461bcd60e51b815260206004820152605060248201527f416e204c3220726f6f74206861736e277420796574206265656e20627269646760448201527f656420746f207468697320636f6e74726163742e2072656672657368526f6f7460648201527f206d7573742062652063616c6c65642e00000000000000000000000000000000608482015260a401610257565b5f600354116104f75760405162461bcd60e51b815260206004820152605060248201527f416e204c3220726f6f74206861736e277420796574206265656e20627269646760448201527f656420746f207468697320636f6e74726163742e2072656672657368526f6f7460648201527f206d7573742062652063616c6c65642e00000000000000000000000000000000608482015260a401610257565b50506002546003549091565b6009546001600160a01b0316331461055d5760405162461bcd60e51b815260206004820152601060248201527f4e6f7420746865206465706c6f796572000000000000000000000000000000006044820152606401610257565b600954600160a01b900460ff16156105b75760405162461bcd60e51b815260206004820152601560248201527f63616e7420696e697469616c697a6520747769636500000000000000000000006044820152606401610257565b600980547fffffffffffffffffffffff00ffffffffffffffffffffffffffffffffffffffff16600160a01b1790555f80546001600160a01b0385166001600160a01b031990911681179091556001839055604080517f971b0e6b000000000000000000000000000000000000000000000000000000008152905163971b0e6b916004808201926020929091908290030181865afa15801561065a573d5f5f3e3d5ffd5b505050506040513d601f19601f8201168201806040525081019061067e9190610bf1565b600480546001600160a01b0319166001600160a01b03929092169182178155604080517fa32fbb7b000000000000000000000000000000000000000000000000000000008152905163a32fbb7b928281019260209291908290030181865afa1580156106ec573d5f5f3e3d5ffd5b505050506040513d601f19601f820116820180604052508101906107109190610bf1565b600580546001600160a01b0319166001600160a01b0392831617905560048054604080517f368c093c0000000000000000000000000000000000000000000000000000000081529051919093169263368c093c92818101926020929091908290030181865afa158015610785573d5f5f3e3d5ffd5b505050506040513d601f19601f820116820180604052508101906107a99190610bf1565b600680546001600160a01b0319166001600160a01b0392831617905560048054604080517f0d8e6e2c00000000000000000000000000000000000000000000000000000000815290519190931692630d8e6e2c92818101926020929091908290030181865afa15801561081e573d5f5f3e3d5ffd5b505050506040513d601f19601f820116820180604052508101906108429190610c0c565b600755600880546001600160a01b0319166001600160a01b03929092169190911790555050565b60408051808201825260015481526007546020820190815260065492517f1f6d510b0000000000000000000000000000000000000000000000000000000081528251600482015290516024820152604481018490527e1dc7b0244cb71a4609d526300ba6771064bd046848666f7bfe577053d630c56064820181905291928492915f9182916001600160a01b0390911690631f6d510b9060840160408051808303815f875af115801561091e573d5f5f3e3d5ffd5b505050506040513d601f19601f820116820180604052508101906109429190610c23565b91509150837f89e3b0ab420df07726f6f8cdb96ee0476f0ecbb1f96f3cee7a84f56343be48b18383604051610981929190918252602082015260400190565b60405180910390a2505050505050565b6040805160018082528183019092525f91602082018180368337019050506002836040516109bf9190610c5c565b602060405180830381855afa1580156109da573d5f5f3e3d5ffd5b5050506040513d601f19601f820116820180604052508101906109fd9190610c0c565b604051602001610a0e929190610c67565b604051602081830303815290604052610a2690610c85565b92915050565b5f60208284031215610a3c575f5ffd5b5035919050565b5f5f5f5f5f5f60a08789031215610a58575f5ffd5b86359550602087013594506040870135935060608701359250608087013567ffffffffffffffff811115610a8a575f5ffd5b8701601f81018913610a9a575f5ffd5b803567ffffffffffffffff811115610ab0575f5ffd5b8960208260051b8401011115610ac4575f5ffd5b60208201935080925050509295509295509295565b5f5f60408385031215610aea575f5ffd5b50508035926020909101359150565b6001600160a01b0381168114610269575f5ffd5b5f5f5f60608486031215610b1f575f5ffd5b8335610b2a81610af9565b9250602084013591506040840135610b4181610af9565b809150509250925092565b610b6181875180518252602090810151910152565b5f60208701516001600160a01b0381511660408401526020810151606084015250604087015160808301528560a08301528460c083015261010060e0830152826101008301527f07ffffffffffffffffffffffffffffffffffffffffffffffffffffffffffffff831115610bd3575f5ffd5b8260051b808561012085013791909101610120019695505050505050565b5f60208284031215610c01575f5ffd5b81516103b481610af9565b5f60208284031215610c1c575f5ffd5b5051919050565b5f5f60408385031215610c34575f5ffd5b505080516020909101519092909150565b5f81518060208401855e5f93019283525090919050565b5f6103b48284610c45565b5f610c728285610c45565b60ff199390931683525050601f01919050565b80516020808301519190811015610ca5575f198160200360031b1b821691505b5091905056fea2646970667358221220b2796bdc021fbbd1f0e08e4b15d794ca9e59a40a1e424a33fb4d15637a88ee0564736f6c634300081d0033",
  "linkReferences": {},
  "deployedLinkReferences": {}
}