{
  "_format": "hh-sol-artifact-1",
  "contractName": "GigaRootBridge",
  "sourceName": "contracts/evm/GigaRootBridge.sol",
  "abi": [
    {
      "inputs": [
        {
          "internalType": "address[]",
          "name": "_localRootProviders",
          "type": "address[]"
        },
        {
          "internalType": "uint8",
          "name": "_maxTreeDepth",
          "type": "uint8"
        }
      ],
      "stateMutability": "nonpayable",
      "type": "constructor"
    },
    {
      "anonymous": false,
      "inputs": [
        {
          "indexed": true,
          "internalType": "uint256",
          "name": "newGigaRoot",
          "type": "uint256"
        }
      ],
      "name": "ConstructedNewGigaRoot",
      "type": "event"
    },
    {
      "anonymous": false,
      "inputs": [
        {
          "indexed": true,
          "internalType": "uint256",
          "name": "newLocalRoot",
          "type": "uint256"
        },
        {
          "indexed": true,
          "internalType": "uint40",
          "name": "localRootIndex",
          "type": "uint40"
        },
        {
          "indexed": false,
          "internalType": "uint256",
          "name": "localRootBlockNumber",
          "type": "uint256"
        }
      ],
      "name": "ReceivedNewLocalRoot",
      "type": "event"
    },
    {
      "inputs": [],
      "name": "amountOfLocalRoots",
      "outputs": [
        {
          "internalType": "uint256",
          "name": "",
          "type": "uint256"
        }
      ],
      "stateMutability": "view",
      "type": "function"
    },
    {
      "inputs": [
        {
          "internalType": "address",
          "name": "_localRootProvider",
          "type": "address"
        }
      ],
      "name": "getLocalRootProvidersIndex",
      "outputs": [
        {
          "internalType": "uint40",
          "name": "",
          "type": "uint40"
        }
      ],
      "stateMutability": "view",
      "type": "function"
    },
    {
      "inputs": [],
      "name": "gigaRoot",
      "outputs": [
        {
          "internalType": "uint256",
          "name": "",
          "type": "uint256"
        }
      ],
      "stateMutability": "view",
      "type": "function"
    },
    {
      "inputs": [
        {
          "internalType": "address",
          "name": "_localRootProvider",
          "type": "address"
        }
      ],
      "name": "isLocalRootProviders",
      "outputs": [
        {
          "internalType": "bool",
          "name": "",
          "type": "bool"
        }
      ],
      "stateMutability": "view",
      "type": "function"
    },
    {
      "inputs": [
        {
          "internalType": "address",
          "name": "",
          "type": "address"
        }
      ],
      "name": "localRootBlockNumbers",
      "outputs": [
        {
          "internalType": "uint256",
          "name": "",
          "type": "uint256"
        }
      ],
      "stateMutability": "view",
      "type": "function"
    },
    {
      "inputs": [],
      "name": "maxTreeDepth",
      "outputs": [
        {
          "internalType": "uint8",
          "name": "",
          "type": "uint8"
        }
      ],
      "stateMutability": "view",
      "type": "function"
    },
    {
      "inputs": [],
      "name": "rootTreeData",
      "outputs": [
        {
          "internalType": "uint40",
          "name": "maxIndex",
          "type": "uint40"
        },
        {
          "internalType": "uint40",
          "name": "numberOfLeaves",
          "type": "uint40"
        }
      ],
      "stateMutability": "view",
      "type": "function"
    },
    {
      "inputs": [
        {
          "internalType": "address[]",
          "name": "_localRootProviders",
          "type": "address[]"
        }
      ],
      "name": "sendRoot",
      "outputs": [],
      "stateMutability": "nonpayable",
      "type": "function"
    },
    {
      "inputs": [
        {
          "internalType": "address[]",
          "name": "_localRootProviders",
          "type": "address[]"
        }
      ],
      "name": "updateRoot",
      "outputs": [],
      "stateMutability": "nonpayable",
      "type": "function"
    }
  ],
  "bytecode": "0x608060405234801561000f575f5ffd5b50604051610c19380380610c1983398101604081905261002e91610270565b6002805460ff191660ff8316908117909155604051631844db3b60e21b81525f6004820152602481019190915273__$5fc44c2a7799c6ceb48acabb21e98687d0$__906361136cec906044015f6040518083038186803b158015610090575f5ffd5b505af41580156100a2573d5f5f3e3d5ffd5b505f925050505b82518164ffffffffff161015610161576100e9838264ffffffffff16815181106100d5576100d561034c565b6020026020010151826101f060201b60201c565b60405163011277af60e11b81525f60048201819052602482015273__$5fc44c2a7799c6ceb48acabb21e98687d0$__90630224ef5e906044015f6040518083038186803b158015610138575f5ffd5b505af415801561014a573d5f5f3e3d5ffd5b50505050808061015990610374565b9150506100a9565b5081516006556002546040516339ebe6e360e01b81525f600482015260ff909116602482015273__$5fc44c2a7799c6ceb48acabb21e98687d0$__906339ebe6e390604401602060405180830381865af41580156101c1573d5f5f3e3d5ffd5b505050506040513d601f19601f820116820180604052508101906101e5919061039a565b600355506103d49050565b6101fb8160016103b1565b6001600160a01b03929092165f908152600460205260409020805464ffffffffff191664ffffffffff9093169290921790915550565b634e487b7160e01b5f52604160045260245ffd5b80516001600160a01b038116811461025b575f5ffd5b919050565b805160ff8116811461025b575f5ffd5b5f5f60408385031215610281575f5ffd5b82516001600160401b03811115610296575f5ffd5b8301601f810185136102a6575f5ffd5b80516001600160401b038111156102bf576102bf610231565b604051600582901b90603f8201601f191681016001600160401b03811182821017156102ed576102ed610231565b60405291825260208184018101929081018884111561030a575f5ffd5b6020850194505b838510156103305761032285610245565b815260209485019401610311565b5094506103439250505060208401610260565b90509250929050565b634e487b7160e01b5f52603260045260245ffd5b634e487b7160e01b5f52601160045260245ffd5b5f64ffffffffff821664ffffffffff810361039157610391610360565b60010192915050565b5f602082840312156103aa575f5ffd5b5051919050565b64ffffffffff81811683821601908111156103ce576103ce610360565b92915050565b610838806103e15f395ff3fe608060405234801561000f575f5ffd5b506004361061009f575f3560e01c806367e31d0711610072578063cc9c92e311610058578063cc9c92e314610182578063d3f9fa51146101a1578063fd747765146101c0575f5ffd5b806367e31d071461012c578063b32a957114610141575f5ffd5b8063025e2480146100a357806329c50fa9146100bf578063363f1dad146100c85780633b7cd9de14610103575b5f5ffd5b6100ac60065481565b6040519081526020015b60405180910390f35b6100ac60035481565b5f546100e59064ffffffffff808216916501000000000090041682565b6040805164ffffffffff9384168152929091166020830152016100b6565b61011661011136600461065f565b6101d3565b60405164ffffffffff90911681526020016100b6565b61013f61013a366004610693565b610204565b005b61017261014f36600461065f565b6001600160a01b03165f9081526004602052604090205464ffffffffff16151590565b60405190151581526020016100b6565b6100ac61019036600461065f565b60056020525f908152604090205481565b6002546101ae9060ff1681565b60405160ff90911681526020016100b6565b61013f6101ce366004610693565b6105a9565b6001600160a01b0381165f908152600460205260408120546101fe9060019064ffffffffff16610772565b92915050565b5f5b81518164ffffffffff1610156104dc575f828264ffffffffff16815181106102305761023061078f565b602002602001015190505f610244826101d3565b905061026d826001600160a01b03165f9081526004602052604090205464ffffffffff16151590565b6102e45760405162461bcd60e51b815260206004820152602f60248201527f41646472657373206973206e6f742061207265676973746572656420726f6f7460448201527f206272696467652061646472657373000000000000000000000000000000000060648201526084015b60405180910390fd5b5f8290505f5f826001600160a01b031663ae5582fa6040518163ffffffff1660e01b815260040160408051808303815f875af1158015610326573d5f5f3e3d5ffd5b505050506040513d601f19601f8201168201806040525081019061034a91906107a3565b6001600160a01b0387165f9081526005602052604090205491935091508110156103dc5760405162461bcd60e51b815260206004820152602560248201527f6c6f63616c526f6f742068617320746f206265206e65776572206f722074686560448201527f2073616d6500000000000000000000000000000000000000000000000000000060648201526084016102db565b6001600160a01b0385165f90815260056020526040808220839055517f09489a3c00000000000000000000000000000000000000000000000000000000815260048101919091526024810183905264ffffffffff8516604482015273__$5fc44c2a7799c6ceb48acabb21e98687d0$__906309489a3c906064015f6040518083038186803b15801561046c575f5ffd5b505af415801561047e573d5f5f3e3d5ffd5b505050508364ffffffffff16827fd22c20021486e0e86b4af0b379484ed1fb952315fb1e05df3dda5bd6421d936e836040516104bc91815260200190565b60405180910390a3505050505080806104d4906107c5565b915050610206565b506002546040517f39ebe6e30000000000000000000000000000000000000000000000000000000081525f6004820181905260ff909216602482015273__$5fc44c2a7799c6ceb48acabb21e98687d0$__906339ebe6e390604401602060405180830381865af4158015610552573d5f5f3e3d5ffd5b505050506040513d601f19601f8201168201806040525081019061057691906107eb565b60405190915081907f8e90d8cfb527d5c92458e67bc378f86769c754f180409b1e5c7ec5e183c91820905f90a260035550565b5f5b8151811015610640575f8282815181106105c7576105c761078f565b602002602001015190505f819050806001600160a01b03166327e74ca36003546040518263ffffffff1660e01b815260040161060591815260200190565b5f604051808303815f87803b15801561061c575f5ffd5b505af115801561062e573d5f5f3e3d5ffd5b5050600190940193506105ab92505050565b5050565b80356001600160a01b038116811461065a575f5ffd5b919050565b5f6020828403121561066f575f5ffd5b61067882610644565b9392505050565b634e487b7160e01b5f52604160045260245ffd5b5f602082840312156106a3575f5ffd5b813567ffffffffffffffff8111156106b9575f5ffd5b8201601f810184136106c9575f5ffd5b803567ffffffffffffffff8111156106e3576106e361067f565b8060051b604051601f19603f830116810181811067ffffffffffffffff821117156107105761071061067f565b60405291825260208184018101929081018784111561072d575f5ffd5b6020850194505b838510156107535761074585610644565b815260209485019401610734565b509695505050505050565b634e487b7160e01b5f52601160045260245ffd5b64ffffffffff82811682821603908111156101fe576101fe61075e565b634e487b7160e01b5f52603260045260245ffd5b5f5f604083850312156107b4575f5ffd5b505080516020909101519092909150565b5f64ffffffffff821664ffffffffff81036107e2576107e261075e565b60010192915050565b5f602082840312156107fb575f5ffd5b505191905056fea2646970667358221220dbd73919fea7b211ff0365184a011c829d16d5e009ab1311a2bfc0186d8df56264736f6c634300081d0033",
  "linkReferences": {
    "@zk-kit/lazy-imt.sol/LazyIMT.sol": {
      "LazyIMT": [
        {
          "length": 20,
          "start": 93
        },
        {
          "length": 20,
          "start": 261
        },
        {
          "length": 20,
          "start": 393
        },
        {
          "length": 20,
          "start": 2074
        },
        {
          "length": 20,
          "start": 2299
        }
      ]
    }
  },
  "deployedLinkReferences": {
    "@zk-kit/lazy-imt.sol/LazyIMT.sol": {
      "LazyIMT": [
        {
          "length": 20,
          "start": 1081
        },
        {
          "length": 20,
          "start": 1306
        }
      ]
    }
  }
}