{
  "_format": "hh-sol-artifact-1",
  "contractName": "L1WarpToad",
  "sourceName": "contracts/evm/warptoad/L1WarpToad.sol",
  "abi": [
    {
      "inputs": [
        {
          "internalType": "uint8",
          "name": "_maxTreeDepth",
          "type": "uint8"
        },
        {
          "internalType": "address",
          "name": "_withdrawVerifier",
          "type": "address"
        },
        {
          "internalType": "address",
          "name": "_nativeToken",
          "type": "address"
        },
        {
          "internalType": "string",
          "name": "name",
          "type": "string"
        },
        {
          "internalType": "string",
          "name": "symbol",
          "type": "string"
        }
      ],
      "stateMutability": "nonpayable",
      "type": "constructor"
    },
    {
      "inputs": [
        {
          "internalType": "address",
          "name": "spender",
          "type": "address"
        },
        {
          "internalType": "uint256",
          "name": "allowance",
          "type": "uint256"
        },
        {
          "internalType": "uint256",
          "name": "needed",
          "type": "uint256"
        }
      ],
      "name": "ERC20InsufficientAllowance",
      "type": "error"
    },
    {
      "inputs": [
        {
          "internalType": "address",
          "name": "sender",
          "type": "address"
        },
        {
          "internalType": "uint256",
          "name": "balance",
          "type": "uint256"
        },
        {
          "internalType": "uint256",
          "name": "needed",
          "type": "uint256"
        }
      ],
      "name": "ERC20InsufficientBalance",
      "type": "error"
    },
    {
      "inputs": [
        {
          "internalType": "address",
          "name": "approver",
          "type": "address"
        }
      ],
      "name": "ERC20InvalidApprover",
      "type": "error"
    },
    {
      "inputs": [
        {
          "internalType": "address",
          "name": "receiver",
          "type": "address"
        }
      ],
      "name": "ERC20InvalidReceiver",
      "type": "error"
    },
    {
      "inputs": [
        {
          "internalType": "address",
          "name": "sender",
          "type": "address"
        }
      ],
      "name": "ERC20InvalidSender",
      "type": "error"
    },
    {
      "inputs": [
        {
          "internalType": "address",
          "name": "spender",
          "type": "address"
        }
      ],
      "name": "ERC20InvalidSpender",
      "type": "error"
    },
    {
      "anonymous": false,
      "inputs": [
        {
          "indexed": true,
          "internalType": "address",
          "name": "owner",
          "type": "address"
        },
        {
          "indexed": true,
          "internalType": "address",
          "name": "spender",
          "type": "address"
        },
        {
          "indexed": false,
          "internalType": "uint256",
          "name": "value",
          "type": "uint256"
        }
      ],
      "name": "Approval",
      "type": "event"
    },
    {
      "anonymous": false,
      "inputs": [
        {
          "indexed": true,
          "internalType": "uint256",
          "name": "commitment",
          "type": "uint256"
        },
        {
          "indexed": false,
          "internalType": "uint256",
          "name": "amount",
          "type": "uint256"
        },
        {
          "indexed": false,
          "internalType": "uint256",
          "name": "index",
          "type": "uint256"
        }
      ],
      "name": "Burn",
      "type": "event"
    },
    {
      "anonymous": false,
      "inputs": [
        {
          "indexed": true,
          "internalType": "address",
          "name": "from",
          "type": "address"
        },
        {
          "indexed": true,
          "internalType": "address",
          "name": "to",
          "type": "address"
        },
        {
          "indexed": false,
          "internalType": "uint256",
          "name": "value",
          "type": "uint256"
        }
      ],
      "name": "Transfer",
      "type": "event"
    },
    {
      "inputs": [
        {
          "internalType": "uint256",
          "name": "_nullifier",
          "type": "uint256"
        },
        {
          "internalType": "uint256",
          "name": "_chainId",
          "type": "uint256"
        },
        {
          "internalType": "uint256",
          "name": "_amount",
          "type": "uint256"
        },
        {
          "internalType": "uint256",
          "name": "_gigaRoot",
          "type": "uint256"
        },
        {
          "internalType": "uint256",
          "name": "_localRoot",
          "type": "uint256"
        },
        {
          "internalType": "uint256",
          "name": "_feeFactor",
          "type": "uint256"
        },
        {
          "internalType": "uint256",
          "name": "_priorityFee",
          "type": "uint256"
        },
        {
          "internalType": "uint256",
          "name": "_maxFee",
          "type": "uint256"
        },
        {
          "internalType": "address",
          "name": "_relayer",
          "type": "address"
        },
        {
          "internalType": "address",
          "name": "_recipient",
          "type": "address"
        }
      ],
      "name": "_formatPublicInputs",
      "outputs": [
        {
          "internalType": "bytes32[]",
          "name": "",
          "type": "bytes32[]"
        }
      ],
      "stateMutability": "pure",
      "type": "function"
    },
    {
      "inputs": [
        {
          "internalType": "address",
          "name": "owner",
          "type": "address"
        },
        {
          "internalType": "address",
          "name": "spender",
          "type": "address"
        }
      ],
      "name": "allowance",
      "outputs": [
        {
          "internalType": "uint256",
          "name": "",
          "type": "uint256"
        }
      ],
      "stateMutability": "view",
      "type": "function"
    },
    {
      "inputs": [
        {
          "internalType": "address",
          "name": "spender",
          "type": "address"
        },
        {
          "internalType": "uint256",
          "name": "value",
          "type": "uint256"
        }
      ],
      "name": "approve",
      "outputs": [
        {
          "internalType": "bool",
          "name": "",
          "type": "bool"
        }
      ],
      "stateMutability": "nonpayable",
      "type": "function"
    },
    {
      "inputs": [
        {
          "internalType": "address",
          "name": "account",
          "type": "address"
        }
      ],
      "name": "balanceOf",
      "outputs": [
        {
          "internalType": "uint256",
          "name": "",
          "type": "uint256"
        }
      ],
      "stateMutability": "view",
      "type": "function"
    },
    {
      "inputs": [
        {
          "internalType": "uint256",
          "name": "_preCommitment",
          "type": "uint256"
        },
        {
          "internalType": "uint256",
          "name": "_amount",
          "type": "uint256"
        }
      ],
      "name": "burn",
      "outputs": [],
      "stateMutability": "nonpayable",
      "type": "function"
    },
    {
      "inputs": [],
      "name": "cachedLocalRoot",
      "outputs": [
        {
          "internalType": "uint256",
          "name": "",
          "type": "uint256"
        }
      ],
      "stateMutability": "view",
      "type": "function"
    },
    {
      "inputs": [],
      "name": "commitTreeData",
      "outputs": [
        {
          "internalType": "uint40",
          "name": "maxIndex",
          "type": "uint40"
        },
        {
          "internalType": "uint40",
          "name": "numberOfLeaves",
          "type": "uint40"
        }
      ],
      "stateMutability": "view",
      "type": "function"
    },
    {
      "inputs": [],
      "name": "decimals",
      "outputs": [
        {
          "internalType": "uint8",
          "name": "",
          "type": "uint8"
        }
      ],
      "stateMutability": "view",
      "type": "function"
    },
    {
      "inputs": [
        {
          "internalType": "uint256",
          "name": "_amount",
          "type": "uint256"
        }
      ],
      "name": "getFreeShit",
      "outputs": [],
      "stateMutability": "nonpayable",
      "type": "function"
    },
    {
      "inputs": [],
      "name": "getLocalRootAndBlock",
      "outputs": [
        {
          "internalType": "uint256",
          "name": "",
          "type": "uint256"
        },
        {
          "internalType": "uint256",
          "name": "",
          "type": "uint256"
        }
      ],
      "stateMutability": "nonpayable",
      "type": "function"
    },
    {
      "inputs": [],
      "name": "gigaRoot",
      "outputs": [
        {
          "internalType": "uint256",
          "name": "",
          "type": "uint256"
        }
      ],
      "stateMutability": "view",
      "type": "function"
    },
    {
      "inputs": [
        {
          "internalType": "uint256",
          "name": "",
          "type": "uint256"
        }
      ],
      "name": "gigaRootHistory",
      "outputs": [
        {
          "internalType": "bool",
          "name": "",
          "type": "bool"
        }
      ],
      "stateMutability": "view",
      "type": "function"
    },
    {
      "inputs": [],
      "name": "gigaRootProvider",
      "outputs": [
        {
          "internalType": "address",
          "name": "",
          "type": "address"
        }
      ],
      "stateMutability": "view",
      "type": "function"
    },
    {
      "inputs": [
        {
          "internalType": "address",
          "name": "_gigaRootProvider",
          "type": "address"
        },
        {
          "internalType": "address",
          "name": "_l1BridgeAdapter",
          "type": "address"
        }
      ],
      "name": "initialize",
      "outputs": [],
      "stateMutability": "nonpayable",
      "type": "function"
    },
    {
      "inputs": [
        {
          "internalType": "uint256",
          "name": "_gigaRoot",
          "type": "uint256"
        }
      ],
      "name": "isValidGigaRoot",
      "outputs": [
        {
          "internalType": "bool",
          "name": "",
          "type": "bool"
        }
      ],
      "stateMutability": "view",
      "type": "function"
    },
    {
      "inputs": [
        {
          "internalType": "uint256",
          "name": "_localRoot",
          "type": "uint256"
        }
      ],
      "name": "isValidLocalRoot",
      "outputs": [
        {
          "internalType": "bool",
          "name": "",
          "type": "bool"
        }
      ],
      "stateMutability": "view",
      "type": "function"
    },
    {
      "inputs": [],
      "name": "l1BridgeAdapter",
      "outputs": [
        {
          "internalType": "address",
          "name": "",
          "type": "address"
        }
      ],
      "stateMutability": "view",
      "type": "function"
    },
    {
      "inputs": [],
      "name": "lastLeafIndex",
      "outputs": [
        {
          "internalType": "uint256",
          "name": "",
          "type": "uint256"
        }
      ],
      "stateMutability": "view",
      "type": "function"
    },
    {
      "inputs": [],
      "name": "localRoot",
      "outputs": [
        {
          "internalType": "uint256",
          "name": "",
          "type": "uint256"
        }
      ],
      "stateMutability": "view",
      "type": "function"
    },
    {
      "inputs": [
        {
          "internalType": "uint256",
          "name": "",
          "type": "uint256"
        }
      ],
      "name": "localRootHistory",
      "outputs": [
        {
          "internalType": "bool",
          "name": "",
          "type": "bool"
        }
      ],
      "stateMutability": "view",
      "type": "function"
    },
    {
      "inputs": [],
      "name": "maxTreeDepth",
      "outputs": [
        {
          "internalType": "uint8",
          "name": "",
          "type": "uint8"
        }
      ],
      "stateMutability": "view",
      "type": "function"
    },
    {
      "inputs": [
        {
          "internalType": "uint256",
          "name": "_nullifier",
          "type": "uint256"
        },
        {
          "internalType": "uint256",
          "name": "_amount",
          "type": "uint256"
        },
        {
          "internalType": "uint256",
          "name": "_gigaRoot",
          "type": "uint256"
        },
        {
          "internalType": "uint256",
          "name": "_localRoot",
          "type": "uint256"
        },
        {
          "internalType": "uint256",
          "name": "_feeFactor",
          "type": "uint256"
        },
        {
          "internalType": "uint256",
          "name": "_priorityFee",
          "type": "uint256"
        },
        {
          "internalType": "uint256",
          "name": "_maxFee",
          "type": "uint256"
        },
        {
          "internalType": "address",
          "name": "_relayer",
          "type": "address"
        },
        {
          "internalType": "address",
          "name": "_recipient",
          "type": "address"
        },
        {
          "internalType": "bytes",
          "name": "_poof",
          "type": "bytes"
        }
      ],
      "name": "mint",
      "outputs": [],
      "stateMutability": "nonpayable",
      "type": "function"
    },
    {
      "inputs": [],
      "name": "name",
      "outputs": [
        {
          "internalType": "string",
          "name": "",
          "type": "string"
        }
      ],
      "stateMutability": "view",
      "type": "function"
    },
    {
      "inputs": [],
      "name": "nativeToken",
      "outputs": [
        {
          "internalType": "address",
          "name": "",
          "type": "address"
        }
      ],
      "stateMutability": "view",
      "type": "function"
    },
    {
      "inputs": [
        {
          "internalType": "uint256",
          "name": "_gigaRoot",
          "type": "uint256"
        }
      ],
      "name": "receiveGigaRoot",
      "outputs": [],
      "stateMutability": "payable",
      "type": "function"
    },
    {
      "inputs": [],
      "name": "storeLocalRootInHistory",
      "outputs": [
        {
          "internalType": "uint256",
          "name": "",
          "type": "uint256"
        }
      ],
      "stateMutability": "nonpayable",
      "type": "function"
    },
    {
      "inputs": [],
      "name": "symbol",
      "outputs": [
        {
          "internalType": "string",
          "name": "",
          "type": "string"
        }
      ],
      "stateMutability": "view",
      "type": "function"
    },
    {
      "inputs": [],
      "name": "totalSupply",
      "outputs": [
        {
          "internalType": "uint256",
          "name": "",
          "type": "uint256"
        }
      ],
      "stateMutability": "view",
      "type": "function"
    },
    {
      "inputs": [
        {
          "internalType": "address",
          "name": "to",
          "type": "address"
        },
        {
          "internalType": "uint256",
          "name": "value",
          "type": "uint256"
        }
      ],
      "name": "transfer",
      "outputs": [
        {
          "internalType": "bool",
          "name": "",
          "type": "bool"
        }
      ],
      "stateMutability": "nonpayable",
      "type": "function"
    },
    {
      "inputs": [
        {
          "internalType": "address",
          "name": "from",
          "type": "address"
        },
        {
          "internalType": "address",
          "name": "to",
          "type": "address"
        },
        {
          "internalType": "uint256",
          "name": "value",
          "type": "uint256"
        }
      ],
      "name": "transferFrom",
      "outputs": [
        {
          "internalType": "bool",
          "name": "",
          "type": "bool"
        }
      ],
      "stateMutability": "nonpayable",
      "type": "function"
    },
    {
      "inputs": [
        {
          "internalType": "uint256",
          "name": "_amount",
          "type": "uint256"
        }
      ],
      "name": "unwrap",
      "outputs": [],
      "stateMutability": "nonpayable",
      "type": "function"
    },
    {
      "inputs": [],
      "name": "withdrawVerifier",
      "outputs": [
        {
          "internalType": "address",
          "name": "",
          "type": "address"
        }
      ],
      "stateMutability": "view",
      "type": "function"
    },
    {
      "inputs": [
        {
          "internalType": "uint256",
          "name": "_amount",
          "type": "uint256"
        }
      ],
      "name": "wrap",
      "outputs": [],
      "stateMutability": "nonpayable",
      "type": "function"
    }
  ],
  "bytecode": "0x608060405234801561000f575f5ffd5b50604051611dab380380611dab83398101604081905261002e9161028e565b8484848484600361003f83826103af565b50600461004c82826103af565b50506008805460ff191660ff8616908117909155600f80546001600160a01b0319166001600160a01b038616179055604051631844db3b60e21b815260066004820152602481019190915273__$5fc44c2a7799c6ceb48acabb21e98687d0$__91506361136cec906044015f6040518083038186803b1580156100cd575f5ffd5b505af41580156100df573d5f5f3e3d5ffd5b5050601180546001600160a01b0385166001600160a01b0319918216179091556005805490911633179055506101159050610123565b505050505050505050610480565b5f8061012d610150565b60098190555f818152600c60205260409020805460ff1916600117905592915050565b6008546040516339ebe6e360e01b81526006600482015260ff90911660248201525f9073__$5fc44c2a7799c6ceb48acabb21e98687d0$__906339ebe6e390604401602060405180830381865af41580156101ad573d5f5f3e3d5ffd5b505050506040513d601f19601f820116820180604052508101906101d19190610469565b905090565b80516001600160a01b03811681146101ec575f5ffd5b919050565b634e487b7160e01b5f52604160045260245ffd5b5f82601f830112610214575f5ffd5b81516001600160401b0381111561022d5761022d6101f1565b604051601f8201601f19908116603f011681016001600160401b038111828210171561025b5761025b6101f1565b604052818152838201602001851015610272575f5ffd5b8160208501602083015e5f918101602001919091529392505050565b5f5f5f5f5f60a086880312156102a2575f5ffd5b855160ff811681146102b2575f5ffd5b94506102c0602087016101d6565b93506102ce604087016101d6565b60608701519093506001600160401b038111156102e9575f5ffd5b6102f588828901610205565b608088015190935090506001600160401b03811115610312575f5ffd5b61031e88828901610205565b9150509295509295909350565b600181811c9082168061033f57607f821691505b60208210810361035d57634e487b7160e01b5f52602260045260245ffd5b50919050565b601f8211156103aa57805f5260205f20601f840160051c810160208510156103885750805b601f840160051c820191505b818110156103a7575f8155600101610394565b50505b505050565b81516001600160401b038111156103c8576103c86101f1565b6103dc816103d6845461032b565b84610363565b6020601f82116001811461040e575f83156103f75750848201515b5f19600385901b1c1916600184901b1784556103a7565b5f84815260208120601f198516915b8281101561043d578785015182556020948501946001909201910161041d565b508482101561045a57868401515f19600387901b60f8161c191681555b50505050600190811b01905550565b5f60208284031215610479575f5ffd5b5051919050565b61191e8061048d5f395ff3fe6080604052600436106101f5575f3560e01c806370a0823111610117578063ae5582fa116100ac578063de0e9a3e1161007c578063e1758bd811610062578063e1758bd814610627578063e358270d14610646578063ea598cb014610674575f5ffd5b8063de0e9a3e146105f3578063df54fe5014610612575f5ffd5b8063ae5582fa1461054e578063b390c0ab14610577578063d3f9fa5114610596578063dd62ed3e146105af575f5ffd5b806395d89b41116100e757806395d89b41146104d05780639d1453e5146104e4578063a50410a914610510578063a9059cbb1461052f575f5ffd5b806370a0823114610449578063828f227a1461047d578063864eb16414610492578063882f624a146104b1575f5ffd5b806328b0c0aa1161018d578063485cc9551161015d578063485cc955146103b157806357c423e1146103d057806367f8da3a146103fe5780636b95cb0514610435575f5ffd5b806328b0c0aa1461033957806329c50fa91461034d5780632ffe1f2914610362578063313ce56714610390575f5ffd5b80631ec84e8e116101c85780631ec84e8e1461029157806323b872dd146102bf57806323f364c5146102de57806327e74ca314610326575f5ffd5b806306fdde03146101f9578063095ea7b3146102235780630c5312fc1461025257806318160ddd14610273575b5f5ffd5b348015610204575f5ffd5b5061020d610693565b60405161021a9190611497565b60405180910390f35b34801561022e575f5ffd5b5061024261023d3660046114cb565b610723565b604051901515815260200161021a565b34801561025d575f5ffd5b5061027161026c3660046114f3565b61073c565b005b34801561027e575f5ffd5b506002545b60405190815260200161021a565b34801561029c575f5ffd5b506102426102ab3660046114f3565b5f908152600c602052604090205460ff1690565b3480156102ca575f5ffd5b506102426102d936600461150a565b610749565b3480156102e9575f5ffd5b506006546103089064ffffffffff808216916501000000000090041682565b6040805164ffffffffff93841681529290911660208301520161021a565b6102716103343660046114f3565b61076c565b348015610344575f5ffd5b506102836107e8565b348015610358575f5ffd5b50610283600a5481565b34801561036d575f5ffd5b5061024261037c3660046114f3565b600c6020525f908152604090205460ff1681565b34801561039b575f5ffd5b5060065b60405160ff909116815260200161021a565b3480156103bc575f5ffd5b506102716103cb366004611544565b610887565b3480156103db575f5ffd5b506102426103ea3660046114f3565b600b6020525f908152604090205460ff1681565b348015610409575f5ffd5b50600e5461041d906001600160a01b031681565b6040516001600160a01b03909116815260200161021a565b348015610440575f5ffd5b506102836109d9565b348015610454575f5ffd5b50610283610463366004611575565b6001600160a01b03165f9081526020819052604090205490565b348015610488575f5ffd5b5061028360095481565b34801561049d575f5ffd5b50600f5461041d906001600160a01b031681565b3480156104bc575f5ffd5b50600d5461041d906001600160a01b031681565b3480156104db575f5ffd5b5061020d610a06565b3480156104ef575f5ffd5b506105036104fe36600461158e565b610a15565b60405161021a9190611644565b34801561051b575f5ffd5b5061027161052a36600461166a565b610b51565b34801561053a575f5ffd5b506102426105493660046114cb565b610dd7565b348015610559575f5ffd5b50610562610de4565b6040805192835260208301919091520161021a565b348015610582575f5ffd5b50610271610591366004611780565b610df9565b3480156105a1575f5ffd5b5060085461039f9060ff1681565b3480156105ba575f5ffd5b506102836105c9366004611544565b6001600160a01b039182165f90815260016020908152604080832093909416825291909152205490565b3480156105fe575f5ffd5b5061027161060d3660046114f3565b610f84565b34801561061d575f5ffd5b5061028360105481565b348015610632575f5ffd5b5060115461041d906001600160a01b031681565b348015610651575f5ffd5b506102426106603660046114f3565b5f908152600b602052604090205460ff1690565b34801561067f575f5ffd5b5061027161068e3660046114f3565b61101a565b6060600380546106a2906117a0565b80601f01602080910402602001604051908101604052809291908181526020018280546106ce906117a0565b80156107195780601f106106f057610100808354040283529160200191610719565b820191905f5260205f20905b8154815290600101906020018083116106fc57829003601f168201915b5050505050905090565b5f336107308185856110b6565b60019150505b92915050565b61074633826110c8565b50565b5f33610756858285611100565b610761858585611195565b506001949350505050565b600e546001600160a01b031633146107cb5760405162461bcd60e51b815260206004820152601460248201527f4e6f742067696761526f6f7450726f766964657200000000000000000000000060448201526064015b60405180910390fd5b5f818152600b60205260409020805460ff19166001179055600a55565b6008546040517f39ebe6e30000000000000000000000000000000000000000000000000000000081526006600482015260ff90911660248201525f9073__$5fc44c2a7799c6ceb48acabb21e98687d0$__906339ebe6e390604401602060405180830381865af415801561085e573d5f5f3e3d5ffd5b505050506040513d601f19601f8201168201806040525081019061088291906117d8565b905090565b6005546001600160a01b031633146108e15760405162461bcd60e51b815260206004820152601060248201527f4e6f7420746865206465706c6f7965720000000000000000000000000000000060448201526064016107c2565b600e546001600160a01b03161561093a5760405162461bcd60e51b815260206004820152601f60248201527f67696761526f6f7450726f766964657220697320616c7265616479207365740060448201526064016107c2565b600d546001600160a01b0316156109935760405162461bcd60e51b815260206004820152601e60248201527f6c314272696467654164617074657220697320616c726561647920736574000060448201526064016107c2565b600e80546001600160a01b039384167fffffffffffffffffffffffff000000000000000000000000000000000000000091821617909155600d8054929093169116179055565b5f5f6109e36107e8565b60098190555f818152600c60205260409020805460ff1916600117905592915050565b6060600480546106a2906117a0565b60408051600a80825261016082019092526060915f919060208201610140803683370190505060408051610100810182528e815260208082018f90528183018e9052606082018d9052608082018c905260a082018b905260c082018a905260e0820189905282518084019093526001600160a01b0380891684528716908301529192505f5b6008811015610ae157828160088110610ab557610ab56117ef565b60200201515f1b848281518110610ace57610ace6117ef565b6020908102919091010152600101610a9a565b5060085f5b6002811015610b3d57828160028110610b0157610b016117ef565b60200201516001600160a01b031685610b1a8385611817565b81518110610b2a57610b2a6117ef565b6020908102919091010152600101610ae6565b50929e9d5050505050505050505050505050565b5f888152600b602052604090205460ff16610bae5760405162461bcd60e51b815260206004820152601160248201527f5f67696761526f6f7420756e6b6e6f776e00000000000000000000000000000060448201526064016107c2565b5f878152600c602052604090205460ff16610c0b5760405162461bcd60e51b815260206004820152601260248201527f5f6c6f63616c526f6f7420756e6b6e6f776e000000000000000000000000000060448201526064016107c2565b5f610c1e8b468c8c8c8c8c8c8c8c610a15565b600f546040517fea50d0e40000000000000000000000000000000000000000000000000000000081529192506001600160a01b03169063ea50d0e490610c6a908590859060040161182a565b602060405180830381865afa158015610c85573d5f5f3e3d5ffd5b505050506040513d601f19601f82011682018060405250810190610ca99190611857565b610cf55760405162461bcd60e51b815260206004820152600d60248201527f696e76616c69642070726f6f660000000000000000000000000000000000000060448201526064016107c2565b8615610dc0575f610d068748611817565b610d109089611876565b905085811115610d885760405162461bcd60e51b815260206004820152602260248201527f5f72656c61796572466565206973206c6172676572207468616e205f6d61784660448201527f656500000000000000000000000000000000000000000000000000000000000060648201526084016107c2565b5f196001600160a01b03861601610d9d573394505b610da785826110c8565b610dba84610db5838e61188d565b6110c8565b50610dca565b610dca838b6110c8565b5050505050505050505050565b5f33610730818585611195565b5f5f610dee6109d9565b505060095491439150565b610e0333826111f2565b6040805180820182528381526020810183905290517f561558fe0000000000000000000000000000000000000000000000000000000081525f9173__$75f79a42d9bcbdbb69ad79ebd80f556f39$__9163561558fe91610e65916004016118a0565b602060405180830381865af4158015610e80573d5f5f3e3d5ffd5b505050506040513d601f19601f82011682018060405250810190610ea491906117d8565b6040517f0224ef5e000000000000000000000000000000000000000000000000000000008152600660048201526024810182905290915073__$5fc44c2a7799c6ceb48acabb21e98687d0$__90630224ef5e906044015f6040518083038186803b158015610f10575f5ffd5b505af4158015610f22573d5f5f3e3d5ffd5b50505050807f5af801e983cfd842de8b0797a2d6077db3ac2dea16571e0c7f5080291ca1b93483601054604051610f63929190918252602082015260400190565b60405180910390a260108054905f610f7a836118d0565b9190505550505050565b6011546040517fa9059cbb000000000000000000000000000000000000000000000000000000008152336004820152602481018390526001600160a01b039091169063a9059cbb906044016020604051808303815f875af1158015610feb573d5f5f3e3d5ffd5b505050506040513d601f19601f8201168201806040525081019061100f9190611857565b5061074630826111f2565b6011546040517f23b872dd000000000000000000000000000000000000000000000000000000008152336004820152306024820152604481018390526001600160a01b03909116906323b872dd906064016020604051808303815f875af1158015611087573d5f5f3e3d5ffd5b505050506040513d601f19601f820116820180604052508101906110ab9190611857565b5061074633826110c8565b6110c38383836001611226565b505050565b6001600160a01b0382166110f15760405163ec442f0560e01b81525f60048201526024016107c2565b6110fc5f838361132a565b5050565b6001600160a01b038381165f908152600160209081526040808320938616835292905220545f1981101561118f5781811015611181576040517ffb8f41b20000000000000000000000000000000000000000000000000000000081526001600160a01b038416600482015260248101829052604481018390526064016107c2565b61118f84848484035f611226565b50505050565b6001600160a01b0383166111be57604051634b637e8f60e11b81525f60048201526024016107c2565b6001600160a01b0382166111e75760405163ec442f0560e01b81525f60048201526024016107c2565b6110c383838361132a565b6001600160a01b03821661121b57604051634b637e8f60e11b81525f60048201526024016107c2565b6110fc825f8361132a565b6001600160a01b038416611268576040517fe602df050000000000000000000000000000000000000000000000000000000081525f60048201526024016107c2565b6001600160a01b0383166112aa576040517f94280d620000000000000000000000000000000000000000000000000000000081525f60048201526024016107c2565b6001600160a01b038085165f908152600160209081526040808320938716835292905220829055801561118f57826001600160a01b0316846001600160a01b03167f8c5be1e5ebec7d5bd14f71427d1e84f3dd0314c0f7b2291e5b200ac8c7c3b9258460405161131c91815260200190565b60405180910390a350505050565b6001600160a01b038316611354578060025f8282546113499190611817565b909155506113dd9050565b6001600160a01b0383165f90815260208190526040902054818110156113bf576040517fe450d38c0000000000000000000000000000000000000000000000000000000081526001600160a01b038516600482015260248101829052604481018390526064016107c2565b6001600160a01b0384165f9081526020819052604090209082900390555b6001600160a01b0382166113f957600280548290039055611417565b6001600160a01b0382165f9081526020819052604090208054820190555b816001600160a01b0316836001600160a01b03167fddf252ad1be2c89b69c2b068fc378daa952ba7f163c4a11628f55a4df523b3ef8360405161145c91815260200190565b60405180910390a3505050565b5f81518084528060208401602086015e5f602082860101526020601f19601f83011685010191505092915050565b602081525f6114a96020830184611469565b9392505050565b80356001600160a01b03811681146114c6575f5ffd5b919050565b5f5f604083850312156114dc575f5ffd5b6114e5836114b0565b946020939093013593505050565b5f60208284031215611503575f5ffd5b5035919050565b5f5f5f6060848603121561151c575f5ffd5b611525846114b0565b9250611533602085016114b0565b929592945050506040919091013590565b5f5f60408385031215611555575f5ffd5b61155e836114b0565b915061156c602084016114b0565b90509250929050565b5f60208284031215611585575f5ffd5b6114a9826114b0565b5f5f5f5f5f5f5f5f5f5f6101408b8d0312156115a8575f5ffd5b8a35995060208b0135985060408b0135975060608b0135965060808b0135955060a08b0135945060c08b0135935060e08b013592506115ea6101008c016114b0565b91506115f96101208c016114b0565b90509295989b9194979a5092959850565b5f8151808452602084019350602083015f5b8281101561163a57815186526020958601959091019060010161161c565b5093949350505050565b602081525f6114a9602083018461160a565b634e487b7160e01b5f52604160045260245ffd5b5f5f5f5f5f5f5f5f5f5f6101408b8d031215611684575f5ffd5b8a35995060208b0135985060408b0135975060608b0135965060808b0135955060a08b0135945060c08b013593506116be60e08c016114b0565b92506116cd6101008c016114b0565b91506101208b013567ffffffffffffffff8111156116e9575f5ffd5b8b01601f81018d136116f9575f5ffd5b803567ffffffffffffffff81111561171357611713611656565b604051601f8201601f19908116603f0116810167ffffffffffffffff8111828210171561174257611742611656565b6040528181528282016020018f1015611759575f5ffd5b816020840160208301375f602083830101528093505050509295989b9194979a5092959850565b5f5f60408385031215611791575f5ffd5b50508035926020909101359150565b600181811c908216806117b457607f821691505b6020821081036117d257634e487b7160e01b5f52602260045260245ffd5b50919050565b5f602082840312156117e8575f5ffd5b5051919050565b634e487b7160e01b5f52603260045260245ffd5b634e487b7160e01b5f52601160045260245ffd5b8082018082111561073657610736611803565b604081525f61183c6040830185611469565b828103602084015261184e818561160a565b95945050505050565b5f60208284031215611867575f5ffd5b815180151581146114a9575f5ffd5b808202811582820484141761073657610736611803565b8181038181111561073657610736611803565b6040810181835f5b60028110156118c75781518352602092830192909101906001016118a8565b50505092915050565b5f600182016118e1576118e1611803565b506001019056fea2646970667358221220ccaf925057cbceb7e13b1b34af183b023bd86e99b61f5ba1cf470b26ce00df1e64736f6c634300081d0033",
  "linkReferences": {
    "@zk-kit/lazy-imt.sol/LazyIMT.sol": {
      "LazyIMT": [
        {
          "length": 20,
          "start": 153
        },
        {
          "length": 20,
          "start": 373
        },
        {
          "length": 20,
          "start": 3251
        },
        {
          "length": 20,
          "start": 4970
        }
      ]
    },
    "poseidon-solidity/PoseidonT3.sol": {
      "PoseidonT3": [
        {
          "length": 20,
          "start": 4812
        }
      ]
    }
  },
  "deployedLinkReferences": {
    "@zk-kit/lazy-imt.sol/LazyIMT.sol": {
      "LazyIMT": [
        {
          "length": 20,
          "start": 2086
        },
        {
          "length": 20,
          "start": 3805
        }
      ]
    },
    "poseidon-solidity/PoseidonT3.sol": {
      "PoseidonT3": [
        {
          "length": 20,
          "start": 3647
        }
      ]
    }
  }
}