{
  "_format": "hh-sol-artifact-1",
  "contractName": "L1WarpToad",
  "sourceName": "contracts/evm/warptoad/L1WarpToad.sol",
  "abi": [
    {
      "inputs": [
        {
          "internalType": "uint8",
          "name": "_maxTreeDepth",
          "type": "uint8"
        },
        {
          "internalType": "address",
          "name": "_withdrawVerifier",
          "type": "address"
        },
        {
          "internalType": "address",
          "name": "_nativeToken",
          "type": "address"
        },
        {
          "internalType": "string",
          "name": "name",
          "type": "string"
        },
        {
          "internalType": "string",
          "name": "symbol",
          "type": "string"
        }
      ],
      "stateMutability": "nonpayable",
      "type": "constructor"
    },
    {
      "inputs": [
        {
          "internalType": "address",
          "name": "spender",
          "type": "address"
        },
        {
          "internalType": "uint256",
          "name": "allowance",
          "type": "uint256"
        },
        {
          "internalType": "uint256",
          "name": "needed",
          "type": "uint256"
        }
      ],
      "name": "ERC20InsufficientAllowance",
      "type": "error"
    },
    {
      "inputs": [
        {
          "internalType": "address",
          "name": "sender",
          "type": "address"
        },
        {
          "internalType": "uint256",
          "name": "balance",
          "type": "uint256"
        },
        {
          "internalType": "uint256",
          "name": "needed",
          "type": "uint256"
        }
      ],
      "name": "ERC20InsufficientBalance",
      "type": "error"
    },
    {
      "inputs": [
        {
          "internalType": "address",
          "name": "approver",
          "type": "address"
        }
      ],
      "name": "ERC20InvalidApprover",
      "type": "error"
    },
    {
      "inputs": [
        {
          "internalType": "address",
          "name": "receiver",
          "type": "address"
        }
      ],
      "name": "ERC20InvalidReceiver",
      "type": "error"
    },
    {
      "inputs": [
        {
          "internalType": "address",
          "name": "sender",
          "type": "address"
        }
      ],
      "name": "ERC20InvalidSender",
      "type": "error"
    },
    {
      "inputs": [
        {
          "internalType": "address",
          "name": "spender",
          "type": "address"
        }
      ],
      "name": "ERC20InvalidSpender",
      "type": "error"
    },
    {
      "anonymous": false,
      "inputs": [
        {
          "indexed": true,
          "internalType": "address",
          "name": "owner",
          "type": "address"
        },
        {
          "indexed": true,
          "internalType": "address",
          "name": "spender",
          "type": "address"
        },
        {
          "indexed": false,
          "internalType": "uint256",
          "name": "value",
          "type": "uint256"
        }
      ],
      "name": "Approval",
      "type": "event"
    },
    {
      "anonymous": false,
      "inputs": [
        {
          "indexed": true,
          "internalType": "uint256",
          "name": "commitment",
          "type": "uint256"
        },
        {
          "indexed": false,
          "internalType": "uint256",
          "name": "amount",
          "type": "uint256"
        },
        {
          "indexed": false,
          "internalType": "uint256",
          "name": "index",
          "type": "uint256"
        }
      ],
      "name": "Burn",
      "type": "event"
    },
    {
      "anonymous": false,
      "inputs": [
        {
          "indexed": true,
          "internalType": "address",
          "name": "from",
          "type": "address"
        },
        {
          "indexed": true,
          "internalType": "address",
          "name": "to",
          "type": "address"
        },
        {
          "indexed": false,
          "internalType": "uint256",
          "name": "value",
          "type": "uint256"
        }
      ],
      "name": "Transfer",
      "type": "event"
    },
    {
      "inputs": [
        {
          "internalType": "uint256",
          "name": "_nullifier",
          "type": "uint256"
        },
        {
          "internalType": "uint256",
          "name": "_chainId",
          "type": "uint256"
        },
        {
          "internalType": "uint256",
          "name": "_amount",
          "type": "uint256"
        },
        {
          "internalType": "uint256",
          "name": "_gigaRoot",
          "type": "uint256"
        },
        {
          "internalType": "uint256",
          "name": "_localRoot",
          "type": "uint256"
        },
        {
          "internalType": "uint256",
          "name": "_feeFactor",
          "type": "uint256"
        },
        {
          "internalType": "uint256",
          "name": "_priorityFee",
          "type": "uint256"
        },
        {
          "internalType": "uint256",
          "name": "_maxFee",
          "type": "uint256"
        },
        {
          "internalType": "address",
          "name": "_relayer",
          "type": "address"
        },
        {
          "internalType": "address",
          "name": "_recipient",
          "type": "address"
        }
      ],
      "name": "_formatPublicInputs",
      "outputs": [
        {
          "internalType": "bytes32[]",
          "name": "",
          "type": "bytes32[]"
        }
      ],
      "stateMutability": "pure",
      "type": "function"
    },
    {
      "inputs": [
        {
          "internalType": "address",
          "name": "owner",
          "type": "address"
        },
        {
          "internalType": "address",
          "name": "spender",
          "type": "address"
        }
      ],
      "name": "allowance",
      "outputs": [
        {
          "internalType": "uint256",
          "name": "",
          "type": "uint256"
        }
      ],
      "stateMutability": "view",
      "type": "function"
    },
    {
      "inputs": [
        {
          "internalType": "address",
          "name": "spender",
          "type": "address"
        },
        {
          "internalType": "uint256",
          "name": "value",
          "type": "uint256"
        }
      ],
      "name": "approve",
      "outputs": [
        {
          "internalType": "bool",
          "name": "",
          "type": "bool"
        }
      ],
      "stateMutability": "nonpayable",
      "type": "function"
    },
    {
      "inputs": [
        {
          "internalType": "address",
          "name": "account",
          "type": "address"
        }
      ],
      "name": "balanceOf",
      "outputs": [
        {
          "internalType": "uint256",
          "name": "",
          "type": "uint256"
        }
      ],
      "stateMutability": "view",
      "type": "function"
    },
    {
      "inputs": [
        {
          "internalType": "uint256",
          "name": "_preCommitment",
          "type": "uint256"
        },
        {
          "internalType": "uint256",
          "name": "_amount",
          "type": "uint256"
        }
      ],
      "name": "burn",
      "outputs": [],
      "stateMutability": "nonpayable",
      "type": "function"
    },
    {
      "inputs": [],
      "name": "cachedLocalRoot",
      "outputs": [
        {
          "internalType": "uint256",
          "name": "",
          "type": "uint256"
        }
      ],
      "stateMutability": "view",
      "type": "function"
    },
    {
      "inputs": [],
      "name": "commitTreeData",
      "outputs": [
        {
          "internalType": "uint40",
          "name": "maxIndex",
          "type": "uint40"
        },
        {
          "internalType": "uint40",
          "name": "numberOfLeaves",
          "type": "uint40"
        }
      ],
      "stateMutability": "view",
      "type": "function"
    },
    {
      "inputs": [],
      "name": "decimals",
      "outputs": [
        {
          "internalType": "uint8",
          "name": "",
          "type": "uint8"
        }
      ],
      "stateMutability": "view",
      "type": "function"
    },
    {
      "inputs": [],
      "name": "getLocalRootAndBlock",
      "outputs": [
        {
          "internalType": "uint256",
          "name": "",
          "type": "uint256"
        },
        {
          "internalType": "uint256",
          "name": "",
          "type": "uint256"
        }
      ],
      "stateMutability": "nonpayable",
      "type": "function"
    },
    {
      "inputs": [],
      "name": "gigaRoot",
      "outputs": [
        {
          "internalType": "uint256",
          "name": "",
          "type": "uint256"
        }
      ],
      "stateMutability": "view",
      "type": "function"
    },
    {
      "inputs": [
        {
          "internalType": "uint256",
          "name": "",
          "type": "uint256"
        }
      ],
      "name": "gigaRootHistory",
      "outputs": [
        {
          "internalType": "bool",
          "name": "",
          "type": "bool"
        }
      ],
      "stateMutability": "view",
      "type": "function"
    },
    {
      "inputs": [],
      "name": "gigaRootProvider",
      "outputs": [
        {
          "internalType": "address",
          "name": "",
          "type": "address"
        }
      ],
      "stateMutability": "view",
      "type": "function"
    },
    {
      "inputs": [
        {
          "internalType": "address",
          "name": "_gigaRootProvider",
          "type": "address"
        },
        {
          "internalType": "address",
          "name": "_l1BridgeAdapter",
          "type": "address"
        }
      ],
      "name": "initialize",
      "outputs": [],
      "stateMutability": "nonpayable",
      "type": "function"
    },
    {
      "inputs": [
        {
          "internalType": "uint256",
          "name": "_gigaRoot",
          "type": "uint256"
        }
      ],
      "name": "isValidGigaRoot",
      "outputs": [
        {
          "internalType": "bool",
          "name": "",
          "type": "bool"
        }
      ],
      "stateMutability": "view",
      "type": "function"
    },
    {
      "inputs": [
        {
          "internalType": "uint256",
          "name": "_localRoot",
          "type": "uint256"
        }
      ],
      "name": "isValidLocalRoot",
      "outputs": [
        {
          "internalType": "bool",
          "name": "",
          "type": "bool"
        }
      ],
      "stateMutability": "view",
      "type": "function"
    },
    {
      "inputs": [],
      "name": "l1BridgeAdapter",
      "outputs": [
        {
          "internalType": "address",
          "name": "",
          "type": "address"
        }
      ],
      "stateMutability": "view",
      "type": "function"
    },
    {
      "inputs": [],
      "name": "lastLeafIndex",
      "outputs": [
        {
          "internalType": "uint256",
          "name": "",
          "type": "uint256"
        }
      ],
      "stateMutability": "view",
      "type": "function"
    },
    {
      "inputs": [],
      "name": "localRoot",
      "outputs": [
        {
          "internalType": "uint256",
          "name": "",
          "type": "uint256"
        }
      ],
      "stateMutability": "view",
      "type": "function"
    },
    {
      "inputs": [
        {
          "internalType": "uint256",
          "name": "",
          "type": "uint256"
        }
      ],
      "name": "localRootHistory",
      "outputs": [
        {
          "internalType": "bool",
          "name": "",
          "type": "bool"
        }
      ],
      "stateMutability": "view",
      "type": "function"
    },
    {
      "inputs": [],
      "name": "maxTreeDepth",
      "outputs": [
        {
          "internalType": "uint8",
          "name": "",
          "type": "uint8"
        }
      ],
      "stateMutability": "view",
      "type": "function"
    },
    {
      "inputs": [
        {
          "internalType": "uint256",
          "name": "_nullifier",
          "type": "uint256"
        },
        {
          "internalType": "uint256",
          "name": "_amount",
          "type": "uint256"
        },
        {
          "internalType": "uint256",
          "name": "_gigaRoot",
          "type": "uint256"
        },
        {
          "internalType": "uint256",
          "name": "_localRoot",
          "type": "uint256"
        },
        {
          "internalType": "uint256",
          "name": "_feeFactor",
          "type": "uint256"
        },
        {
          "internalType": "uint256",
          "name": "_priorityFee",
          "type": "uint256"
        },
        {
          "internalType": "uint256",
          "name": "_maxFee",
          "type": "uint256"
        },
        {
          "internalType": "address",
          "name": "_relayer",
          "type": "address"
        },
        {
          "internalType": "address",
          "name": "_recipient",
          "type": "address"
        },
        {
          "internalType": "bytes",
          "name": "_poof",
          "type": "bytes"
        }
      ],
      "name": "mint",
      "outputs": [],
      "stateMutability": "nonpayable",
      "type": "function"
    },
    {
      "inputs": [],
      "name": "name",
      "outputs": [
        {
          "internalType": "string",
          "name": "",
          "type": "string"
        }
      ],
      "stateMutability": "view",
      "type": "function"
    },
    {
      "inputs": [],
      "name": "nativeToken",
      "outputs": [
        {
          "internalType": "address",
          "name": "",
          "type": "address"
        }
      ],
      "stateMutability": "view",
      "type": "function"
    },
    {
      "inputs": [
        {
          "internalType": "uint256",
          "name": "_gigaRoot",
          "type": "uint256"
        }
      ],
      "name": "receiveGigaRoot",
      "outputs": [],
      "stateMutability": "nonpayable",
      "type": "function"
    },
    {
      "inputs": [],
      "name": "storeLocalRootInHistory",
      "outputs": [
        {
          "internalType": "uint256",
          "name": "",
          "type": "uint256"
        }
      ],
      "stateMutability": "nonpayable",
      "type": "function"
    },
    {
      "inputs": [],
      "name": "symbol",
      "outputs": [
        {
          "internalType": "string",
          "name": "",
          "type": "string"
        }
      ],
      "stateMutability": "view",
      "type": "function"
    },
    {
      "inputs": [],
      "name": "totalSupply",
      "outputs": [
        {
          "internalType": "uint256",
          "name": "",
          "type": "uint256"
        }
      ],
      "stateMutability": "view",
      "type": "function"
    },
    {
      "inputs": [
        {
          "internalType": "address",
          "name": "to",
          "type": "address"
        },
        {
          "internalType": "uint256",
          "name": "value",
          "type": "uint256"
        }
      ],
      "name": "transfer",
      "outputs": [
        {
          "internalType": "bool",
          "name": "",
          "type": "bool"
        }
      ],
      "stateMutability": "nonpayable",
      "type": "function"
    },
    {
      "inputs": [
        {
          "internalType": "address",
          "name": "from",
          "type": "address"
        },
        {
          "internalType": "address",
          "name": "to",
          "type": "address"
        },
        {
          "internalType": "uint256",
          "name": "value",
          "type": "uint256"
        }
      ],
      "name": "transferFrom",
      "outputs": [
        {
          "internalType": "bool",
          "name": "",
          "type": "bool"
        }
      ],
      "stateMutability": "nonpayable",
      "type": "function"
    },
    {
      "inputs": [
        {
          "internalType": "uint256",
          "name": "_amount",
          "type": "uint256"
        }
      ],
      "name": "unwrap",
      "outputs": [],
      "stateMutability": "nonpayable",
      "type": "function"
    },
    {
      "inputs": [],
      "name": "withdrawVerifier",
      "outputs": [
        {
          "internalType": "address",
          "name": "",
          "type": "address"
        }
      ],
      "stateMutability": "view",
      "type": "function"
    },
    {
      "inputs": [
        {
          "internalType": "uint256",
          "name": "_amount",
          "type": "uint256"
        }
      ],
      "name": "wrap",
      "outputs": [],
      "stateMutability": "nonpayable",
      "type": "function"
    }
  ],
  "bytecode": "0x608060405234801561000f575f5ffd5b50604051611c00380380611c0083398101604081905261002e9161028e565b8484848484600361003f83826103af565b50600461004c82826103af565b50506008805460ff191660ff8616908117909155600f80546001600160a01b0319166001600160a01b038616179055604051631844db3b60e21b815260066004820152602481019190915273__$5fc44c2a7799c6ceb48acabb21e98687d0$__91506361136cec906044015f6040518083038186803b1580156100cd575f5ffd5b505af41580156100df573d5f5f3e3d5ffd5b5050601180546001600160a01b0385166001600160a01b0319918216179091556005805490911633179055506101159050610123565b505050505050505050610480565b5f8061012d610150565b60098190555f818152600c60205260409020805460ff1916600117905592915050565b6008546040516339ebe6e360e01b81526006600482015260ff90911660248201525f9073__$5fc44c2a7799c6ceb48acabb21e98687d0$__906339ebe6e390604401602060405180830381865af41580156101ad573d5f5f3e3d5ffd5b505050506040513d601f19601f820116820180604052508101906101d19190610469565b905090565b80516001600160a01b03811681146101ec575f5ffd5b919050565b634e487b7160e01b5f52604160045260245ffd5b5f82601f830112610214575f5ffd5b81516001600160401b0381111561022d5761022d6101f1565b604051601f8201601f19908116603f011681016001600160401b038111828210171561025b5761025b6101f1565b604052818152838201602001851015610272575f5ffd5b8160208501602083015e5f918101602001919091529392505050565b5f5f5f5f5f60a086880312156102a2575f5ffd5b855160ff811681146102b2575f5ffd5b94506102c0602087016101d6565b93506102ce604087016101d6565b60608701519093506001600160401b038111156102e9575f5ffd5b6102f588828901610205565b608088015190935090506001600160401b03811115610312575f5ffd5b61031e88828901610205565b9150509295509295909350565b600181811c9082168061033f57607f821691505b60208210810361035d57634e487b7160e01b5f52602260045260245ffd5b50919050565b601f8211156103aa57805f5260205f20601f840160051c810160208510156103885750805b601f840160051c820191505b818110156103a7575f8155600101610394565b50505b505050565b81516001600160401b038111156103c8576103c86101f1565b6103dc816103d6845461032b565b84610363565b6020601f82116001811461040e575f83156103f75750848201515b5f19600385901b1c1916600184901b1784556103a7565b5f84815260208120601f198516915b8281101561043d578785015182556020948501946001909201910161041d565b508482101561045a57868401515f19600387901b60f8161c191681555b50505050600190811b01905550565b5f60208284031215610479575f5ffd5b5051919050565b6117738061048d5f395ff3fe608060405234801561000f575f5ffd5b50600436106101e7575f3560e01c8063828f227a11610109578063b390c0ab1161009e578063df54fe501161006e578063df54fe50146104a1578063e1758bd8146104aa578063e358270d146104bd578063ea598cb0146104df575f5ffd5b8063b390c0ab14610436578063d3f9fa5114610449578063dd62ed3e14610456578063de0e9a3e1461048e575f5ffd5b80639d1453e5116100d95780639d1453e5146103d3578063a50410a9146103f3578063a9059cbb14610406578063ae5582fa14610419575f5ffd5b8063828f227a1461039c578063864eb164146103a5578063882f624a146103b857806395d89b41146103cb575f5ffd5b806329c50fa91161017f57806357c423e11161014f57806357c423e11461031f57806367f8da3a146103415780636b95cb051461036c57806370a0823114610374575f5ffd5b806329c50fa9146102cc5780632ffe1f29146102d5578063313ce567146102f7578063485cc9551461030c575f5ffd5b806323b872dd116101ba57806323b872dd1461026057806323f364c51461027357806327e74ca3146102af57806328b0c0aa146102c4575f5ffd5b806306fdde03146101eb578063095ea7b31461020957806318160ddd1461022c5780631ec84e8e1461023e575b5f5ffd5b6101f36104f2565b60405161020091906112ec565b60405180910390f35b61021c610217366004611320565b610582565b6040519015158152602001610200565b6002545b604051908152602001610200565b61021c61024c366004611348565b5f908152600c602052604090205460ff1690565b61021c61026e36600461135f565b61059b565b6006546102919064ffffffffff808216916501000000000090041682565b6040805164ffffffffff938416815292909116602083015201610200565b6102c26102bd366004611348565b6105be565b005b61023061063a565b610230600a5481565b61021c6102e3366004611348565b600c6020525f908152604090205460ff1681565b60125b60405160ff9091168152602001610200565b6102c261031a366004611399565b6106d9565b61021c61032d366004611348565b600b6020525f908152604090205460ff1681565b600e54610354906001600160a01b031681565b6040516001600160a01b039091168152602001610200565b61023061082b565b6102306103823660046113ca565b6001600160a01b03165f9081526020819052604090205490565b61023060095481565b600f54610354906001600160a01b031681565b600d54610354906001600160a01b031681565b6101f3610858565b6103e66103e13660046113e3565b610867565b6040516102009190611499565b6102c26104013660046114bf565b6109a3565b61021c610414366004611320565b610c29565b610421610c36565b60408051928352602083019190915201610200565b6102c26104443660046115d5565b610c4b565b6008546102fa9060ff1681565b610230610464366004611399565b6001600160a01b039182165f90815260016020908152604080832093909416825291909152205490565b6102c261049c366004611348565b610dd6565b61023060105481565b601154610354906001600160a01b031681565b61021c6104cb366004611348565b5f908152600b602052604090205460ff1690565b6102c26104ed366004611348565b610e6f565b606060038054610501906115f5565b80601f016020809104026020016040519081016040528092919081815260200182805461052d906115f5565b80156105785780601f1061054f57610100808354040283529160200191610578565b820191905f5260205f20905b81548152906001019060200180831161055b57829003601f168201915b5050505050905090565b5f3361058f818585610f0b565b60019150505b92915050565b5f336105a8858285610f1d565b6105b3858585610fb2565b506001949350505050565b600e546001600160a01b0316331461061d5760405162461bcd60e51b815260206004820152601460248201527f4e6f742067696761526f6f7450726f766964657200000000000000000000000060448201526064015b60405180910390fd5b5f818152600b60205260409020805460ff19166001179055600a55565b6008546040517f39ebe6e30000000000000000000000000000000000000000000000000000000081526006600482015260ff90911660248201525f9073__$5fc44c2a7799c6ceb48acabb21e98687d0$__906339ebe6e390604401602060405180830381865af41580156106b0573d5f5f3e3d5ffd5b505050506040513d601f19601f820116820180604052508101906106d4919061162d565b905090565b6005546001600160a01b031633146107335760405162461bcd60e51b815260206004820152601060248201527f4e6f7420746865206465706c6f796572000000000000000000000000000000006044820152606401610614565b600e546001600160a01b03161561078c5760405162461bcd60e51b815260206004820152601f60248201527f67696761526f6f7450726f766964657220697320616c726561647920736574006044820152606401610614565b600d546001600160a01b0316156107e55760405162461bcd60e51b815260206004820152601e60248201527f6c314272696467654164617074657220697320616c72656164792073657400006044820152606401610614565b600e80546001600160a01b039384167fffffffffffffffffffffffff000000000000000000000000000000000000000091821617909155600d8054929093169116179055565b5f5f61083561063a565b60098190555f818152600c60205260409020805460ff1916600117905592915050565b606060048054610501906115f5565b60408051600a80825261016082019092526060915f919060208201610140803683370190505060408051610100810182528e815260208082018f90528183018e9052606082018d9052608082018c905260a082018b905260c082018a905260e0820189905282518084019093526001600160a01b0380891684528716908301529192505f5b60088110156109335782816008811061090757610907611644565b60200201515f1b84828151811061092057610920611644565b60209081029190910101526001016108ec565b5060085f5b600281101561098f5782816002811061095357610953611644565b60200201516001600160a01b03168561096c838561166c565b8151811061097c5761097c611644565b6020908102919091010152600101610938565b50929e9d5050505050505050505050505050565b5f888152600b602052604090205460ff16610a005760405162461bcd60e51b815260206004820152601160248201527f5f67696761526f6f7420756e6b6e6f776e0000000000000000000000000000006044820152606401610614565b5f878152600c602052604090205460ff16610a5d5760405162461bcd60e51b815260206004820152601260248201527f5f6c6f63616c526f6f7420756e6b6e6f776e00000000000000000000000000006044820152606401610614565b5f610a708b468c8c8c8c8c8c8c8c610867565b600f546040517fea50d0e40000000000000000000000000000000000000000000000000000000081529192506001600160a01b03169063ea50d0e490610abc908590859060040161167f565b602060405180830381865afa158015610ad7573d5f5f3e3d5ffd5b505050506040513d601f19601f82011682018060405250810190610afb91906116ac565b610b475760405162461bcd60e51b815260206004820152600d60248201527f696e76616c69642070726f6f66000000000000000000000000000000000000006044820152606401610614565b8615610c12575f610b58874861166c565b610b6290896116cb565b905085811115610bda5760405162461bcd60e51b815260206004820152602260248201527f5f72656c61796572466565206973206c6172676572207468616e205f6d61784660448201527f65650000000000000000000000000000000000000000000000000000000000006064820152608401610614565b5f196001600160a01b03861601610bef573394505b610bf9858261100f565b610c0c84610c07838e6116e2565b61100f565b50610c1c565b610c1c838b61100f565b5050505050505050505050565b5f3361058f818585610fb2565b5f5f610c4061082b565b505060095491439150565b610c553382611047565b6040805180820182528381526020810183905290517f561558fe0000000000000000000000000000000000000000000000000000000081525f9173__$75f79a42d9bcbdbb69ad79ebd80f556f39$__9163561558fe91610cb7916004016116f5565b602060405180830381865af4158015610cd2573d5f5f3e3d5ffd5b505050506040513d601f19601f82011682018060405250810190610cf6919061162d565b6040517f0224ef5e000000000000000000000000000000000000000000000000000000008152600660048201526024810182905290915073__$5fc44c2a7799c6ceb48acabb21e98687d0$__90630224ef5e906044015f6040518083038186803b158015610d62575f5ffd5b505af4158015610d74573d5f5f3e3d5ffd5b50505050807f5af801e983cfd842de8b0797a2d6077db3ac2dea16571e0c7f5080291ca1b93483601054604051610db5929190918252602082015260400190565b60405180910390a260108054905f610dcc83611725565b9190505550505050565b6011546040517fa9059cbb000000000000000000000000000000000000000000000000000000008152336004820152602481018390526001600160a01b039091169063a9059cbb906044016020604051808303815f875af1158015610e3d573d5f5f3e3d5ffd5b505050506040513d601f19601f82011682018060405250810190610e6191906116ac565b50610e6c3082611047565b50565b6011546040517f23b872dd000000000000000000000000000000000000000000000000000000008152336004820152306024820152604481018390526001600160a01b03909116906323b872dd906064016020604051808303815f875af1158015610edc573d5f5f3e3d5ffd5b505050506040513d601f19601f82011682018060405250810190610f0091906116ac565b50610e6c338261100f565b610f18838383600161107b565b505050565b6001600160a01b038381165f908152600160209081526040808320938616835292905220545f19811015610fac5781811015610f9e576040517ffb8f41b20000000000000000000000000000000000000000000000000000000081526001600160a01b03841660048201526024810182905260448101839052606401610614565b610fac84848484035f61107b565b50505050565b6001600160a01b038316610fdb57604051634b637e8f60e11b81525f6004820152602401610614565b6001600160a01b0382166110045760405163ec442f0560e01b81525f6004820152602401610614565b610f1883838361117f565b6001600160a01b0382166110385760405163ec442f0560e01b81525f6004820152602401610614565b6110435f838361117f565b5050565b6001600160a01b03821661107057604051634b637e8f60e11b81525f6004820152602401610614565b611043825f8361117f565b6001600160a01b0384166110bd576040517fe602df050000000000000000000000000000000000000000000000000000000081525f6004820152602401610614565b6001600160a01b0383166110ff576040517f94280d620000000000000000000000000000000000000000000000000000000081525f6004820152602401610614565b6001600160a01b038085165f9081526001602090815260408083209387168352929052208290558015610fac57826001600160a01b0316846001600160a01b03167f8c5be1e5ebec7d5bd14f71427d1e84f3dd0314c0f7b2291e5b200ac8c7c3b9258460405161117191815260200190565b60405180910390a350505050565b6001600160a01b0383166111a9578060025f82825461119e919061166c565b909155506112329050565b6001600160a01b0383165f9081526020819052604090205481811015611214576040517fe450d38c0000000000000000000000000000000000000000000000000000000081526001600160a01b03851660048201526024810182905260448101839052606401610614565b6001600160a01b0384165f9081526020819052604090209082900390555b6001600160a01b03821661124e5760028054829003905561126c565b6001600160a01b0382165f9081526020819052604090208054820190555b816001600160a01b0316836001600160a01b03167fddf252ad1be2c89b69c2b068fc378daa952ba7f163c4a11628f55a4df523b3ef836040516112b191815260200190565b60405180910390a3505050565b5f81518084528060208401602086015e5f602082860101526020601f19601f83011685010191505092915050565b602081525f6112fe60208301846112be565b9392505050565b80356001600160a01b038116811461131b575f5ffd5b919050565b5f5f60408385031215611331575f5ffd5b61133a83611305565b946020939093013593505050565b5f60208284031215611358575f5ffd5b5035919050565b5f5f5f60608486031215611371575f5ffd5b61137a84611305565b925061138860208501611305565b929592945050506040919091013590565b5f5f604083850312156113aa575f5ffd5b6113b383611305565b91506113c160208401611305565b90509250929050565b5f602082840312156113da575f5ffd5b6112fe82611305565b5f5f5f5f5f5f5f5f5f5f6101408b8d0312156113fd575f5ffd5b8a35995060208b0135985060408b0135975060608b0135965060808b0135955060a08b0135945060c08b0135935060e08b0135925061143f6101008c01611305565b915061144e6101208c01611305565b90509295989b9194979a5092959850565b5f8151808452602084019350602083015f5b8281101561148f578151865260209586019590910190600101611471565b5093949350505050565b602081525f6112fe602083018461145f565b634e487b7160e01b5f52604160045260245ffd5b5f5f5f5f5f5f5f5f5f5f6101408b8d0312156114d9575f5ffd5b8a35995060208b0135985060408b0135975060608b0135965060808b0135955060a08b0135945060c08b0135935061151360e08c01611305565b92506115226101008c01611305565b91506101208b013567ffffffffffffffff81111561153e575f5ffd5b8b01601f81018d1361154e575f5ffd5b803567ffffffffffffffff811115611568576115686114ab565b604051601f8201601f19908116603f0116810167ffffffffffffffff81118282101715611597576115976114ab565b6040528181528282016020018f10156115ae575f5ffd5b816020840160208301375f602083830101528093505050509295989b9194979a5092959850565b5f5f604083850312156115e6575f5ffd5b50508035926020909101359150565b600181811c9082168061160957607f821691505b60208210810361162757634e487b7160e01b5f52602260045260245ffd5b50919050565b5f6020828403121561163d575f5ffd5b5051919050565b634e487b7160e01b5f52603260045260245ffd5b634e487b7160e01b5f52601160045260245ffd5b8082018082111561059557610595611658565b604081525f61169160408301856112be565b82810360208401526116a3818561145f565b95945050505050565b5f602082840312156116bc575f5ffd5b815180151581146112fe575f5ffd5b808202811582820484141761059557610595611658565b8181038181111561059557610595611658565b6040810181835f5b600281101561171c5781518352602092830192909101906001016116fd565b50505092915050565b5f6001820161173657611736611658565b506001019056fea2646970667358221220a2efa53112b199a145278d8ef82eeab07f85240a56e7e59e3256afce6d50552d64736f6c634300081d0033",
  "linkReferences": {
    "@zk-kit/lazy-imt.sol/LazyIMT.sol": {
      "LazyIMT": [
        {
          "length": 20,
          "start": 153
        },
        {
          "length": 20,
          "start": 373
        },
        {
          "length": 20,
          "start": 2821
        },
        {
          "length": 20,
          "start": 4540
        }
      ]
    },
    "poseidon-solidity/PoseidonT3.sol": {
      "PoseidonT3": [
        {
          "length": 20,
          "start": 4382
        }
      ]
    }
  },
  "deployedLinkReferences": {
    "@zk-kit/lazy-imt.sol/LazyIMT.sol": {
      "LazyIMT": [
        {
          "length": 20,
          "start": 1656
        },
        {
          "length": 20,
          "start": 3375
        }
      ]
    },
    "poseidon-solidity/PoseidonT3.sol": {
      "PoseidonT3": [
        {
          "length": 20,
          "start": 3217
        }
      ]
    }
  }
}