{
  "_format": "hh-sol-artifact-1",
  "contractName": "GigaBridge",
  "sourceName": "contracts/evm/GigaBridge.sol",
  "abi": [
    {
      "inputs": [
        {
          "internalType": "address[]",
          "name": "_gigaRootRecipients",
          "type": "address[]"
        },
        {
          "internalType": "uint8",
          "name": "_maxTreeDepth",
          "type": "uint8"
        }
      ],
      "stateMutability": "nonpayable",
      "type": "constructor"
    },
    {
      "anonymous": false,
      "inputs": [
        {
          "indexed": true,
          "internalType": "uint256",
          "name": "newGigaRoot",
          "type": "uint256"
        }
      ],
      "name": "ConstructedNewGigaRoot",
      "type": "event"
    },
    {
      "anonymous": false,
      "inputs": [
        {
          "indexed": true,
          "internalType": "uint256",
          "name": "newLocalRoot",
          "type": "uint256"
        },
        {
          "indexed": true,
          "internalType": "uint40",
          "name": "localRootIndex",
          "type": "uint40"
        },
        {
          "indexed": false,
          "internalType": "uint256",
          "name": "localRootBlockNumber",
          "type": "uint256"
        }
      ],
      "name": "ReceivedNewLocalRoot",
      "type": "event"
    },
    {
      "inputs": [],
      "name": "amountOfLocalRoots",
      "outputs": [
        {
          "internalType": "uint256",
          "name": "",
          "type": "uint256"
        }
      ],
      "stateMutability": "view",
      "type": "function"
    },
    {
      "inputs": [
        {
          "internalType": "address",
          "name": "_localRootProvider",
          "type": "address"
        }
      ],
      "name": "getLocalRootProvidersIndex",
      "outputs": [
        {
          "internalType": "uint40",
          "name": "",
          "type": "uint40"
        }
      ],
      "stateMutability": "view",
      "type": "function"
    },
    {
      "inputs": [],
      "name": "gigaRoot",
      "outputs": [
        {
          "internalType": "uint256",
          "name": "",
          "type": "uint256"
        }
      ],
      "stateMutability": "view",
      "type": "function"
    },
    {
      "inputs": [
        {
          "internalType": "address",
          "name": "_localRootProvider",
          "type": "address"
        }
      ],
      "name": "isLocalRootProviders",
      "outputs": [
        {
          "internalType": "bool",
          "name": "",
          "type": "bool"
        }
      ],
      "stateMutability": "view",
      "type": "function"
    },
    {
      "inputs": [
        {
          "internalType": "address",
          "name": "",
          "type": "address"
        }
      ],
      "name": "localRootBlockNumbers",
      "outputs": [
        {
          "internalType": "uint256",
          "name": "",
          "type": "uint256"
        }
      ],
      "stateMutability": "view",
      "type": "function"
    },
    {
      "inputs": [],
      "name": "maxTreeDepth",
      "outputs": [
        {
          "internalType": "uint8",
          "name": "",
          "type": "uint8"
        }
      ],
      "stateMutability": "view",
      "type": "function"
    },
    {
      "inputs": [],
      "name": "rootTreeData",
      "outputs": [
        {
          "internalType": "uint40",
          "name": "maxIndex",
          "type": "uint40"
        },
        {
          "internalType": "uint40",
          "name": "numberOfLeaves",
          "type": "uint40"
        }
      ],
      "stateMutability": "view",
      "type": "function"
    },
    {
      "inputs": [
        {
          "internalType": "address[]",
          "name": "_gigaRootRecipients",
          "type": "address[]"
        }
      ],
      "name": "sendGigaRoot",
      "outputs": [],
      "stateMutability": "nonpayable",
      "type": "function"
    },
    {
      "inputs": [
        {
          "internalType": "address",
          "name": "_gigaRootRecipient",
          "type": "address"
        }
      ],
      "name": "sendGigaRoot",
      "outputs": [],
      "stateMutability": "nonpayable",
      "type": "function"
    },
    {
      "inputs": [
        {
          "internalType": "address",
          "name": "_gigaRootRecipient",
          "type": "address"
        }
      ],
      "name": "sendGigaRootPayable",
      "outputs": [],
      "stateMutability": "payable",
      "type": "function"
    },
    {
      "inputs": [
        {
          "internalType": "address[]",
          "name": "_localRootProvider",
          "type": "address[]"
        }
      ],
      "name": "updateGigaRoot",
      "outputs": [],
      "stateMutability": "nonpayable",
      "type": "function"
    }
  ],
  "bytecode": "0x608060405234801561000f575f5ffd5b50604051610d84380380610d8483398101604081905261002e91610271565b6003805460ff191660ff8316908117909155604051631844db3b60e21b815260016004820152602481019190915273__$5fc44c2a7799c6ceb48acabb21e98687d0$__906361136cec906044015f6040518083038186803b158015610091575f5ffd5b505af41580156100a3573d5f5f3e3d5ffd5b505f925050505b82518164ffffffffff161015610162576100ea838264ffffffffff16815181106100d6576100d661034d565b6020026020010151826101f160201b60201c565b60405163011277af60e11b8152600160048201525f602482015273__$5fc44c2a7799c6ceb48acabb21e98687d0$__90630224ef5e906044015f6040518083038186803b158015610139575f5ffd5b505af415801561014b573d5f5f3e3d5ffd5b50505050808061015a90610375565b9150506100aa565b5081516006556003546040516339ebe6e360e01b81526001600482015260ff909116602482015273__$5fc44c2a7799c6ceb48acabb21e98687d0$__906339ebe6e390604401602060405180830381865af41580156101c3573d5f5f3e3d5ffd5b505050506040513d601f19601f820116820180604052508101906101e7919061039b565b5f55506103d59050565b6101fc8160016103b2565b6001600160a01b03929092165f908152600460205260409020805464ffffffffff191664ffffffffff9093169290921790915550565b634e487b7160e01b5f52604160045260245ffd5b80516001600160a01b038116811461025c575f5ffd5b919050565b805160ff8116811461025c575f5ffd5b5f5f60408385031215610282575f5ffd5b82516001600160401b03811115610297575f5ffd5b8301601f810185136102a7575f5ffd5b80516001600160401b038111156102c0576102c0610232565b604051600582901b90603f8201601f191681016001600160401b03811182821017156102ee576102ee610232565b60405291825260208184018101929081018884111561030b575f5ffd5b6020850194505b838510156103315761032385610246565b815260209485019401610312565b5094506103449250505060208401610261565b90509250929050565b634e487b7160e01b5f52603260045260245ffd5b634e487b7160e01b5f52601160045260245ffd5b5f64ffffffffff821664ffffffffff810361039257610392610361565b60010192915050565b5f602082840312156103ab575f5ffd5b5051919050565b64ffffffffff81811683821601908111156103cf576103cf610361565b92915050565b6109a2806103e25f395ff3fe6080604052600436106100b8575f3560e01c80633df6effa11610071578063b68d599a1161004c578063b68d599a14610221578063cc9c92e314610234578063d3f9fa511461025f575f5ffd5b80633df6effa146101965780638e79a15c146101b5578063b32a9571146101d4575f5ffd5b806329c50fa9116100a157806329c50fa914610105578063363f1dad146101195780633b7cd9de14610161575f5ffd5b8063025e2480146100bc578063195cbe4c146100e4575b5f5ffd5b3480156100c7575f5ffd5b506100d160065481565b6040519081526020015b60405180910390f35b3480156100ef575f5ffd5b506101036100fe3660046107dd565b61028a565b005b348015610110575f5ffd5b506100d15f5481565b348015610124575f5ffd5b506001546101439064ffffffffff808216916501000000000090041682565b6040805164ffffffffff9384168152929091166020830152016100db565b34801561016c575f5ffd5b5061018061017b3660046108a8565b61031f565b60405164ffffffffff90911681526020016100db565b3480156101a1575f5ffd5b506101036101b03660046108a8565b610350565b3480156101c0575f5ffd5b506101036101cf3660046107dd565b6103ab565b3480156101df575f5ffd5b506102116101ee3660046108a8565b6001600160a01b03165f9081526004602052604090205464ffffffffff16151590565b60405190151581526020016100db565b61010361022f3660046108a8565b61074b565b34801561023f575f5ffd5b506100d161024e3660046108a8565b60056020525f908152604090205481565b34801561026a575f5ffd5b506003546102789060ff1681565b60405160ff90911681526020016100db565b5f5b815181101561031b575f8282815181106102a8576102a86108c8565b60200260200101519050806001600160a01b03166327e74ca35f546040518263ffffffff1660e01b81526004016102e191815260200190565b5f604051808303815f87803b1580156102f8575f5ffd5b505af115801561030a573d5f5f3e3d5ffd5b50506001909301925061028c915050565b5050565b6001600160a01b0381165f9081526004602052604081205461034a9060019064ffffffffff166108f0565b92915050565b5f546040516327e74ca360e01b815260048101919091526001600160a01b038216906327e74ca3906024015f604051808303815f87803b158015610392575f5ffd5b505af11580156103a4573d5f5f3e3d5ffd5b5050505050565b5f5b81518164ffffffffff16101561067e575f828264ffffffffff16815181106103d7576103d76108c8565b602002602001015190505f6103eb8261031f565b9050610414826001600160a01b03165f9081526004602052604090205464ffffffffff16151590565b61048b5760405162461bcd60e51b815260206004820152602f60248201527f41646472657373206973206e6f742061207265676973746572656420726f6f7460448201527f206272696467652061646472657373000000000000000000000000000000000060648201526084015b60405180910390fd5b5f5f836001600160a01b031663ae5582fa6040518163ffffffff1660e01b815260040160408051808303815f875af11580156104c9573d5f5f3e3d5ffd5b505050506040513d601f19601f820116820180604052508101906104ed919061090d565b6001600160a01b0386165f90815260056020526040902054919350915081101561057f5760405162461bcd60e51b815260206004820152602560248201527f6c6f63616c526f6f742068617320746f206265206e65776572206f722074686560448201527f2073616d650000000000000000000000000000000000000000000000000000006064820152608401610482565b6001600160a01b0384165f9081526005602052604090819020829055517f09489a3c000000000000000000000000000000000000000000000000000000008152600160048201526024810183905264ffffffffff8416604482015273__$5fc44c2a7799c6ceb48acabb21e98687d0$__906309489a3c906064015f6040518083038186803b15801561060f575f5ffd5b505af4158015610621573d5f5f3e3d5ffd5b505050508264ffffffffff16827fd22c20021486e0e86b4af0b379484ed1fb952315fb1e05df3dda5bd6421d936e8360405161065f91815260200190565b60405180910390a35050505080806106769061092f565b9150506103ad565b506003546040517f39ebe6e30000000000000000000000000000000000000000000000000000000081526001600482015260ff90911660248201525f9073__$5fc44c2a7799c6ceb48acabb21e98687d0$__906339ebe6e390604401602060405180830381865af41580156106f5573d5f5f3e3d5ffd5b505050506040513d601f19601f820116820180604052508101906107199190610955565b60405190915081907f8e90d8cfb527d5c92458e67bc378f86769c754f180409b1e5c7ec5e183c91820905f90a25f5550565b5f546040516327e74ca360e01b81526001600160a01b038316916327e74ca391349161077d9160040190815260200190565b5f604051808303818588803b158015610794575f5ffd5b505af11580156107a6573d5f5f3e3d5ffd5b505050505050565b634e487b7160e01b5f52604160045260245ffd5b80356001600160a01b03811681146107d8575f5ffd5b919050565b5f602082840312156107ed575f5ffd5b813567ffffffffffffffff811115610803575f5ffd5b8201601f81018413610813575f5ffd5b803567ffffffffffffffff81111561082d5761082d6107ae565b8060051b604051601f19603f830116810181811067ffffffffffffffff8211171561085a5761085a6107ae565b604052918252602081840181019290810187841115610877575f5ffd5b6020850194505b8385101561089d5761088f856107c2565b81526020948501940161087e565b509695505050505050565b5f602082840312156108b8575f5ffd5b6108c1826107c2565b9392505050565b634e487b7160e01b5f52603260045260245ffd5b634e487b7160e01b5f52601160045260245ffd5b64ffffffffff828116828216039081111561034a5761034a6108dc565b5f5f6040838503121561091e575f5ffd5b505080516020909101519092909150565b5f64ffffffffff821664ffffffffff810361094c5761094c6108dc565b60010192915050565b5f60208284031215610965575f5ffd5b505191905056fea2646970667358221220b7d10f8e2268ba5b566b9fe856468fa87e8bfad9d947ff2a63c459e62c00cd5964736f6c634300081d0033",
  "linkReferences": {
    "@zk-kit/lazy-imt.sol/LazyIMT.sol": {
      "LazyIMT": [
        {
          "length": 20,
          "start": 94
        },
        {
          "length": 20,
          "start": 262
        },
        {
          "length": 20,
          "start": 395
        },
        {
          "length": 20,
          "start": 2494
        },
        {
          "length": 20,
          "start": 2719
        }
      ]
    }
  },
  "deployedLinkReferences": {
    "@zk-kit/lazy-imt.sol/LazyIMT.sol": {
      "LazyIMT": [
        {
          "length": 20,
          "start": 1500
        },
        {
          "length": 20,
          "start": 1725
        }
      ]
    }
  }
}