{
  "_format": "hh-sol-artifact-1",
  "contractName": "L1ScrollBridgeAdapter",
  "sourceName": "contracts/evm/adapters/L1ScrollBridgeAdapter.sol",
  "abi": [
    {
      "inputs": [
        {
          "internalType": "address",
          "name": "_l1ScrollMessenger",
          "type": "address"
        }
      ],
      "stateMutability": "nonpayable",
      "type": "constructor"
    },
    {
      "anonymous": false,
      "inputs": [
        {
          "indexed": false,
          "internalType": "uint256",
          "name": "newL2Root",
          "type": "uint256"
        },
        {
          "indexed": false,
          "internalType": "uint256",
          "name": "l2Block",
          "type": "uint256"
        }
      ],
      "name": "ReceivedNewL2Root",
      "type": "event"
    },
    {
      "inputs": [
        {
          "internalType": "uint256",
          "name": "_gasLimit",
          "type": "uint256"
        }
      ],
      "name": "bridgeGigaRootWithGasLimit",
      "outputs": [],
      "stateMutability": "nonpayable",
      "type": "function"
    },
    {
      "inputs": [],
      "name": "getLocalRootAndBlock",
      "outputs": [
        {
          "internalType": "uint256",
          "name": "",
          "type": "uint256"
        },
        {
          "internalType": "uint256",
          "name": "",
          "type": "uint256"
        }
      ],
      "stateMutability": "view",
      "type": "function"
    },
    {
      "inputs": [
        {
          "internalType": "uint256",
          "name": "_l2Root",
          "type": "uint256"
        },
        {
          "internalType": "uint256",
          "name": "_l2BlockNumber",
          "type": "uint256"
        }
      ],
      "name": "getNewRootFromL2",
      "outputs": [],
      "stateMutability": "nonpayable",
      "type": "function"
    },
    {
      "inputs": [],
      "name": "gigaBridge",
      "outputs": [
        {
          "internalType": "address",
          "name": "",
          "type": "address"
        }
      ],
      "stateMutability": "view",
      "type": "function"
    },
    {
      "inputs": [
        {
          "internalType": "address",
          "name": "_l2ScrollBridgeAdapter",
          "type": "address"
        },
        {
          "internalType": "address",
          "name": "_gigaRootBridge",
          "type": "address"
        }
      ],
      "name": "initialize",
      "outputs": [],
      "stateMutability": "nonpayable",
      "type": "function"
    },
    {
      "inputs": [],
      "name": "l1ScrollMessenger",
      "outputs": [
        {
          "internalType": "address",
          "name": "",
          "type": "address"
        }
      ],
      "stateMutability": "view",
      "type": "function"
    },
    {
      "inputs": [],
      "name": "l2ScrollBridgeAdapter",
      "outputs": [
        {
          "internalType": "address",
          "name": "",
          "type": "address"
        }
      ],
      "stateMutability": "view",
      "type": "function"
    },
    {
      "inputs": [],
      "name": "mostRecentL2Root",
      "outputs": [
        {
          "internalType": "uint256",
          "name": "",
          "type": "uint256"
        }
      ],
      "stateMutability": "view",
      "type": "function"
    },
    {
      "inputs": [],
      "name": "mostRecentL2RootBlockNumber",
      "outputs": [
        {
          "internalType": "uint256",
          "name": "",
          "type": "uint256"
        }
      ],
      "stateMutability": "view",
      "type": "function"
    },
    {
      "inputs": [
        {
          "internalType": "uint256",
          "name": "_newGigaRoot",
          "type": "uint256"
        }
      ],
      "name": "receiveGigaRoot",
      "outputs": [],
      "stateMutability": "nonpayable",
      "type": "function"
    }
  ],
  "bytecode": "0x60806040526005805460ff60a01b19169055348015601b575f5ffd5b506040516109b13803806109b1833981016040819052603891606a565b60048054336001600160a01b031991821617909155600580549091166001600160a01b03929092169190911790556095565b5f602082840312156079575f5ffd5b81516001600160a01b0381168114608e575f5ffd5b9392505050565b61090f806100a25f395ff3fe608060405234801561000f575f5ffd5b50600436106100b9575f3560e01c8063a98f704411610072578063ae5582fa11610058578063ae5582fa1461015b578063df37416514610178578063ea3001871461018b575f5ffd5b8063a98f704414610127578063ac04371014610152575f5ffd5b80632f4eb62d116100a25780632f4eb62d146100e5578063485cc95514610101578063859c957514610114575f5ffd5b8063010bb871146100bd57806327e74ca3146100d2575b5f5ffd5b6100d06100cb3660046107bb565b61019d565b005b6100d06100e03660046107db565b61035c565b6100ee60015481565b6040519081526020015b60405180910390f35b6100d061010f366004610806565b6103c6565b6100d06101223660046107db565b6104ed565b60055461013a906001600160a01b031681565b6040516001600160a01b0390911681526020016100f8565b6100ee60025481565b610163610582565b604080519283526020830191909152016100f8565b60035461013a906001600160a01b031681565b5f5461013a906001600160a01b031681565b6005546001600160a01b031633146102225760405162461bcd60e51b815260206004820152602860248201527f66756e6374696f6e206e6f742063616c6c6564206279206c315363726f6c6c4d60448201527f657373656e67657200000000000000000000000000000000000000000000000060648201526084015b60405180910390fd5b60055f9054906101000a90046001600160a01b03166001600160a01b0316636e296e456040518163ffffffff1660e01b8152600401602060405180830381865afa158015610272573d5f5f3e3d5ffd5b505050506040513d601f19601f82011682018060405250810190610296919061083d565b5f546001600160a01b039081169116146103185760405162461bcd60e51b815260206004820152603b60248201527f636f6e7472616374206d6573736167696e672066726f6d204c32206973206e6f60448201527f7420746865204c325363726f6c6c4272696467654164617074657200000000006064820152608401610219565b60408051838152602081018390527f475b5c7799f48003a7afb7bac86d23c4d2cfd499581b90657c981e4616318a2c910160405180910390a1600191909155600255565b6003546001600160a01b031633146103b65760405162461bcd60e51b815260206004820152600e60248201527f4e6f7420676967614272696467650000000000000000000000000000000000006044820152606401610219565b6103c381620f42406106ca565b50565b6004546001600160a01b031633146104205760405162461bcd60e51b815260206004820152601060248201527f4e6f7420746865206465706c6f796572000000000000000000000000000000006044820152606401610219565b600554600160a01b900460ff161561047a5760405162461bcd60e51b815260206004820152601560248201527f63616e7420696e697469616c697a6520747769636500000000000000000000006044820152606401610219565b600580547fffffffffffffffffffffff00ffffffffffffffffffffffffffffffffffffffff16600160a01b1790555f80546001600160a01b039384167fffffffffffffffffffffffff00000000000000000000000000000000000000009182161790915560038054929093169116179055565b600354604080517f29c50fa900000000000000000000000000000000000000000000000000000000815290515f926001600160a01b0316916329c50fa9916004808301926020929190829003018187875af115801561054e573d5f5f3e3d5ffd5b505050506040513d601f19601f82011682018060405250810190610572919061085f565b905061057e81836106ca565b5050565b5f5f5f600154116106215760405162461bcd60e51b815260206004820152605060248201527f416e204c3220726f6f74206861736e277420796574206265656e20627269646760448201527f656420746f207468697320636f6e74726163742e2072656672657368526f6f7460648201527f206d7573742062652063616c6c65642e00000000000000000000000000000000608482015260a401610219565b5f600254116106be5760405162461bcd60e51b815260206004820152605060248201527f416e204c3220726f6f74206861736e277420796574206265656e20627269646760448201527f656420746f207468697320636f6e74726163742e2072656672657368526f6f7460648201527f206d7573742062652063616c6c65642e00000000000000000000000000000000608482015260a401610219565b50506001546002549091565b6005545f8054604051602481018690526001600160a01b0393841693635f7b157793921690829060440160408051601f198184030181529181526020820180517bffffffffffffffffffffffffffffffffffffffffffffffffffffffff167f41003136000000000000000000000000000000000000000000000000000000001790525160e086901b7fffffffff000000000000000000000000000000000000000000000000000000001681526107899392919088903390600401610876565b5f604051808303818588803b1580156107a0575f5ffd5b505af11580156107b2573d5f5f3e3d5ffd5b50505050505050565b5f5f604083850312156107cc575f5ffd5b50508035926020909101359150565b5f602082840312156107eb575f5ffd5b5035919050565b6001600160a01b03811681146103c3575f5ffd5b5f5f60408385031215610817575f5ffd5b8235610822816107f2565b91506020830135610832816107f2565b809150509250929050565b5f6020828403121561084d575f5ffd5b8151610858816107f2565b9392505050565b5f6020828403121561086f575f5ffd5b5051919050565b6001600160a01b038616815284602082015260a060408201525f84518060a0840152806020870160c085015e5f60c0828501015260c0601f19601f8301168401019150508360608301526001600160a01b0383166080830152969550505050505056fea264697066735822122078ba04e9ce441d29f7d355aea29fc2ecf1503102b58161a568419f4da5520c7a64736f6c634300081d0033",
  "linkReferences": {},
  "deployedLinkReferences": {}
}