{
  "contracts/evm/adapters/L2ScrollBridgeAdapter.sol": {
    "L2ScrollBridgeAdapter": {
      "abi": [
        {
          "inputs": [
            {
              "internalType": "address",
              "name": "_l2ScrollMessenger",
              "type": "address"
            },
            {
              "internalType": "address",
              "name": "_l1ScrollBridgeAdapter",
              "type": "address"
            },
            {
              "internalType": "address",
              "name": "_l2WarpToad",
              "type": "address"
            }
          ],
          "stateMutability": "nonpayable",
          "type": "constructor"
        },
        {
          "inputs": [],
          "name": "gigaRoot",
          "outputs": [
            {
              "internalType": "uint256",
              "name": "",
              "type": "uint256"
            }
          ],
          "stateMutability": "view",
          "type": "function"
        },
        {
          "inputs": [
            {
              "internalType": "uint256",
              "name": "_gigaRoot",
              "type": "uint256"
            }
          ],
          "name": "receiveGigaRoot",
          "outputs": [],
          "stateMutability": "nonpayable",
          "type": "function"
        },
        {
          "inputs": [
            {
              "internalType": "address",
              "name": "_gigaRootRecipient",
              "type": "address"
            }
          ],
          "name": "sendGigaRoot",
          "outputs": [],
          "stateMutability": "nonpayable",
          "type": "function"
        },
        {
          "inputs": [
            {
              "internalType": "uint256",
              "name": "_gasLimit",
              "type": "uint256"
            }
          ],
          "name": "sentLocalRootToL1",
          "outputs": [],
          "stateMutability": "nonpayable",
          "type": "function"
        }
      ],
      "evm": {
        "bytecode": {
          "linkReferences": {},
          "object": "6080604052348015600e575f5ffd5b5060405161061a38038061061a833981016040819052602b916084565b600180546001600160a01b03199081166001600160a01b03948516179091556002805482169484169490941790935560038054909316911617905560bd565b80516001600160a01b0381168114607f575f5ffd5b919050565b5f5f5f606084860312156095575f5ffd5b609c84606a565b925060a860208501606a565b915060b460408501606a565b90509250925092565b610550806100ca5f395ff3fe608060405234801561000f575f5ffd5b506004361061004a575f3560e01c806327e74ca31461004e57806329c50fa9146100635780633df6effa1461007d578063ab0f474814610090575b5f5ffd5b61006161005c36600461042d565b6100a3565b005b61006b5f5481565b60405190815260200160405180910390f35b61006161008b366004610458565b61023b565b61006161009e36600461042d565b6102af565b6002546001600160a01b031633146101285760405162461bcd60e51b815260206004820152602860248201527f66756e6374696f6e206e6f742063616c6c6564206279206c315363726f6c6c4d60448201527f657373656e67657200000000000000000000000000000000000000000000000060648201526084015b60405180910390fd5b60025f9054906101000a90046001600160a01b03166001600160a01b0316636e296e456040518163ffffffff1660e01b8152600401602060405180830381865afa158015610178573d5f5f3e3d5ffd5b505050506040513d601f19601f8201168201806040525081019061019c919061047a565b6001546001600160a01b0390811691161461021f5760405162461bcd60e51b815260206004820152603b60248201527f636f6e7472616374206d6573736167696e672066726f6d204c31206973206e6f60448201527f7420746865204c315363726f6c6c427269646765416461707465720000000000606482015260840161011f565b5f819055600354610238906001600160a01b031661023b565b50565b5f546040517f27e74ca300000000000000000000000000000000000000000000000000000000815260048101919091526001600160a01b038216906327e74ca3906024015f604051808303815f87803b158015610296575f5ffd5b505af11580156102a8573d5f5f3e3d5ffd5b5050505050565b600354604080517fae5582fa00000000000000000000000000000000000000000000000000000000815281515f9384936001600160a01b039091169263ae5582fa9260048083019392829003018187875af1158015610310573d5f5f3e3d5ffd5b505050506040513d601f19601f820116820180604052508101906103349190610495565b6002546001546040805160248101869052604480820186905282518083039091018152606490910182526020810180517bffffffffffffffffffffffffffffffffffffffffffffffffffffffff167f010bb8710000000000000000000000000000000000000000000000000000000017905290517f5f7b15770000000000000000000000000000000000000000000000000000000081529496509294506001600160a01b0391821693635f7b1577935f936103fa9316918491908a9033906004016104b7565b5f604051808303818588803b158015610411575f5ffd5b505af1158015610423573d5f5f3e3d5ffd5b5050505050505050565b5f6020828403121561043d575f5ffd5b5035919050565b6001600160a01b0381168114610238575f5ffd5b5f60208284031215610468575f5ffd5b813561047381610444565b9392505050565b5f6020828403121561048a575f5ffd5b815161047381610444565b5f5f604083850312156104a6575f5ffd5b505080516020909101519092909150565b6001600160a01b038616815284602082015260a060408201525f84518060a0840152806020870160c085015e5f60c0828501015260c0601f19601f8301168401019150508360608301526001600160a01b0383166080830152969550505050505056fea2646970667358221220860406f7a3fe7a0526199a008620d5f164a99dce6f58e67ad6dc32db5fa9c8f564736f6c634300081d0033",
          "opcodes": "PUSH1 0x80 PUSH1 0x40 MSTORE CALLVALUE DUP1 ISZERO PUSH1 0xE JUMPI PUSH0 PUSH0 REVERT JUMPDEST POP PUSH1 0x40 MLOAD PUSH2 0x61A CODESIZE SUB DUP1 PUSH2 0x61A DUP4 CODECOPY DUP2 ADD PUSH1 0x40 DUP2 SWAP1 MSTORE PUSH1 0x2B SWAP2 PUSH1 0x84 JUMP JUMPDEST PUSH1 0x1 DUP1 SLOAD PUSH1 0x1 PUSH1 0x1 PUSH1 0xA0 SHL SUB NOT SWAP1 DUP2 AND PUSH1 0x1 PUSH1 0x1 PUSH1 0xA0 SHL SUB SWAP5 DUP6 AND OR SWAP1 SWAP2 SSTORE PUSH1 0x2 DUP1 SLOAD DUP3 AND SWAP5 DUP5 AND SWAP5 SWAP1 SWAP5 OR SWAP1 SWAP4 SSTORE PUSH1 0x3 DUP1 SLOAD SWAP1 SWAP4 AND SWAP2 AND OR SWAP1 SSTORE PUSH1 0xBD JUMP JUMPDEST DUP1 MLOAD PUSH1 0x1 PUSH1 0x1 PUSH1 0xA0 SHL SUB DUP2 AND DUP2 EQ PUSH1 0x7F JUMPI PUSH0 PUSH0 REVERT JUMPDEST SWAP2 SWAP1 POP JUMP JUMPDEST PUSH0 PUSH0 PUSH0 PUSH1 0x60 DUP5 DUP7 SUB SLT ISZERO PUSH1 0x95 JUMPI PUSH0 PUSH0 REVERT JUMPDEST PUSH1 0x9C DUP5 PUSH1 0x6A JUMP JUMPDEST SWAP3 POP PUSH1 0xA8 PUSH1 0x20 DUP6 ADD PUSH1 0x6A JUMP JUMPDEST SWAP2 POP PUSH1 0xB4 PUSH1 0x40 DUP6 ADD PUSH1 0x6A JUMP JUMPDEST SWAP1 POP SWAP3 POP SWAP3 POP SWAP3 JUMP JUMPDEST PUSH2 0x550 DUP1 PUSH2 0xCA PUSH0 CODECOPY PUSH0 RETURN INVALID PUSH1 0x80 PUSH1 0x40 MSTORE CALLVALUE DUP1 ISZERO PUSH2 0xF JUMPI PUSH0 PUSH0 REVERT JUMPDEST POP PUSH1 0x4 CALLDATASIZE LT PUSH2 0x4A JUMPI PUSH0 CALLDATALOAD PUSH1 0xE0 SHR DUP1 PUSH4 0x27E74CA3 EQ PUSH2 0x4E JUMPI DUP1 PUSH4 0x29C50FA9 EQ PUSH2 0x63 JUMPI DUP1 PUSH4 0x3DF6EFFA EQ PUSH2 0x7D JUMPI DUP1 PUSH4 0xAB0F4748 EQ PUSH2 0x90 JUMPI JUMPDEST PUSH0 PUSH0 REVERT JUMPDEST PUSH2 0x61 PUSH2 0x5C CALLDATASIZE PUSH1 0x4 PUSH2 0x42D JUMP JUMPDEST PUSH2 0xA3 JUMP JUMPDEST STOP JUMPDEST PUSH2 0x6B PUSH0 SLOAD DUP2 JUMP JUMPDEST PUSH1 0x40 MLOAD SWAP1 DUP2 MSTORE PUSH1 0x20 ADD PUSH1 0x40 MLOAD DUP1 SWAP2 SUB SWAP1 RETURN JUMPDEST PUSH2 0x61 PUSH2 0x8B CALLDATASIZE PUSH1 0x4 PUSH2 0x458 JUMP JUMPDEST PUSH2 0x23B JUMP JUMPDEST PUSH2 0x61 PUSH2 0x9E CALLDATASIZE PUSH1 0x4 PUSH2 0x42D JUMP JUMPDEST PUSH2 0x2AF JUMP JUMPDEST PUSH1 0x2 SLOAD PUSH1 0x1 PUSH1 0x1 PUSH1 0xA0 SHL SUB AND CALLER EQ PUSH2 0x128 JUMPI PUSH1 0x40 MLOAD PUSH3 0x461BCD PUSH1 0xE5 SHL DUP2 MSTORE PUSH1 0x20 PUSH1 0x4 DUP3 ADD MSTORE PUSH1 0x28 PUSH1 0x24 DUP3 ADD MSTORE PUSH32 0x66756E6374696F6E206E6F742063616C6C6564206279206C315363726F6C6C4D PUSH1 0x44 DUP3 ADD MSTORE PUSH32 0x657373656E676572000000000000000000000000000000000000000000000000 PUSH1 0x64 DUP3 ADD MSTORE PUSH1 0x84 ADD JUMPDEST PUSH1 0x40 MLOAD DUP1 SWAP2 SUB SWAP1 REVERT JUMPDEST PUSH1 0x2 PUSH0 SWAP1 SLOAD SWAP1 PUSH2 0x100 EXP SWAP1 DIV PUSH1 0x1 PUSH1 0x1 PUSH1 0xA0 SHL SUB AND PUSH1 0x1 PUSH1 0x1 PUSH1 0xA0 SHL SUB AND PUSH4 0x6E296E45 PUSH1 0x40 MLOAD DUP2 PUSH4 0xFFFFFFFF AND PUSH1 0xE0 SHL DUP2 MSTORE PUSH1 0x4 ADD PUSH1 0x20 PUSH1 0x40 MLOAD DUP1 DUP4 SUB DUP2 DUP7 GAS STATICCALL ISZERO DUP1 ISZERO PUSH2 0x178 JUMPI RETURNDATASIZE PUSH0 PUSH0 RETURNDATACOPY RETURNDATASIZE PUSH0 REVERT JUMPDEST POP POP POP POP PUSH1 0x40 MLOAD RETURNDATASIZE PUSH1 0x1F NOT PUSH1 0x1F DUP3 ADD AND DUP3 ADD DUP1 PUSH1 0x40 MSTORE POP DUP2 ADD SWAP1 PUSH2 0x19C SWAP2 SWAP1 PUSH2 0x47A JUMP JUMPDEST PUSH1 0x1 SLOAD PUSH1 0x1 PUSH1 0x1 PUSH1 0xA0 SHL SUB SWAP1 DUP2 AND SWAP2 AND EQ PUSH2 0x21F JUMPI PUSH1 0x40 MLOAD PUSH3 0x461BCD PUSH1 0xE5 SHL DUP2 MSTORE PUSH1 0x20 PUSH1 0x4 DUP3 ADD MSTORE PUSH1 0x3B PUSH1 0x24 DUP3 ADD MSTORE PUSH32 0x636F6E7472616374206D6573736167696E672066726F6D204C31206973206E6F PUSH1 0x44 DUP3 ADD MSTORE PUSH32 0x7420746865204C315363726F6C6C427269646765416461707465720000000000 PUSH1 0x64 DUP3 ADD MSTORE PUSH1 0x84 ADD PUSH2 0x11F JUMP JUMPDEST PUSH0 DUP2 SWAP1 SSTORE PUSH1 0x3 SLOAD PUSH2 0x238 SWAP1 PUSH1 0x1 PUSH1 0x1 PUSH1 0xA0 SHL SUB AND PUSH2 0x23B JUMP JUMPDEST POP JUMP JUMPDEST PUSH0 SLOAD PUSH1 0x40 MLOAD PUSH32 0x27E74CA300000000000000000000000000000000000000000000000000000000 DUP2 MSTORE PUSH1 0x4 DUP2 ADD SWAP2 SWAP1 SWAP2 MSTORE PUSH1 0x1 PUSH1 0x1 PUSH1 0xA0 SHL SUB DUP3 AND SWAP1 PUSH4 0x27E74CA3 SWAP1 PUSH1 0x24 ADD PUSH0 PUSH1 0x40 MLOAD DUP1 DUP4 SUB DUP2 PUSH0 DUP8 DUP1 EXTCODESIZE ISZERO DUP1 ISZERO PUSH2 0x296 JUMPI PUSH0 PUSH0 REVERT JUMPDEST POP GAS CALL ISZERO DUP1 ISZERO PUSH2 0x2A8 JUMPI RETURNDATASIZE PUSH0 PUSH0 RETURNDATACOPY RETURNDATASIZE PUSH0 REVERT JUMPDEST POP POP POP POP POP JUMP JUMPDEST PUSH1 0x3 SLOAD PUSH1 0x40 DUP1 MLOAD PUSH32 0xAE5582FA00000000000000000000000000000000000000000000000000000000 DUP2 MSTORE DUP2 MLOAD PUSH0 SWAP4 DUP5 SWAP4 PUSH1 0x1 PUSH1 0x1 PUSH1 0xA0 SHL SUB SWAP1 SWAP2 AND SWAP3 PUSH4 0xAE5582FA SWAP3 PUSH1 0x4 DUP1 DUP4 ADD SWAP4 SWAP3 DUP3 SWAP1 SUB ADD DUP2 DUP8 DUP8 GAS CALL ISZERO DUP1 ISZERO PUSH2 0x310 JUMPI RETURNDATASIZE PUSH0 PUSH0 RETURNDATACOPY RETURNDATASIZE PUSH0 REVERT JUMPDEST POP POP POP POP PUSH1 0x40 MLOAD RETURNDATASIZE PUSH1 0x1F NOT PUSH1 0x1F DUP3 ADD AND DUP3 ADD DUP1 PUSH1 0x40 MSTORE POP DUP2 ADD SWAP1 PUSH2 0x334 SWAP2 SWAP1 PUSH2 0x495 JUMP JUMPDEST PUSH1 0x2 SLOAD PUSH1 0x1 SLOAD PUSH1 0x40 DUP1 MLOAD PUSH1 0x24 DUP2 ADD DUP7 SWAP1 MSTORE PUSH1 0x44 DUP1 DUP3 ADD DUP7 SWAP1 MSTORE DUP3 MLOAD DUP1 DUP4 SUB SWAP1 SWAP2 ADD DUP2 MSTORE PUSH1 0x64 SWAP1 SWAP2 ADD DUP3 MSTORE PUSH1 0x20 DUP2 ADD DUP1 MLOAD PUSH28 0xFFFFFFFFFFFFFFFFFFFFFFFFFFFFFFFFFFFFFFFFFFFFFFFFFFFFFFFF AND PUSH32 0x10BB87100000000000000000000000000000000000000000000000000000000 OR SWAP1 MSTORE SWAP1 MLOAD PUSH32 0x5F7B157700000000000000000000000000000000000000000000000000000000 DUP2 MSTORE SWAP5 SWAP7 POP SWAP3 SWAP5 POP PUSH1 0x1 PUSH1 0x1 PUSH1 0xA0 SHL SUB SWAP2 DUP3 AND SWAP4 PUSH4 0x5F7B1577 SWAP4 PUSH0 SWAP4 PUSH2 0x3FA SWAP4 AND SWAP2 DUP5 SWAP2 SWAP1 DUP11 SWAP1 CALLER SWAP1 PUSH1 0x4 ADD PUSH2 0x4B7 JUMP JUMPDEST PUSH0 PUSH1 0x40 MLOAD DUP1 DUP4 SUB DUP2 DUP6 DUP9 DUP1 EXTCODESIZE ISZERO DUP1 ISZERO PUSH2 0x411 JUMPI PUSH0 PUSH0 REVERT JUMPDEST POP GAS CALL ISZERO DUP1 ISZERO PUSH2 0x423 JUMPI RETURNDATASIZE PUSH0 PUSH0 RETURNDATACOPY RETURNDATASIZE PUSH0 REVERT JUMPDEST POP POP POP POP POP POP POP POP JUMP JUMPDEST PUSH0 PUSH1 0x20 DUP3 DUP5 SUB SLT ISZERO PUSH2 0x43D JUMPI PUSH0 PUSH0 REVERT JUMPDEST POP CALLDATALOAD SWAP2 SWAP1 POP JUMP JUMPDEST PUSH1 0x1 PUSH1 0x1 PUSH1 0xA0 SHL SUB DUP2 AND DUP2 EQ PUSH2 0x238 JUMPI PUSH0 PUSH0 REVERT JUMPDEST PUSH0 PUSH1 0x20 DUP3 DUP5 SUB SLT ISZERO PUSH2 0x468 JUMPI PUSH0 PUSH0 REVERT JUMPDEST DUP2 CALLDATALOAD PUSH2 0x473 DUP2 PUSH2 0x444 JUMP JUMPDEST SWAP4 SWAP3 POP POP POP JUMP JUMPDEST PUSH0 PUSH1 0x20 DUP3 DUP5 SUB SLT ISZERO PUSH2 0x48A JUMPI PUSH0 PUSH0 REVERT JUMPDEST DUP2 MLOAD PUSH2 0x473 DUP2 PUSH2 0x444 JUMP JUMPDEST PUSH0 PUSH0 PUSH1 0x40 DUP4 DUP6 SUB SLT ISZERO PUSH2 0x4A6 JUMPI PUSH0 PUSH0 REVERT JUMPDEST POP POP DUP1 MLOAD PUSH1 0x20 SWAP1 SWAP2 ADD MLOAD SWAP1 SWAP3 SWAP1 SWAP2 POP JUMP JUMPDEST PUSH1 0x1 PUSH1 0x1 PUSH1 0xA0 SHL SUB DUP7 AND DUP2 MSTORE DUP5 PUSH1 0x20 DUP3 ADD MSTORE PUSH1 0xA0 PUSH1 0x40 DUP3 ADD MSTORE PUSH0 DUP5 MLOAD DUP1 PUSH1 0xA0 DUP5 ADD MSTORE DUP1 PUSH1 0x20 DUP8 ADD PUSH1 0xC0 DUP6 ADD MCOPY PUSH0 PUSH1 0xC0 DUP3 DUP6 ADD ADD MSTORE PUSH1 0xC0 PUSH1 0x1F NOT PUSH1 0x1F DUP4 ADD AND DUP5 ADD ADD SWAP2 POP POP DUP4 PUSH1 0x60 DUP4 ADD MSTORE PUSH1 0x1 PUSH1 0x1 PUSH1 0xA0 SHL SUB DUP4 AND PUSH1 0x80 DUP4 ADD MSTORE SWAP7 SWAP6 POP POP POP POP POP POP JUMP INVALID LOG2 PUSH5 0x6970667358 0x22 SLT KECCAK256 DUP7 DIV MOD 0xF7 LOG3 INVALID PUSH27 0x526199A008620D5F164A99DCE6F58E67AD6DC32DB5FA9C8F56473 PUSH16 0x6C634300081D00330000000000000000 "
        },
        "methodIdentifiers": {
          "gigaRoot()": "29c50fa9",
          "receiveGigaRoot(uint256)": "27e74ca3",
          "sendGigaRoot(address)": "3df6effa",
          "sentLocalRootToL1(uint256)": "ab0f4748"
        }
      }
    }
  }
}