{
  "_format": "hh-sol-artifact-1",
  "contractName": "L1WarpToad",
  "sourceName": "contracts/evm/L1WarpToad.sol",
  "abi": [
    {
      "inputs": [
        {
          "internalType": "uint8",
          "name": "_maxTreeDepth",
          "type": "uint8"
        },
        {
          "internalType": "address",
          "name": "_gigaBridge",
          "type": "address"
        },
        {
          "internalType": "address",
          "name": "_nativeToken",
          "type": "address"
        },
        {
          "internalType": "string",
          "name": "name",
          "type": "string"
        },
        {
          "internalType": "string",
          "name": "symbol",
          "type": "string"
        }
      ],
      "stateMutability": "nonpayable",
      "type": "constructor"
    },
    {
      "inputs": [
        {
          "internalType": "address",
          "name": "spender",
          "type": "address"
        },
        {
          "internalType": "uint256",
          "name": "allowance",
          "type": "uint256"
        },
        {
          "internalType": "uint256",
          "name": "needed",
          "type": "uint256"
        }
      ],
      "name": "ERC20InsufficientAllowance",
      "type": "error"
    },
    {
      "inputs": [
        {
          "internalType": "address",
          "name": "sender",
          "type": "address"
        },
        {
          "internalType": "uint256",
          "name": "balance",
          "type": "uint256"
        },
        {
          "internalType": "uint256",
          "name": "needed",
          "type": "uint256"
        }
      ],
      "name": "ERC20InsufficientBalance",
      "type": "error"
    },
    {
      "inputs": [
        {
          "internalType": "address",
          "name": "approver",
          "type": "address"
        }
      ],
      "name": "ERC20InvalidApprover",
      "type": "error"
    },
    {
      "inputs": [
        {
          "internalType": "address",
          "name": "receiver",
          "type": "address"
        }
      ],
      "name": "ERC20InvalidReceiver",
      "type": "error"
    },
    {
      "inputs": [
        {
          "internalType": "address",
          "name": "sender",
          "type": "address"
        }
      ],
      "name": "ERC20InvalidSender",
      "type": "error"
    },
    {
      "inputs": [
        {
          "internalType": "address",
          "name": "spender",
          "type": "address"
        }
      ],
      "name": "ERC20InvalidSpender",
      "type": "error"
    },
    {
      "anonymous": false,
      "inputs": [
        {
          "indexed": true,
          "internalType": "address",
          "name": "owner",
          "type": "address"
        },
        {
          "indexed": true,
          "internalType": "address",
          "name": "spender",
          "type": "address"
        },
        {
          "indexed": false,
          "internalType": "uint256",
          "name": "value",
          "type": "uint256"
        }
      ],
      "name": "Approval",
      "type": "event"
    },
    {
      "anonymous": false,
      "inputs": [
        {
          "indexed": false,
          "internalType": "uint256",
          "name": "commitment",
          "type": "uint256"
        },
        {
          "indexed": false,
          "internalType": "uint256",
          "name": "amount",
          "type": "uint256"
        }
      ],
      "name": "Burn",
      "type": "event"
    },
    {
      "anonymous": false,
      "inputs": [
        {
          "indexed": true,
          "internalType": "address",
          "name": "from",
          "type": "address"
        },
        {
          "indexed": true,
          "internalType": "address",
          "name": "to",
          "type": "address"
        },
        {
          "indexed": false,
          "internalType": "uint256",
          "name": "value",
          "type": "uint256"
        }
      ],
      "name": "Transfer",
      "type": "event"
    },
    {
      "inputs": [
        {
          "internalType": "address",
          "name": "owner",
          "type": "address"
        },
        {
          "internalType": "address",
          "name": "spender",
          "type": "address"
        }
      ],
      "name": "allowance",
      "outputs": [
        {
          "internalType": "uint256",
          "name": "",
          "type": "uint256"
        }
      ],
      "stateMutability": "view",
      "type": "function"
    },
    {
      "inputs": [
        {
          "internalType": "address",
          "name": "spender",
          "type": "address"
        },
        {
          "internalType": "uint256",
          "name": "value",
          "type": "uint256"
        }
      ],
      "name": "approve",
      "outputs": [
        {
          "internalType": "bool",
          "name": "",
          "type": "bool"
        }
      ],
      "stateMutability": "nonpayable",
      "type": "function"
    },
    {
      "inputs": [
        {
          "internalType": "address",
          "name": "account",
          "type": "address"
        }
      ],
      "name": "balanceOf",
      "outputs": [
        {
          "internalType": "uint256",
          "name": "",
          "type": "uint256"
        }
      ],
      "stateMutability": "view",
      "type": "function"
    },
    {
      "inputs": [],
      "name": "bridgeGigaRoot",
      "outputs": [],
      "stateMutability": "nonpayable",
      "type": "function"
    },
    {
      "inputs": [
        {
          "internalType": "uint256",
          "name": "_preCommitment",
          "type": "uint256"
        },
        {
          "internalType": "uint256",
          "name": "_amount",
          "type": "uint256"
        }
      ],
      "name": "burn",
      "outputs": [],
      "stateMutability": "nonpayable",
      "type": "function"
    },
    {
      "inputs": [],
      "name": "commitTreeData",
      "outputs": [
        {
          "internalType": "uint40",
          "name": "maxIndex",
          "type": "uint40"
        },
        {
          "internalType": "uint40",
          "name": "numberOfLeaves",
          "type": "uint40"
        }
      ],
      "stateMutability": "view",
      "type": "function"
    },
    {
      "inputs": [],
      "name": "decimals",
      "outputs": [
        {
          "internalType": "uint8",
          "name": "",
          "type": "uint8"
        }
      ],
      "stateMutability": "view",
      "type": "function"
    },
    {
      "inputs": [],
      "name": "gigaRoot",
      "outputs": [
        {
          "internalType": "uint256",
          "name": "",
          "type": "uint256"
        }
      ],
      "stateMutability": "view",
      "type": "function"
    },
    {
      "inputs": [
        {
          "internalType": "uint256",
          "name": "",
          "type": "uint256"
        }
      ],
      "name": "gigaRootHistory",
      "outputs": [
        {
          "internalType": "bool",
          "name": "",
          "type": "bool"
        }
      ],
      "stateMutability": "view",
      "type": "function"
    },
    {
      "inputs": [
        {
          "internalType": "uint256",
          "name": "_gigaRoot",
          "type": "uint256"
        }
      ],
      "name": "isValidGigaRoot",
      "outputs": [
        {
          "internalType": "bool",
          "name": "",
          "type": "bool"
        }
      ],
      "stateMutability": "view",
      "type": "function"
    },
    {
      "inputs": [
        {
          "internalType": "uint256",
          "name": "_localRoot",
          "type": "uint256"
        }
      ],
      "name": "isValidLocalRoot",
      "outputs": [
        {
          "internalType": "bool",
          "name": "",
          "type": "bool"
        }
      ],
      "stateMutability": "view",
      "type": "function"
    },
    {
      "inputs": [],
      "name": "localRoot",
      "outputs": [
        {
          "internalType": "uint256",
          "name": "",
          "type": "uint256"
        }
      ],
      "stateMutability": "view",
      "type": "function"
    },
    {
      "inputs": [
        {
          "internalType": "uint256",
          "name": "",
          "type": "uint256"
        }
      ],
      "name": "localRootHistory",
      "outputs": [
        {
          "internalType": "bool",
          "name": "",
          "type": "bool"
        }
      ],
      "stateMutability": "view",
      "type": "function"
    },
    {
      "inputs": [],
      "name": "maxTreeDepth",
      "outputs": [
        {
          "internalType": "uint8",
          "name": "",
          "type": "uint8"
        }
      ],
      "stateMutability": "view",
      "type": "function"
    },
    {
      "inputs": [
        {
          "internalType": "address",
          "name": "_recipient",
          "type": "address"
        },
        {
          "internalType": "uint256",
          "name": "_amount",
          "type": "uint256"
        },
        {
          "internalType": "uint256",
          "name": "_gigaRoot",
          "type": "uint256"
        },
        {
          "internalType": "uint256",
          "name": "_localRoot",
          "type": "uint256"
        },
        {
          "internalType": "bytes",
          "name": "_poof",
          "type": "bytes"
        }
      ],
      "name": "mint",
      "outputs": [],
      "stateMutability": "nonpayable",
      "type": "function"
    },
    {
      "inputs": [],
      "name": "name",
      "outputs": [
        {
          "internalType": "string",
          "name": "",
          "type": "string"
        }
      ],
      "stateMutability": "view",
      "type": "function"
    },
    {
      "inputs": [
        {
          "internalType": "uint256",
          "name": "_gigaRoot",
          "type": "uint256"
        }
      ],
      "name": "receiveGigaRoot",
      "outputs": [],
      "stateMutability": "nonpayable",
      "type": "function"
    },
    {
      "inputs": [
        {
          "internalType": "uint256",
          "name": "_root",
          "type": "uint256"
        },
        {
          "internalType": "uint256",
          "name": "_chainId",
          "type": "uint256"
        }
      ],
      "name": "receiveL2Root",
      "outputs": [],
      "stateMutability": "nonpayable",
      "type": "function"
    },
    {
      "inputs": [],
      "name": "storeLocalRootInHistory",
      "outputs": [],
      "stateMutability": "nonpayable",
      "type": "function"
    },
    {
      "inputs": [],
      "name": "symbol",
      "outputs": [
        {
          "internalType": "string",
          "name": "",
          "type": "string"
        }
      ],
      "stateMutability": "view",
      "type": "function"
    },
    {
      "inputs": [],
      "name": "totalSupply",
      "outputs": [
        {
          "internalType": "uint256",
          "name": "",
          "type": "uint256"
        }
      ],
      "stateMutability": "view",
      "type": "function"
    },
    {
      "inputs": [
        {
          "internalType": "address",
          "name": "to",
          "type": "address"
        },
        {
          "internalType": "uint256",
          "name": "value",
          "type": "uint256"
        }
      ],
      "name": "transfer",
      "outputs": [
        {
          "internalType": "bool",
          "name": "",
          "type": "bool"
        }
      ],
      "stateMutability": "nonpayable",
      "type": "function"
    },
    {
      "inputs": [
        {
          "internalType": "address",
          "name": "from",
          "type": "address"
        },
        {
          "internalType": "address",
          "name": "to",
          "type": "address"
        },
        {
          "internalType": "uint256",
          "name": "value",
          "type": "uint256"
        }
      ],
      "name": "transferFrom",
      "outputs": [
        {
          "internalType": "bool",
          "name": "",
          "type": "bool"
        }
      ],
      "stateMutability": "nonpayable",
      "type": "function"
    },
    {
      "inputs": [
        {
          "internalType": "uint256",
          "name": "_amount",
          "type": "uint256"
        }
      ],
      "name": "unwrap",
      "outputs": [],
      "stateMutability": "nonpayable",
      "type": "function"
    },
    {
      "inputs": [
        {
          "internalType": "uint256",
          "name": "_amount",
          "type": "uint256"
        }
      ],
      "name": "wrap",
      "outputs": [],
      "stateMutability": "nonpayable",
      "type": "function"
    }
  ],
  "bytecode": "0x608060405234801561000f575f5ffd5b506040516114da3803806114da83398101604081905261002e916101c7565b84848383600361003e83826102e8565b50600461004b82826102e8565b50506007805460ff191660ff8516908117909155600b80546001600160a01b0319166001600160a01b038516179055604051631844db3b60e21b815260056004820152602481019190915273__$5fc44c2a7799c6ceb48acabb21e98687d0$__91506361136cec906044015f6040518083038186803b1580156100cc575f5ffd5b505af41580156100de573d5f5f3e3d5ffd5b5050600c80546001600160a01b0319166001600160a01b039890981697909717909655506103a29650505050505050565b80516001600160a01b0381168114610125575f5ffd5b919050565b634e487b7160e01b5f52604160045260245ffd5b5f82601f83011261014d575f5ffd5b81516001600160401b038111156101665761016661012a565b604051601f8201601f19908116603f011681016001600160401b03811182821017156101945761019461012a565b6040528181528382016020018510156101ab575f5ffd5b8160208501602083015e5f918101602001919091529392505050565b5f5f5f5f5f60a086880312156101db575f5ffd5b855160ff811681146101eb575f5ffd5b94506101f96020870161010f565b93506102076040870161010f565b60608701519093506001600160401b03811115610222575f5ffd5b61022e8882890161013e565b608088015190935090506001600160401b0381111561024b575f5ffd5b6102578882890161013e565b9150509295509295909350565b600181811c9082168061027857607f821691505b60208210810361029657634e487b7160e01b5f52602260045260245ffd5b50919050565b601f8211156102e357805f5260205f20601f840160051c810160208510156102c15750805b601f840160051c820191505b818110156102e0575f81556001016102cd565b50505b505050565b81516001600160401b038111156103015761030161012a565b6103158161030f8454610264565b8461029c565b6020601f821160018114610347575f83156103305750848201515b5f19600385901b1c1916600184901b1784556102e0565b5f84815260208120601f198516915b828110156103765787850151825560209485019460019092019101610356565b508482101561039357868401515f19600387901b60f8161c191681555b50505050600190811b01905550565b61112b806103af5f395ff3fe608060405234801561000f575f5ffd5b506004361061019a575f3560e01c80636b95cb05116100e8578063b3a5f4eb11610093578063dd62ed3e1161006e578063dd62ed3e1461037a578063de0e9a3e146103b2578063e358270d146103c5578063ea598cb0146103e7575f5ffd5b8063b3a5f4eb14610352578063b49c99b81461035a578063d3f9fa511461036d575f5ffd5b806395d89b41116100c357806395d89b4114610324578063a9059cbb1461032c578063b390c0ab1461033f575f5ffd5b80636b95cb05146102e157806370a08231146102e95780637653da7814610311575f5ffd5b806327e74ca3116101485780632ffe1f29116101235780632ffe1f2914610288578063313ce567146102aa57806357c423e1146102bf575f5ffd5b806327e74ca31461026257806328b0c0aa1461027757806329c50fa91461027f575f5ffd5b80631ec84e8e116101785780631ec84e8e146101f157806323b872dd1461021357806323f364c514610226575f5ffd5b806306fdde031461019e578063095ea7b3146101bc57806318160ddd146101df575b5f5ffd5b6101a66103fa565b6040516101b39190610e0b565b60405180910390f35b6101cf6101ca366004610e5b565b61048a565b60405190151581526020016101b3565b6002545b6040519081526020016101b3565b6101cf6101ff366004610e83565b5f908152600a602052604090205460ff1690565b6101cf610221366004610e9a565b6104a3565b6005546102449064ffffffffff808216916501000000000090041682565b6040805164ffffffffff9384168152929091166020830152016101b3565b610275610270366004610e83565b6104c6565b005b6101e3610568565b6101e360085481565b6101cf610296366004610e83565b600a6020525f908152604090205460ff1681565b60125b60405160ff90911681526020016101b3565b6101cf6102cd366004610e83565b60096020525f908152604090205460ff1681565b610275610607565b6101e36102f7366004610ed4565b6001600160a01b03165f9081526020819052604090205490565b61027561031f366004610ef4565b610634565b6101a66106b8565b6101cf61033a366004610e5b565b6106c7565b61027561034d366004610ef4565b6106d4565b610275610840565b610275610368366004610f28565b61084f565b6007546102ad9060ff1681565b6101e3610388366004611007565b6001600160a01b039182165f90815260016020908152604080832093909416825291909152205490565b6102756103c0366004610e83565b61091a565b6101cf6103d3366004610e83565b5f9081526009602052604090205460ff1690565b6102756103f5366004610e83565b6109b3565b60606003805461040990611038565b80601f016020809104026020016040519081016040528092919081815260200182805461043590611038565b80156104805780601f1061045757610100808354040283529160200191610480565b820191905f5260205f20905b81548152906001019060200180831161046357829003601f168201915b5050505050905090565b5f33610497818585610a4f565b60019150505b92915050565b5f336104b0858285610a61565b6104bb858585610af6565b506001949350505050565b600b546001600160a01b0316331461054b5760405162461bcd60e51b815260206004820152602560248201527f6f6e6c7920676967614272696467652063616e2073656e64207468652067696760448201527f61526f6f7400000000000000000000000000000000000000000000000000000060648201526084015b60405180910390fd5b5f818152600960205260409020805460ff19166001179055600855565b6007546040517f39ebe6e30000000000000000000000000000000000000000000000000000000081526005600482015260ff90911660248201525f9073__$5fc44c2a7799c6ceb48acabb21e98687d0$__906339ebe6e390604401602060405180830381865af41580156105de573d5f5f3e3d5ffd5b505050506040513d601f19601f820116820180604052508101906106029190611070565b905090565b6001600a5f610614610568565b815260208101919091526040015f20805460ff1916911515919091179055565b600b546001600160a01b031633146106b45760405162461bcd60e51b815260206004820152602260248201527f6f6e6c7920676967614272696467652063616e2073656e642061204c3220726f60448201527f6f740000000000000000000000000000000000000000000000000000000000006064820152608401610542565b5050565b60606004805461040990611038565b5f33610497818585610af6565b6106de3382610b53565b6040805180820182528381526020810183905290517f561558fe0000000000000000000000000000000000000000000000000000000081525f9173__$75f79a42d9bcbdbb69ad79ebd80f556f39$__9163561558fe9161074091600401611087565b602060405180830381865af415801561075b573d5f5f3e3d5ffd5b505050506040513d601f19601f8201168201806040525081019061077f9190611070565b6040517f0224ef5e000000000000000000000000000000000000000000000000000000008152600560048201526024810182905290915073__$5fc44c2a7799c6ceb48acabb21e98687d0$__90630224ef5e906044015f6040518083038186803b1580156107eb575f5ffd5b505af41580156107fd573d5f5f3e3d5ffd5b505060408051848152602081018690527f410c5c259085cde81fedf70c1aa308ec839373c26e9b7ada6560a2aca0254eb6935001905060405180910390a1505050565b5f610849610b87565b60085550565b5f8381526009602052604090205460ff166108ac5760405162461bcd60e51b815260206004820152601160248201527f5f67696761526f6f7420756e6b6e6f776e0000000000000000000000000000006044820152606401610542565b5f828152600a602052604090205460ff166109095760405162461bcd60e51b815260206004820152601260248201527f5f6c6f63616c526f6f7420756e6b6e6f776e00000000000000000000000000006044820152606401610542565b6109138585610b94565b5050505050565b600c546040517fa9059cbb000000000000000000000000000000000000000000000000000000008152336004820152602481018390526001600160a01b039091169063a9059cbb906044016020604051808303815f875af1158015610981573d5f5f3e3d5ffd5b505050506040513d601f19601f820116820180604052508101906109a591906110b7565b506109b03082610b53565b50565b600c546040517f23b872dd000000000000000000000000000000000000000000000000000000008152336004820152306024820152604481018390526001600160a01b03909116906323b872dd906064016020604051808303815f875af1158015610a20573d5f5f3e3d5ffd5b505050506040513d601f19601f82011682018060405250810190610a4491906110b7565b506109b03382610b94565b610a5c8383836001610bc8565b505050565b6001600160a01b038381165f908152600160209081526040808320938616835292905220545f19811015610af05781811015610ae2576040517ffb8f41b20000000000000000000000000000000000000000000000000000000081526001600160a01b03841660048201526024810182905260448101839052606401610542565b610af084848484035f610bc8565b50505050565b6001600160a01b038316610b1f57604051634b637e8f60e11b81525f6004820152602401610542565b6001600160a01b038216610b485760405163ec442f0560e01b81525f6004820152602401610542565b610a5c838383610ccc565b6001600160a01b038216610b7c57604051634b637e8f60e11b81525f6004820152602401610542565b6106b4825f83610ccc565b5f610b90610568565b5090565b6001600160a01b038216610bbd5760405163ec442f0560e01b81525f6004820152602401610542565b6106b45f8383610ccc565b6001600160a01b038416610c0a576040517fe602df050000000000000000000000000000000000000000000000000000000081525f6004820152602401610542565b6001600160a01b038316610c4c576040517f94280d620000000000000000000000000000000000000000000000000000000081525f6004820152602401610542565b6001600160a01b038085165f9081526001602090815260408083209387168352929052208290558015610af057826001600160a01b0316846001600160a01b03167f8c5be1e5ebec7d5bd14f71427d1e84f3dd0314c0f7b2291e5b200ac8c7c3b92584604051610cbe91815260200190565b60405180910390a350505050565b6001600160a01b038316610cf6578060025f828254610ceb91906110d6565b90915550610d7f9050565b6001600160a01b0383165f9081526020819052604090205481811015610d61576040517fe450d38c0000000000000000000000000000000000000000000000000000000081526001600160a01b03851660048201526024810182905260448101839052606401610542565b6001600160a01b0384165f9081526020819052604090209082900390555b6001600160a01b038216610d9b57600280548290039055610db9565b6001600160a01b0382165f9081526020819052604090208054820190555b816001600160a01b0316836001600160a01b03167fddf252ad1be2c89b69c2b068fc378daa952ba7f163c4a11628f55a4df523b3ef83604051610dfe91815260200190565b60405180910390a3505050565b602081525f82518060208401528060208501604085015e5f604082850101526040601f19601f83011684010191505092915050565b80356001600160a01b0381168114610e56575f5ffd5b919050565b5f5f60408385031215610e6c575f5ffd5b610e7583610e40565b946020939093013593505050565b5f60208284031215610e93575f5ffd5b5035919050565b5f5f5f60608486031215610eac575f5ffd5b610eb584610e40565b9250610ec360208501610e40565b929592945050506040919091013590565b5f60208284031215610ee4575f5ffd5b610eed82610e40565b9392505050565b5f5f60408385031215610f05575f5ffd5b50508035926020909101359150565b634e487b7160e01b5f52604160045260245ffd5b5f5f5f5f5f60a08688031215610f3c575f5ffd5b610f4586610e40565b9450602086013593506040860135925060608601359150608086013567ffffffffffffffff811115610f75575f5ffd5b8601601f81018813610f85575f5ffd5b803567ffffffffffffffff811115610f9f57610f9f610f14565b604051601f8201601f19908116603f0116810167ffffffffffffffff81118282101715610fce57610fce610f14565b6040528181528282016020018a1015610fe5575f5ffd5b816020840160208301375f602083830101528093505050509295509295909350565b5f5f60408385031215611018575f5ffd5b61102183610e40565b915061102f60208401610e40565b90509250929050565b600181811c9082168061104c57607f821691505b60208210810361106a57634e487b7160e01b5f52602260045260245ffd5b50919050565b5f60208284031215611080575f5ffd5b5051919050565b6040810181835f5b60028110156110ae57815183526020928301929091019060010161108f565b50505092915050565b5f602082840312156110c7575f5ffd5b81518015158114610eed575f5ffd5b8082018082111561049d57634e487b7160e01b5f52601160045260245ffdfea2646970667358221220d81dfdf9fc7f5a5d0917d03433dda46a34aeac9448d38ba9fe8dce89e6ce566864736f6c634300081d0033",
  "linkReferences": {
    "@zk-kit/lazy-imt.sol/LazyIMT.sol": {
      "LazyIMT": [
        {
          "length": 20,
          "start": 152
        },
        {
          "length": 20,
          "start": 2389
        },
        {
          "length": 20,
          "start": 2919
        }
      ]
    },
    "poseidon-solidity/PoseidonT3.sol": {
      "PoseidonT3": [
        {
          "length": 20,
          "start": 2761
        }
      ]
    }
  },
  "deployedLinkReferences": {
    "@zk-kit/lazy-imt.sol/LazyIMT.sol": {
      "LazyIMT": [
        {
          "length": 20,
          "start": 1446
        },
        {
          "length": 20,
          "start": 1976
        }
      ]
    },
    "poseidon-solidity/PoseidonT3.sol": {
      "PoseidonT3": [
        {
          "length": 20,
          "start": 1818
        }
      ]
    }
  }
}